{
  "address": "0x0B4db67FaA6c6ab179C0942866AE89cC6dc3d8d4",
  "abi": [
    {
      "inputs": [
        {
          "internalType": "contract IERC20",
          "name": "_rewardToken",
          "type": "address"
        }
      ],
      "stateMutability": "nonpayable",
      "type": "constructor"
    },
    {
      "anonymous": false,
      "inputs": [
        {
          "indexed": true,
          "internalType": "address",
          "name": "claimer",
          "type": "address"
        },
        {
          "indexed": true,
          "internalType": "address",
          "name": "rewardToken",
          "type": "address"
        },
        {
          "indexed": true,
          "internalType": "uint256",
          "name": "blockNr",
          "type": "uint256"
        },
        {
          "indexed": false,
          "internalType": "uint256",
          "name": "amount",
          "type": "uint256"
        }
      ],
      "name": "MerkleClaim",
      "type": "event"
    },
    {
      "anonymous": false,
      "inputs": [
        {
          "indexed": true,
          "internalType": "address",
          "name": "funder",
          "type": "address"
        },
        {
          "indexed": true,
          "internalType": "bytes32",
          "name": "merkleRoot",
          "type": "bytes32"
        },
        {
          "indexed": false,
          "internalType": "uint256",
          "name": "blockNr",
          "type": "uint256"
        },
        {
          "indexed": false,
          "internalType": "uint256",
          "name": "amount",
          "type": "uint256"
        },
        {
          "indexed": false,
          "internalType": "bool",
          "name": "withdrawal",
          "type": "bool"
        }
      ],
      "name": "MerkleFundUpdate",
      "type": "event"
    },
    {
      "anonymous": false,
      "inputs": [
        {
          "indexed": true,
          "internalType": "address",
          "name": "creator",
          "type": "address"
        },
        {
          "indexed": true,
          "internalType": "address",
          "name": "rewardToken",
          "type": "address"
        },
        {
          "indexed": false,
          "internalType": "uint256",
          "name": "amount",
          "type": "uint256"
        },
        {
          "indexed": true,
          "internalType": "bytes32",
          "name": "merkleRoot",
          "type": "bytes32"
        },
        {
          "indexed": false,
          "internalType": "uint256",
          "name": "blockNr",
          "type": "uint256"
        },
        {
          "indexed": false,
          "internalType": "uint256",
          "name": "withdrawUnlockTime",
          "type": "uint256"
        }
      ],
      "name": "NewMerkle",
      "type": "event"
    },
    {
      "anonymous": false,
      "inputs": [
        {
          "indexed": true,
          "internalType": "address",
          "name": "previousOwner",
          "type": "address"
        },
        {
          "indexed": true,
          "internalType": "address",
          "name": "newOwner",
          "type": "address"
        }
      ],
      "name": "OwnershipTransferred",
      "type": "event"
    },
    {
      "inputs": [
        {
          "internalType": "uint256",
          "name": "",
          "type": "uint256"
        }
      ],
      "name": "Rewards",
      "outputs": [
        {
          "internalType": "uint256",
          "name": "balance",
          "type": "uint256"
        },
        {
          "internalType": "bytes32",
          "name": "merkleRoot",
          "type": "bytes32"
        },
        {
          "internalType": "uint256",
          "name": "withdrawUnlockTime",
          "type": "uint256"
        },
        {
          "internalType": "uint256",
          "name": "ratio",
          "type": "uint256"
        }
      ],
      "stateMutability": "view",
      "type": "function"
    },
    {
      "inputs": [
        {
          "internalType": "uint256",
          "name": "amount",
          "type": "uint256"
        },
        {
          "internalType": "bytes32",
          "name": "merkleRoot",
          "type": "bytes32"
        },
        {
          "internalType": "uint256",
          "name": "blockNumber",
          "type": "uint256"
        },
        {
          "internalType": "uint256",
          "name": "withdrawUnlockTime",
          "type": "uint256"
        },
        {
          "internalType": "uint256",
          "name": "totalStakedBalance",
          "type": "uint256"
        }
      ],
      "name": "addReward",
      "outputs": [],
      "stateMutability": "nonpayable",
      "type": "function"
    },
    {
      "inputs": [
        {
          "internalType": "uint256",
          "name": "blockNumber",
          "type": "uint256"
        },
        {
          "internalType": "bytes[]",
          "name": "proof",
          "type": "bytes[]"
        }
      ],
      "name": "claim",
      "outputs": [],
      "stateMutability": "nonpayable",
      "type": "function"
    },
    {
      "inputs": [
        {
          "internalType": "address",
          "name": "",
          "type": "address"
        }
      ],
      "name": "delegatorAddresses",
      "outputs": [
        {
          "internalType": "address",
          "name": "",
          "type": "address"
        }
      ],
      "stateMutability": "view",
      "type": "function"
    },
    {
      "inputs": [
        {
          "internalType": "uint256",
          "name": "blockNumber",
          "type": "uint256"
        },
        {
          "internalType": "address",
          "name": "account",
          "type": "address"
        },
        {
          "internalType": "bytes[]",
          "name": "proof",
          "type": "bytes[]"
        }
      ],
      "name": "isClaimable",
      "outputs": [
        {
          "internalType": "bool",
          "name": "",
          "type": "bool"
        }
      ],
      "stateMutability": "view",
      "type": "function"
    },
    {
      "inputs": [],
      "name": "owner",
      "outputs": [
        {
          "internalType": "address",
          "name": "",
          "type": "address"
        }
      ],
      "stateMutability": "view",
      "type": "function"
    },
    {
      "inputs": [],
      "name": "renounceOwnership",
      "outputs": [],
      "stateMutability": "nonpayable",
      "type": "function"
    },
    {
      "inputs": [],
      "name": "rewardToken",
      "outputs": [
        {
          "internalType": "contract IERC20",
          "name": "",
          "type": "address"
        }
      ],
      "stateMutability": "view",
      "type": "function"
    },
    {
      "inputs": [
        {
          "internalType": "uint256",
          "name": "",
          "type": "uint256"
        }
      ],
      "name": "rewards",
      "outputs": [
        {
          "internalType": "uint256",
          "name": "",
          "type": "uint256"
        }
      ],
      "stateMutability": "view",
      "type": "function"
    },
    {
      "inputs": [
        {
          "internalType": "address",
          "name": "_recipient",
          "type": "address"
        },
        {
          "internalType": "address",
          "name": "_delegator",
          "type": "address"
        }
      ],
      "name": "setDelegator",
      "outputs": [],
      "stateMutability": "nonpayable",
      "type": "function"
    },
    {
      "inputs": [
        {
          "internalType": "address",
          "name": "newOwner",
          "type": "address"
        }
      ],
      "name": "transferOwnership",
      "outputs": [],
      "stateMutability": "nonpayable",
      "type": "function"
    },
    {
      "inputs": [
        {
          "internalType": "uint256",
          "name": "blockNumber",
          "type": "uint256"
        },
        {
          "internalType": "uint256",
          "name": "amount",
          "type": "uint256"
        }
      ],
      "name": "withdrawFunds",
      "outputs": [],
      "stateMutability": "nonpayable",
      "type": "function"
    }
  ],
  "transactionHash": "0x2bf119705ff0f6acf2d4c37410ec4a7368959ed0db8fda3822419cf443256007",
  "args": [
    "0x22a2488fE295047Ba13BD8cCCdBC8361DBD8cf7c"
  ],
  "numDeployments": 1,
  "solcInputHash": "30087f7fee47449a419e52a71b53a636",
  "bytecode": "0x60a06040523480156200001157600080fd5b506040516200320138038062003201833981016040819052620000349162000103565b60016000556200004433620000b1565b6001600160a01b0381166200009f5760405162461bcd60e51b815260206004820152601460248201527f546f6b656e2063616e6e6f74206265207a65726f000000000000000000000000604482015260640160405180910390fd5b6001600160a01b031660805262000135565b600180546001600160a01b038381166001600160a01b0319831681179093556040519116919082907f8be0079c531659141344cd1fd0a4f28419497f9722a3daafe3b4186f6b6457e090600090a35050565b6000602082840312156200011657600080fd5b81516001600160a01b03811681146200012e57600080fd5b9392505050565b6080516130866200017b600039600081816101e1015281816104730152818161049d01528181610761015281816108650152818161090d0152610a5201526130866000f3fe608060405234801561001057600080fd5b50600436106100d35760003560e01c80639366452c11610081578063f301af421161005b578063f301af42146101bb578063f7c618c1146101dc578063f8738c251461020357600080fd5b80639366452c14610182578063e525310514610195578063f2fde38b146101a857600080fd5b80636d46379b116100b25780636d46379b14610146578063715018a6146101695780638da5cb5b1461017157600080fd5b8062501e28146100d85780631ce92be5146100ed57806341f891a414610100575b600080fd5b6100eb6100e6366004612c03565b61025a565b005b6100eb6100fb366004612c6b565b61051c565b61012961010e366004612c9e565b6004602052600090815260409020546001600160a01b031681565b6040516001600160a01b0390911681526020015b60405180910390f35b610159610154366004612cb9565b6105cd565b604051901515815260200161013d565b6100eb610667565b6001546001600160a01b0316610129565b6100eb610190366004612d13565b61067b565b6100eb6101a3366004612d4e565b61096e565b6100eb6101b6366004612c9e565b610ac9565b6101ce6101c9366004612d70565b610b59565b60405190815260200161013d565b6101297f000000000000000000000000000000000000000000000000000000000000000081565b61023a610211366004612d70565b600360208190526000918252604090912080546001820154600283015492909301549092919084565b60408051948552602085019390935291830152606082015260800161013d565b610262610b7a565b600083815260036020526040902060018101546102c65760405162461bcd60e51b815260206004820152601060248201527f526577617264206e6f7420666f756e640000000000000000000000000000000060448201526064015b60405180910390fd5b336000908152600460205260408120546001600160a01b03166102e95733610303565b336000908152600460205260409020546001600160a01b03165b604080516001600160a01b038316602082015260029181019190915290915060009060600160405160208183030381529060405280519060200120905060006103528460010154838888610bd3565b90506000670de0b6b3a764000085600301548361036f9190612d9f565b6103799190612dcc565b905080856000015410156103cf5760405162461bcd60e51b815260206004820152601d60248201527f436c61696d20756e6465722d66756e6465642062792066756e6465722e00000060448201526064016102bd565b600088815260036020908152604080832086845260040190915290205460ff161561043c5760405162461bcd60e51b815260206004820152600f60248201527f416c726561647920636c61696d6564000000000000000000000000000000000060448201526064016102bd565b60008381526004860160205260409020805460ff191660011790558454610464908290612de0565b855561049a6001600160a01b037f0000000000000000000000000000000000000000000000000000000000000000168583610c70565b877f00000000000000000000000000000000000000000000000000000000000000006001600160a01b0316856001600160a01b03167fceea116ca90ae38b5f3bcd7482763d0bdd5915faed2146d37b1e3bcd1ea425378460405161050091815260200190565b60405180910390a450505050506105176001600055565b505050565b610524610d19565b6001600160a01b0382161580159061054457506001600160a01b03811615155b6105905760405162461bcd60e51b815260206004820152601860248201527f496e76616c696420616464726573732070726f7669646564000000000000000060448201526064016102bd565b6001600160a01b03908116600090815260046020526040902080549190921673ffffffffffffffffffffffffffffffffffffffff19909116179055565b60008481526003602090815260408083206001015481516001600160a01b038816818501526002818401528251808203840181526060909101909252815191909201208183036106225760009250505061065f565b600087815260036020908152604080832084845260040190915290205460ff1615801561065a5750600061065883838888610bd3565b115b925050505b949350505050565b61066f610d19565b6106796000610d73565b565b610683610d19565b836106d05760405162461bcd60e51b815260206004820152601a60248201527f4d65726b6c6520726f6f742063616e6e6f74206265207a65726f00000000000060448201526064016102bd565b60008381526003602052604090206001810154156107305760405162461bcd60e51b815260206004820152601e60248201527f4d65726b6c6520726f6f742077617320616c726561647920706f73746564000060448201526064016102bd565b6040517f70a082310000000000000000000000000000000000000000000000000000000081523360048201526000907f00000000000000000000000000000000000000000000000000000000000000006001600160a01b0316906370a0823190602401602060405180830381865afa1580156107b0573d6000803e3d6000fd5b505050506040513d601f19601f820116820180604052508101906107d49190612df3565b90506000871180156107e65750808711155b6108585760405162461bcd60e51b815260206004820152602660248201527f496e76616c696420616d6f756e74206f7220696e73756666696369656e74206260448201527f616c616e6365000000000000000000000000000000000000000000000000000060648201526084016102bd565b61088d6001600160a01b037f00000000000000000000000000000000000000000000000000000000000000001633308a610dd2565b8682556001820186905560028201849055826108b188670de0b6b3a7640000612d9f565b6108bb9190612dcc565b6003830155600280546001810182556000919091527f405787fa12a823e0f2b7631cc41b3ba8828b3321ca811111fa75cd3aa3bb5ace01859055604080518881526020810187905290810185905286907f00000000000000000000000000000000000000000000000000000000000000006001600160a01b03169033907f4993e379e2a0a87975314480436d8f2de32d291a64892cb63cdb0839d09044369060600160405180910390a450505050505050565b610976610d19565b600082815260036020526040902060028101544210156109d85760405162461bcd60e51b815260206004820152601c60248201527f52657761726473206d6179206e6f742062652077697468647261776e0000000060448201526064016102bd565b8054821115610a295760405162461bcd60e51b815260206004820152601460248201527f496e73756666696369656e742062616c616e636500000000000000000000000060448201526064016102bd565b81816000016000828254610a3d9190612de0565b9182905550825550610a796001600160a01b037f0000000000000000000000000000000000000000000000000000000000000000163384610c70565b6001808201546040805186815260208101869052908101929092529033907f210aece5a2bb3ac8bbec4d3bd83444123ef037a899b89d617e735799f983e6b39060600160405180910390a3505050565b610ad1610d19565b6001600160a01b038116610b4d5760405162461bcd60e51b815260206004820152602660248201527f4f776e61626c653a206e6577206f776e657220697320746865207a65726f206160448201527f646472657373000000000000000000000000000000000000000000000000000060648201526084016102bd565b610b5681610d73565b50565b60028181548110610b6957600080fd5b600091825260209091200154905081565b600260005403610bcc5760405162461bcd60e51b815260206004820152601f60248201527f5265656e7472616e637947756172643a207265656e7472616e742063616c6c0060448201526064016102bd565b6002600055565b600080610c14610c0f86604051602001610bef91815260200190565b60408051601f19818403018152919052610c098688612e53565b89610e29565b610e4e565b905060005b8151811015610c6657818181518110610c3457610c34612f28565b016020015160f81c610c4884610100612d9f565b610c529190612f3e565b925080610c5e81612f51565b915050610c19565b5050949350505050565b6040516001600160a01b0383166024820152604481018290526105179084907fa9059cbb00000000000000000000000000000000000000000000000000000000906064015b60408051601f198184030181529190526020810180517bffffffffffffffffffffffffffffffffffffffffffffffffffffffff167fffffffff0000000000000000000000000000000000000000000000000000000090931692909217909152610e67565b6001546001600160a01b031633146106795760405162461bcd60e51b815260206004820181905260248201527f4f776e61626c653a2063616c6c6572206973206e6f7420746865206f776e657260448201526064016102bd565b600180546001600160a01b0383811673ffffffffffffffffffffffffffffffffffffffff19831681179093556040519116919082907f8be0079c531659141344cd1fd0a4f28419497f9722a3daafe3b4186f6b6457e090600090a35050565b6040516001600160a01b0380851660248301528316604482015260648101829052610e239085907f23b872dd0000000000000000000000000000000000000000000000000000000090608401610cb5565b50505050565b60606000610e3685610f4f565b9050610e43818585610f81565b9150505b9392505050565b6060610e61610e5c8361189d565b611959565b92915050565b6000610ebc826040518060400160405280602081526020017f5361666545524332303a206c6f772d6c6576656c2063616c6c206661696c6564815250856001600160a01b0316611a8e9092919063ffffffff16565b9050805160001480610edd575080806020019051810190610edd9190612f6a565b6105175760405162461bcd60e51b815260206004820152602a60248201527f5361666545524332303a204552433230206f7065726174696f6e20646964206e60448201527f6f7420737563636565640000000000000000000000000000000000000000000060648201526084016102bd565b60608180519060200120604051602001610f6b91815260200190565b6040516020818303038152906040529050919050565b60606000845111610fd45760405162461bcd60e51b815260206004820152601560248201527f4d65726b6c65547269653a20656d707479206b6579000000000000000000000060448201526064016102bd565b6000610fdf84611a9d565b90506000610fec86611b8c565b905060008460405160200161100391815260200190565b60405160208183030381529060405290506000805b845181101561182e57600085828151811061103557611035612f28565b6020026020010151905084518311156110b65760405162461bcd60e51b815260206004820152602e60248201527f4d65726b6c65547269653a206b657920696e646578206578636565647320746f60448201527f74616c206b6579206c656e67746800000000000000000000000000000000000060648201526084016102bd565b826000036111555780518051602091820120604051611104926110de92910190815260200190565b604051602081830303815290604052858051602091820120825192909101919091201490565b6111505760405162461bcd60e51b815260206004820152601d60248201527f4d65726b6c65547269653a20696e76616c696420726f6f74206861736800000060448201526064016102bd565b611278565b8051516020116111f1578051805160209182012060405161117f926110de92910190815260200190565b6111505760405162461bcd60e51b815260206004820152602760248201527f4d65726b6c65547269653a20696e76616c6964206c6172676520696e7465726e60448201527f616c20686173680000000000000000000000000000000000000000000000000060648201526084016102bd565b8051845160208087019190912082519190920120146112785760405162461bcd60e51b815260206004820152602660248201527f4d65726b6c65547269653a20696e76616c696420696e7465726e616c206e6f6460448201527f652068617368000000000000000000000000000000000000000000000000000060648201526084016102bd565b61128460106001612f3e565b8160200151510361143157845183036113c95760006112c082602001516010815181106112b3576112b3612f28565b6020026020010151611959565b905060008151116113395760405162461bcd60e51b815260206004820152603b60248201527f4d65726b6c65547269653a2076616c7565206c656e677468206d75737420626560448201527f2067726561746572207468616e207a65726f20286272616e636829000000000060648201526084016102bd565b600187516113479190612de0565b83146113bb5760405162461bcd60e51b815260206004820152603a60248201527f4d65726b6c65547269653a2076616c7565206e6f6465206d757374206265206c60448201527f617374206e6f646520696e2070726f6f6620286272616e63682900000000000060648201526084016102bd565b9650610e4795505050505050565b60008584815181106113dd576113dd612f28565b602001015160f81c60f81b60f81c9050600082602001518260ff168151811061140857611408612f28565b6020026020010151905061141b81611bef565b9550611428600186612f3e565b9450505061181b565b6002816020015151036117ad57600061144982611c14565b905060008160008151811061146057611460612f28565b016020015160f81c90506000611477600283612f8c565b611482906002612fae565b90506000611493848360ff16611c38565b905060006114a18a89611c38565b905060006114af8383611c6e565b9050808351146115275760405162461bcd60e51b815260206004820152603a60248201527f4d65726b6c65547269653a20706174682072656d61696e646572206d7573742060448201527f736861726520616c6c206e6962626c65732077697468206b657900000000000060648201526084016102bd565b60ff85166002148061153c575060ff85166003145b156116e257808251146115b75760405162461bcd60e51b815260206004820152603d60248201527f4d65726b6c65547269653a206b65792072656d61696e646572206d757374206260448201527f65206964656e746963616c20746f20706174682072656d61696e64657200000060648201526084016102bd565b60006115d388602001516001815181106112b3576112b3612f28565b9050600081511161164c5760405162461bcd60e51b815260206004820152603960248201527f4d65726b6c65547269653a2076616c7565206c656e677468206d75737420626560448201527f2067726561746572207468616e207a65726f20286c656166290000000000000060648201526084016102bd565b60018d5161165a9190612de0565b89146116ce5760405162461bcd60e51b815260206004820152603860248201527f4d65726b6c65547269653a2076616c7565206e6f6465206d757374206265206c60448201527f617374206e6f646520696e2070726f6f6620286c65616629000000000000000060648201526084016102bd565b9c50610e479b505050505050505050505050565b60ff851615806116f5575060ff85166001145b1561173457611721876020015160018151811061171457611714612f28565b6020026020010151611bef565b995061172d818a612f3e565b98506117a2565b60405162461bcd60e51b815260206004820152603260248201527f4d65726b6c65547269653a2072656365697665642061206e6f6465207769746860448201527f20616e20756e6b6e6f776e20707265666978000000000000000000000000000060648201526084016102bd565b50505050505061181b565b60405162461bcd60e51b815260206004820152602860248201527f4d65726b6c65547269653a20726563656976656420616e20756e70617273656160448201527f626c65206e6f646500000000000000000000000000000000000000000000000060648201526084016102bd565b508061182681612f51565b915050611018565b5060405162461bcd60e51b815260206004820152602560248201527f4d65726b6c65547269653a2072616e206f7574206f662070726f6f6620656c6560448201527f6d656e747300000000000000000000000000000000000000000000000000000060648201526084016102bd565b6040805180820190915260008082526020820152600082511161193b5760405162461bcd60e51b815260206004820152604a60248201527f524c505265616465723a206c656e677468206f6620616e20524c50206974656d60448201527f206d7573742062652067726561746572207468616e207a65726f20746f206265606482015269206465636f6461626c6560b01b608482015260a4016102bd565b50604080518082019091528151815260209182019181019190915290565b6060600080600061196985611d05565b91945092509050600081600181111561198457611984612fc7565b146119f75760405162461bcd60e51b815260206004820152603960248201527f524c505265616465723a206465636f646564206974656d207479706520666f7260448201527f206279746573206973206e6f7420612064617461206974656d0000000000000060648201526084016102bd565b611a018284612f3e565b855114611a765760405162461bcd60e51b815260206004820152603460248201527f524c505265616465723a2062797465732076616c756520636f6e7461696e732060448201527f616e20696e76616c69642072656d61696e64657200000000000000000000000060648201526084016102bd565b611a85856020015184846125c7565b95945050505050565b606061065f8484600085612668565b805160609060008167ffffffffffffffff811115611abd57611abd612e0c565b604051908082528060200260200182016040528015611b0257816020015b6040805180820190915260608082526020820152815260200190600190039081611adb5790505b50905060005b82811015611b84576040518060400160405280868381518110611b2d57611b2d612f28565b60200260200101518152602001611b5c878481518110611b4f57611b4f612f28565b602002602001015161274f565b815250828281518110611b7157611b71612f28565b6020908102919091010152600101611b08565b509392505050565b606080604051905082518060011b603f8101601f1916830160405280835250602084016020830160005b83811015611be4578060011b82018184015160001a8060041c8253600f811660018301535050600101611bb6565b509295945050505050565b60606020826000015110611c0b57611c0682611959565b610e61565b610e6182612762565b6060610e61611c3383602001516000815181106112b3576112b3612f28565b611b8c565b606082518210611c575750604080516020810190915260008152610e61565b610e478383848651611c699190612de0565b612778565b60008060008351855110611c83578351611c86565b84515b90505b8082108015611cf55750838281518110611ca557611ca5612f28565b602001015160f81c60f81b7effffffffffffffffffffffffffffffffffffffffffffffffffffffffffffff1916858381518110611ce457611ce4612f28565b01602001516001600160f81b031916145b15611b8457816001019150611c89565b600080600080846000015111611d965760405162461bcd60e51b815260206004820152604a60248201527f524c505265616465723a206c656e677468206f6620616e20524c50206974656d60448201527f206d7573742062652067726561746572207468616e207a65726f20746f206265606482015269206465636f6461626c6560b01b608482015260a4016102bd565b6020840151805160001a607f8111611dbb5760006001600094509450945050506125c0565b60b78111611f65576000611dd0608083612de0565b905080876000015111611e715760405162461bcd60e51b815260206004820152604e60248201527f524c505265616465723a206c656e677468206f6620636f6e74656e74206d757360448201527f742062652067726561746572207468616e20737472696e67206c656e6774682060648201527f2873686f727420737472696e6729000000000000000000000000000000000000608482015260a4016102bd565b6001838101516001600160f81b0319169082141580611eba57507f80000000000000000000000000000000000000000000000000000000000000006001600160f81b0319821610155b611f525760405162461bcd60e51b815260206004820152604d60248201527f524c505265616465723a20696e76616c6964207072656669782c2073696e676c60448201527f652062797465203c203078383020617265206e6f74207072656669786564202860648201527f73686f727420737472696e672900000000000000000000000000000000000000608482015260a4016102bd565b50600195509350600092506125c0915050565b60bf8111612233576000611f7a60b783612de0565b90508087600001511161201b5760405162461bcd60e51b815260206004820152605160248201527f524c505265616465723a206c656e677468206f6620636f6e74656e74206d757360448201527f74206265203e207468616e206c656e677468206f6620737472696e67206c656e60648201527f67746820286c6f6e6720737472696e6729000000000000000000000000000000608482015260a4016102bd565b60018301516001600160f81b03191660008190036120c75760405162461bcd60e51b815260206004820152604a60248201527f524c505265616465723a206c656e677468206f6620636f6e74656e74206d757360448201527f74206e6f74206861766520616e79206c656164696e67207a65726f7320286c6f60648201527f6e6720737472696e672900000000000000000000000000000000000000000000608482015260a4016102bd565b600184015160088302610100031c603781116121715760405162461bcd60e51b815260206004820152604860248201527f524c505265616465723a206c656e677468206f6620636f6e74656e74206d757360448201527f742062652067726561746572207468616e20353520627974657320286c6f6e6760648201527f20737472696e6729000000000000000000000000000000000000000000000000608482015260a4016102bd565b61217b8184612f3e565b8951116122165760405162461bcd60e51b815260206004820152604c60248201527f524c505265616465723a206c656e677468206f6620636f6e74656e74206d757360448201527f742062652067726561746572207468616e20746f74616c206c656e677468202860648201527f6c6f6e6720737472696e67290000000000000000000000000000000000000000608482015260a4016102bd565b612221836001612f3e565b97509550600094506125c09350505050565b60f781116122fa57600061224860c083612de0565b9050808760000151116122e95760405162461bcd60e51b815260206004820152604a60248201527f524c505265616465723a206c656e677468206f6620636f6e74656e74206d757360448201527f742062652067726561746572207468616e206c697374206c656e67746820287360648201527f686f7274206c6973742900000000000000000000000000000000000000000000608482015260a4016102bd565b6001955093508492506125c0915050565b600061230760f783612de0565b9050808760000151116123a85760405162461bcd60e51b815260206004820152604d60248201527f524c505265616465723a206c656e677468206f6620636f6e74656e74206d757360448201527f74206265203e207468616e206c656e677468206f66206c697374206c656e677460648201527f6820286c6f6e67206c6973742900000000000000000000000000000000000000608482015260a4016102bd565b60018301516001600160f81b03191660008190036124545760405162461bcd60e51b815260206004820152604860248201527f524c505265616465723a206c656e677468206f6620636f6e74656e74206d757360448201527f74206e6f74206861766520616e79206c656164696e67207a65726f7320286c6f60648201527f6e67206c69737429000000000000000000000000000000000000000000000000608482015260a4016102bd565b600184015160088302610100031c603781116124fe5760405162461bcd60e51b815260206004820152604660248201527f524c505265616465723a206c656e677468206f6620636f6e74656e74206d757360448201527f742062652067726561746572207468616e20353520627974657320286c6f6e6760648201527f206c697374290000000000000000000000000000000000000000000000000000608482015260a4016102bd565b6125088184612f3e565b8951116125a35760405162461bcd60e51b815260206004820152604a60248201527f524c505265616465723a206c656e677468206f6620636f6e74656e74206d757360448201527f742062652067726561746572207468616e20746f74616c206c656e677468202860648201527f6c6f6e67206c6973742900000000000000000000000000000000000000000000608482015260a4016102bd565b6125ae836001612f3e565b97509550600194506125c09350505050565b9193909250565b606060008267ffffffffffffffff8111156125e4576125e4612e0c565b6040519080825280601f01601f19166020018201604052801561260e576020820181803683370190505b50905082600003612620579050610e47565b600061262c8587612f3e565b90506020820160005b8581101561264d578281015182820152602001612635565b8581111561265c576000868301525b50919695505050505050565b6060824710156126e05760405162461bcd60e51b815260206004820152602660248201527f416464726573733a20696e73756666696369656e742062616c616e636520666f60448201527f722063616c6c000000000000000000000000000000000000000000000000000060648201526084016102bd565b600080866001600160a01b031685876040516126fc9190613001565b60006040518083038185875af1925050503d8060008114612739576040519150601f19603f3d011682016040523d82523d6000602084013e61273e565b606091505b509150915061065a878383876128e4565b6060610e6161275d8361189d565b61295d565b6060610e618260200151600084600001516125c7565b60608182601f0110156127cd5760405162461bcd60e51b815260206004820152600e60248201527f736c6963655f6f766572666c6f7700000000000000000000000000000000000060448201526064016102bd565b82828401101561281f5760405162461bcd60e51b815260206004820152600e60248201527f736c6963655f6f766572666c6f7700000000000000000000000000000000000060448201526064016102bd565b818301845110156128725760405162461bcd60e51b815260206004820152601160248201527f736c6963655f6f75744f66426f756e647300000000000000000000000000000060448201526064016102bd565b60608215801561289157604051915060008252602082016040526128db565b6040519150601f8416801560200281840101858101878315602002848b0101015b818310156128ca5780518352602092830192016128b2565b5050858452601f01601f1916604052505b50949350505050565b6060831561295357825160000361294c576001600160a01b0385163b61294c5760405162461bcd60e51b815260206004820152601d60248201527f416464726573733a2063616c6c20746f206e6f6e2d636f6e747261637400000060448201526064016102bd565b508161065f565b61065f8383612b8d565b6060600080600061296d85611d05565b91945092509050600181600181111561298857612988612fc7565b146129fb5760405162461bcd60e51b815260206004820152603860248201527f524c505265616465723a206465636f646564206974656d207479706520666f7260448201527f206c697374206973206e6f742061206c697374206974656d000000000000000060648201526084016102bd565b8451612a078385612f3e565b14612a7a5760405162461bcd60e51b815260206004820152603260248201527f524c505265616465723a206c697374206974656d2068617320616e20696e766160448201527f6c696420646174612072656d61696e646572000000000000000000000000000060648201526084016102bd565b6040805160208082526104208201909252600091816020015b6040805180820190915260008082526020820152815260200190600190039081612a935790505090506000845b8751811015612b8157600080612b066040518060400160405280858d60000151612aea9190612de0565b8152602001858d60200151612aff9190612f3e565b9052611d05565b509150915060405180604001604052808383612b229190612f3e565b8152602001848c60200151612b379190612f3e565b815250858581518110612b4c57612b4c612f28565b6020908102919091010152612b62600185612f3e565b9350612b6e8183612f3e565b612b789084612f3e565b92505050612ac0565b50815295945050505050565b815115612b9d5781518083602001fd5b8060405162461bcd60e51b81526004016102bd919061301d565b60008083601f840112612bc957600080fd5b50813567ffffffffffffffff811115612be157600080fd5b6020830191508360208260051b8501011115612bfc57600080fd5b9250929050565b600080600060408486031215612c1857600080fd5b83359250602084013567ffffffffffffffff811115612c3657600080fd5b612c4286828701612bb7565b9497909650939450505050565b80356001600160a01b0381168114612c6657600080fd5b919050565b60008060408385031215612c7e57600080fd5b612c8783612c4f565b9150612c9560208401612c4f565b90509250929050565b600060208284031215612cb057600080fd5b610e4782612c4f565b60008060008060608587031215612ccf57600080fd5b84359350612cdf60208601612c4f565b9250604085013567ffffffffffffffff811115612cfb57600080fd5b612d0787828801612bb7565b95989497509550505050565b600080600080600060a08688031215612d2b57600080fd5b505083359560208501359550604085013594606081013594506080013592509050565b60008060408385031215612d6157600080fd5b50508035926020909101359150565b600060208284031215612d8257600080fd5b5035919050565b634e487b7160e01b600052601160045260246000fd5b8082028115828204841417610e6157610e61612d89565b634e487b7160e01b600052601260045260246000fd5b600082612ddb57612ddb612db6565b500490565b81810381811115610e6157610e61612d89565b600060208284031215612e0557600080fd5b5051919050565b634e487b7160e01b600052604160045260246000fd5b604051601f8201601f1916810167ffffffffffffffff81118282101715612e4b57612e4b612e0c565b604052919050565b600067ffffffffffffffff80841115612e6e57612e6e612e0c565b8360051b6020612e7f818301612e22565b868152918501918181019036841115612e9757600080fd5b865b84811015612f1c57803586811115612eb15760008081fd5b8801601f3681830112612ec45760008081fd5b813588811115612ed657612ed6612e0c565b612ee7818301601f19168801612e22565b91508082523687828501011115612efe5760008081fd5b80878401888401376000908201870152845250918301918301612e99565b50979650505050505050565b634e487b7160e01b600052603260045260246000fd5b80820180821115610e6157610e61612d89565b600060018201612f6357612f63612d89565b5060010190565b600060208284031215612f7c57600080fd5b81518015158114610e4757600080fd5b600060ff831680612f9f57612f9f612db6565b8060ff84160691505092915050565b60ff8281168282160390811115610e6157610e61612d89565b634e487b7160e01b600052602160045260246000fd5b60005b83811015612ff8578181015183820152602001612fe0565b50506000910152565b60008251613013818460208701612fdd565b9190910192915050565b602081526000825180602084015261303c816040850160208701612fdd565b601f01601f1916919091016040019291505056fea2646970667358221220ef586eb6a714f1d80c54375ad6c7029882b499d015fab7a74b47a02e7dd863e864736f6c63430008130033",
  "devdoc": {
    "kind": "dev",
    "methods": {
      "addReward(uint256,bytes32,uint256,uint256,uint256)": {
        "params": {
          "amount": "The amount of reward tokens to deposit",
          "blockNumber": "The block number for the Reward",
          "merkleRoot": "The merkle root of the distribution tree",
          "totalStakedBalance": "Total staked balance of the merkleRoot (computed off-chain)",
          "withdrawUnlockTime": "The timestamp after which withdrawals by owner are allowed"
        }
      },
      "claim(uint256,bytes[])": {
        "details": "Checks proofs and claims tracking before transferring rewardTokens",
        "params": {
          "blockNumber": "The block number for the Reward",
          "proof": "The merkle proof for the claim"
        }
      },
      "constructor": {
        "params": {
          "_rewardToken": "The reward token to be distributed"
        }
      },
      "isClaimable(uint256,address,bytes[])": {
        "params": {
          "account": "The address of the account claiming",
          "blockNumber": "The block number for the Reward",
          "proof": "The merkle proof for the claim"
        },
        "returns": {
          "_0": "A bool indicating if the claim is valid and claimable"
        }
      },
      "owner()": {
        "details": "Returns the address of the current owner."
      },
      "renounceOwnership()": {
        "details": "Leaves the contract without owner. It will not be possible to call `onlyOwner` functions. Can only be called by the current owner. NOTE: Renouncing ownership will leave the contract without an owner, thereby disabling any functionality that is only available to the owner."
      },
      "setDelegator(address,address)": {
        "params": {
          "_delegator": "The address that sould claim on behalf of the owner",
          "_recipient": "original eligible recipient address"
        }
      },
      "transferOwnership(address)": {
        "details": "Transfers ownership of the contract to a new account (`newOwner`). Can only be called by the current owner."
      },
      "withdrawFunds(uint256,uint256)": {
        "params": {
          "amount": "The amount to withdraw",
          "blockNumber": "The block number for the Reward"
        }
      }
    },
    "title": "Sonne Finance Merkle tree-based rewards distributor",
    "version": 1
  },
  "userdoc": {
    "kind": "user",
    "methods": {
      "addReward(uint256,bytes32,uint256,uint256,uint256)": {
        "notice": "Creates a new Reward struct for a rewards distribution"
      },
      "claim(uint256,bytes[])": {
        "notice": "Claims the specified amount for an account if valid"
      },
      "constructor": {
        "notice": "Contract constructor to initialize rewardToken"
      },
      "isClaimable(uint256,address,bytes[])": {
        "notice": "Checks if a claim is valid and claimable"
      },
      "setDelegator(address,address)": {
        "notice": "Sets a delegator address for a given recipient"
      },
      "withdrawFunds(uint256,uint256)": {
        "notice": "Allows to withdraw available funds to owner after unlock time"
      }
    },
    "notice": "Contract to distribute rewards on BASE network to Sonne Finance Optimism stakers",
    "version": 1
  },
  "storageLayout": {
    "storage": [
      {
        "astId": 1420,
        "contract": "contracts/SonneMerkleDistributor.sol:SonneMerkleDistributor",
        "label": "_status",
        "offset": 0,
        "slot": "0",
        "type": "t_uint256"
      },
      {
        "astId": 1304,
        "contract": "contracts/SonneMerkleDistributor.sol:SonneMerkleDistributor",
        "label": "_owner",
        "offset": 0,
        "slot": "1",
        "type": "t_address"
      },
      {
        "astId": 3325,
        "contract": "contracts/SonneMerkleDistributor.sol:SonneMerkleDistributor",
        "label": "rewards",
        "offset": 0,
        "slot": "2",
        "type": "t_array(t_uint256)dyn_storage"
      },
      {
        "astId": 3330,
        "contract": "contracts/SonneMerkleDistributor.sol:SonneMerkleDistributor",
        "label": "Rewards",
        "offset": 0,
        "slot": "3",
        "type": "t_mapping(t_uint256,t_struct(Reward)3319_storage)"
      },
      {
        "astId": 3334,
        "contract": "contracts/SonneMerkleDistributor.sol:SonneMerkleDistributor",
        "label": "delegatorAddresses",
        "offset": 0,
        "slot": "4",
        "type": "t_mapping(t_address,t_address)"
      }
    ],
    "types": {
      "t_address": {
        "encoding": "inplace",
        "label": "address",
        "numberOfBytes": "20"
      },
      "t_array(t_uint256)dyn_storage": {
        "base": "t_uint256",
        "encoding": "dynamic_array",
        "label": "uint256[]",
        "numberOfBytes": "32"
      },
      "t_bool": {
        "encoding": "inplace",
        "label": "bool",
        "numberOfBytes": "1"
      },
      "t_bytes32": {
        "encoding": "inplace",
        "label": "bytes32",
        "numberOfBytes": "32"
      },
      "t_mapping(t_address,t_address)": {
        "encoding": "mapping",
        "key": "t_address",
        "label": "mapping(address => address)",
        "numberOfBytes": "32",
        "value": "t_address"
      },
      "t_mapping(t_bytes32,t_bool)": {
        "encoding": "mapping",
        "key": "t_bytes32",
        "label": "mapping(bytes32 => bool)",
        "numberOfBytes": "32",
        "value": "t_bool"
      },
      "t_mapping(t_uint256,t_struct(Reward)3319_storage)": {
        "encoding": "mapping",
        "key": "t_uint256",
        "label": "mapping(uint256 => struct SonneMerkleDistributor.Reward)",
        "numberOfBytes": "32",
        "value": "t_struct(Reward)3319_storage"
      },
      "t_struct(Reward)3319_storage": {
        "encoding": "inplace",
        "label": "struct SonneMerkleDistributor.Reward",
        "members": [
          {
            "astId": 3308,
            "contract": "contracts/SonneMerkleDistributor.sol:SonneMerkleDistributor",
            "label": "balance",
            "offset": 0,
            "slot": "0",
            "type": "t_uint256"
          },
          {
            "astId": 3310,
            "contract": "contracts/SonneMerkleDistributor.sol:SonneMerkleDistributor",
            "label": "merkleRoot",
            "offset": 0,
            "slot": "1",
            "type": "t_bytes32"
          },
          {
            "astId": 3312,
            "contract": "contracts/SonneMerkleDistributor.sol:SonneMerkleDistributor",
            "label": "withdrawUnlockTime",
            "offset": 0,
            "slot": "2",
            "type": "t_uint256"
          },
          {
            "astId": 3314,
            "contract": "contracts/SonneMerkleDistributor.sol:SonneMerkleDistributor",
            "label": "ratio",
            "offset": 0,
            "slot": "3",
            "type": "t_uint256"
          },
          {
            "astId": 3318,
            "contract": "contracts/SonneMerkleDistributor.sol:SonneMerkleDistributor",
            "label": "leafClaimed",
            "offset": 0,
            "slot": "4",
            "type": "t_mapping(t_bytes32,t_bool)"
          }
        ],
        "numberOfBytes": "160"
      },
      "t_uint256": {
        "encoding": "inplace",
        "label": "uint256",
        "numberOfBytes": "32"
      }
    }
  }
}