{
  "address": "0x6cbDABf17c4634fA4F9A0C4A5e73Fd869F9a9be8",
  "abi": [
    {
      "anonymous": false,
      "inputs": [
        {
          "indexed": false,
          "internalType": "uint8",
          "name": "version",
          "type": "uint8"
        }
      ],
      "name": "Initialized",
      "type": "event"
    },
    {
      "anonymous": false,
      "inputs": [
        {
          "indexed": true,
          "internalType": "address",
          "name": "claimer",
          "type": "address"
        },
        {
          "indexed": true,
          "internalType": "address",
          "name": "rewardToken",
          "type": "address"
        },
        {
          "indexed": true,
          "internalType": "uint256",
          "name": "blockNr",
          "type": "uint256"
        },
        {
          "indexed": false,
          "internalType": "uint256",
          "name": "amount",
          "type": "uint256"
        }
      ],
      "name": "MerkleClaim",
      "type": "event"
    },
    {
      "anonymous": false,
      "inputs": [
        {
          "indexed": true,
          "internalType": "address",
          "name": "funder",
          "type": "address"
        },
        {
          "indexed": true,
          "internalType": "bytes32",
          "name": "merkleRoot",
          "type": "bytes32"
        },
        {
          "indexed": false,
          "internalType": "uint256",
          "name": "blockNr",
          "type": "uint256"
        },
        {
          "indexed": false,
          "internalType": "uint256",
          "name": "amount",
          "type": "uint256"
        },
        {
          "indexed": false,
          "internalType": "bool",
          "name": "withdrawal",
          "type": "bool"
        }
      ],
      "name": "MerkleFundUpdate",
      "type": "event"
    },
    {
      "anonymous": false,
      "inputs": [
        {
          "indexed": true,
          "internalType": "address",
          "name": "creator",
          "type": "address"
        },
        {
          "indexed": true,
          "internalType": "address",
          "name": "rewardToken",
          "type": "address"
        },
        {
          "indexed": false,
          "internalType": "uint256",
          "name": "amount",
          "type": "uint256"
        },
        {
          "indexed": true,
          "internalType": "bytes32",
          "name": "merkleRoot",
          "type": "bytes32"
        },
        {
          "indexed": false,
          "internalType": "uint256",
          "name": "blockNr",
          "type": "uint256"
        },
        {
          "indexed": false,
          "internalType": "uint256",
          "name": "withdrawUnlockTime",
          "type": "uint256"
        }
      ],
      "name": "NewMerkle",
      "type": "event"
    },
    {
      "anonymous": false,
      "inputs": [
        {
          "indexed": true,
          "internalType": "bytes32",
          "name": "role",
          "type": "bytes32"
        },
        {
          "indexed": true,
          "internalType": "bytes32",
          "name": "previousAdminRole",
          "type": "bytes32"
        },
        {
          "indexed": true,
          "internalType": "bytes32",
          "name": "newAdminRole",
          "type": "bytes32"
        }
      ],
      "name": "RoleAdminChanged",
      "type": "event"
    },
    {
      "anonymous": false,
      "inputs": [
        {
          "indexed": true,
          "internalType": "bytes32",
          "name": "role",
          "type": "bytes32"
        },
        {
          "indexed": true,
          "internalType": "address",
          "name": "account",
          "type": "address"
        },
        {
          "indexed": true,
          "internalType": "address",
          "name": "sender",
          "type": "address"
        }
      ],
      "name": "RoleGranted",
      "type": "event"
    },
    {
      "anonymous": false,
      "inputs": [
        {
          "indexed": true,
          "internalType": "bytes32",
          "name": "role",
          "type": "bytes32"
        },
        {
          "indexed": true,
          "internalType": "address",
          "name": "account",
          "type": "address"
        },
        {
          "indexed": true,
          "internalType": "address",
          "name": "sender",
          "type": "address"
        }
      ],
      "name": "RoleRevoked",
      "type": "event"
    },
    {
      "inputs": [],
      "name": "DEFAULT_ADMIN_ROLE",
      "outputs": [
        {
          "internalType": "bytes32",
          "name": "",
          "type": "bytes32"
        }
      ],
      "stateMutability": "view",
      "type": "function"
    },
    {
      "inputs": [],
      "name": "FUNDS_ROLE",
      "outputs": [
        {
          "internalType": "bytes32",
          "name": "",
          "type": "bytes32"
        }
      ],
      "stateMutability": "view",
      "type": "function"
    },
    {
      "inputs": [],
      "name": "MANAGER_ROLE",
      "outputs": [
        {
          "internalType": "bytes32",
          "name": "",
          "type": "bytes32"
        }
      ],
      "stateMutability": "view",
      "type": "function"
    },
    {
      "inputs": [
        {
          "internalType": "uint256",
          "name": "",
          "type": "uint256"
        }
      ],
      "name": "Rewards",
      "outputs": [
        {
          "internalType": "uint256",
          "name": "balance",
          "type": "uint256"
        },
        {
          "internalType": "bytes32",
          "name": "merkleRoot",
          "type": "bytes32"
        },
        {
          "internalType": "uint256",
          "name": "withdrawUnlockTime",
          "type": "uint256"
        },
        {
          "internalType": "uint256",
          "name": "ratio",
          "type": "uint256"
        }
      ],
      "stateMutability": "view",
      "type": "function"
    },
    {
      "inputs": [
        {
          "internalType": "uint256",
          "name": "amount",
          "type": "uint256"
        },
        {
          "internalType": "bytes32",
          "name": "merkleRoot",
          "type": "bytes32"
        },
        {
          "internalType": "uint256",
          "name": "blockNumber",
          "type": "uint256"
        },
        {
          "internalType": "uint256",
          "name": "withdrawUnlockTime",
          "type": "uint256"
        },
        {
          "internalType": "uint256",
          "name": "totalStakedBalance",
          "type": "uint256"
        }
      ],
      "name": "addReward",
      "outputs": [],
      "stateMutability": "nonpayable",
      "type": "function"
    },
    {
      "inputs": [
        {
          "internalType": "uint256",
          "name": "blockNumber",
          "type": "uint256"
        },
        {
          "internalType": "bytes[]",
          "name": "proof",
          "type": "bytes[]"
        }
      ],
      "name": "claim",
      "outputs": [],
      "stateMutability": "nonpayable",
      "type": "function"
    },
    {
      "inputs": [
        {
          "internalType": "address",
          "name": "",
          "type": "address"
        }
      ],
      "name": "delegatorAddresses",
      "outputs": [
        {
          "internalType": "address",
          "name": "",
          "type": "address"
        }
      ],
      "stateMutability": "view",
      "type": "function"
    },
    {
      "inputs": [
        {
          "internalType": "bytes32",
          "name": "role",
          "type": "bytes32"
        }
      ],
      "name": "getRoleAdmin",
      "outputs": [
        {
          "internalType": "bytes32",
          "name": "",
          "type": "bytes32"
        }
      ],
      "stateMutability": "view",
      "type": "function"
    },
    {
      "inputs": [
        {
          "internalType": "bytes32",
          "name": "role",
          "type": "bytes32"
        },
        {
          "internalType": "address",
          "name": "account",
          "type": "address"
        }
      ],
      "name": "grantRole",
      "outputs": [],
      "stateMutability": "nonpayable",
      "type": "function"
    },
    {
      "inputs": [
        {
          "internalType": "bytes32",
          "name": "role",
          "type": "bytes32"
        },
        {
          "internalType": "address",
          "name": "account",
          "type": "address"
        }
      ],
      "name": "hasRole",
      "outputs": [
        {
          "internalType": "bool",
          "name": "",
          "type": "bool"
        }
      ],
      "stateMutability": "view",
      "type": "function"
    },
    {
      "inputs": [
        {
          "internalType": "contract IERC20",
          "name": "_rewardToken",
          "type": "address"
        }
      ],
      "name": "initialize",
      "outputs": [],
      "stateMutability": "nonpayable",
      "type": "function"
    },
    {
      "inputs": [
        {
          "internalType": "uint256",
          "name": "blockNumber",
          "type": "uint256"
        },
        {
          "internalType": "address",
          "name": "account",
          "type": "address"
        },
        {
          "internalType": "bytes[]",
          "name": "proof",
          "type": "bytes[]"
        }
      ],
      "name": "isClaimable",
      "outputs": [
        {
          "internalType": "bool",
          "name": "",
          "type": "bool"
        }
      ],
      "stateMutability": "view",
      "type": "function"
    },
    {
      "inputs": [
        {
          "internalType": "bytes32",
          "name": "role",
          "type": "bytes32"
        },
        {
          "internalType": "address",
          "name": "account",
          "type": "address"
        }
      ],
      "name": "renounceRole",
      "outputs": [],
      "stateMutability": "nonpayable",
      "type": "function"
    },
    {
      "inputs": [
        {
          "internalType": "bytes32",
          "name": "role",
          "type": "bytes32"
        },
        {
          "internalType": "address",
          "name": "account",
          "type": "address"
        }
      ],
      "name": "revokeRole",
      "outputs": [],
      "stateMutability": "nonpayable",
      "type": "function"
    },
    {
      "inputs": [],
      "name": "rewardToken",
      "outputs": [
        {
          "internalType": "contract IERC20",
          "name": "",
          "type": "address"
        }
      ],
      "stateMutability": "view",
      "type": "function"
    },
    {
      "inputs": [
        {
          "internalType": "uint256",
          "name": "",
          "type": "uint256"
        }
      ],
      "name": "rewards",
      "outputs": [
        {
          "internalType": "uint256",
          "name": "",
          "type": "uint256"
        }
      ],
      "stateMutability": "view",
      "type": "function"
    },
    {
      "inputs": [
        {
          "internalType": "address",
          "name": "_recipient",
          "type": "address"
        },
        {
          "internalType": "address",
          "name": "_delegator",
          "type": "address"
        }
      ],
      "name": "setDelegator",
      "outputs": [],
      "stateMutability": "nonpayable",
      "type": "function"
    },
    {
      "inputs": [
        {
          "internalType": "bytes4",
          "name": "interfaceId",
          "type": "bytes4"
        }
      ],
      "name": "supportsInterface",
      "outputs": [
        {
          "internalType": "bool",
          "name": "",
          "type": "bool"
        }
      ],
      "stateMutability": "view",
      "type": "function"
    },
    {
      "inputs": [
        {
          "internalType": "uint256",
          "name": "blockNumber",
          "type": "uint256"
        },
        {
          "internalType": "uint256",
          "name": "amount",
          "type": "uint256"
        }
      ],
      "name": "withdrawFunds",
      "outputs": [],
      "stateMutability": "nonpayable",
      "type": "function"
    }
  ],
  "numDeployments": 1,
  "solcInputHash": "7a37e63c2c2109222005519c9241203b",
  "bytecode": "0x608060405234801561001057600080fd5b50613915806100206000396000f3fe608060405234801561001057600080fd5b50600436106101505760003560e01c80639366452c116100cd578063e525310511610081578063f301af4211610066578063f301af421461032b578063f7c618c11461033e578063f8738c251461035157600080fd5b8063e5253105146102f1578063ec87621c1461030457600080fd5b8063a217fddf116100b2578063a217fddf146102c3578063c4d66de8146102cb578063d547741f146102de57600080fd5b80639366452c146102895780639b87ab6d1461029c57600080fd5b80632f2ff15d1161012457806341f891a41161010957806341f891a4146101fc5780636d46379b1461023d57806391d148541461025057600080fd5b80632f2ff15d146101d657806336568abe146101e957600080fd5b8062501e281461015557806301ffc9a71461016a5780631ce92be514610192578063248a9ca3146101a5575b600080fd5b6101686101633660046133a8565b6103a6565b005b61017d6101783660046133f4565b61062b565b60405190151581526020015b60405180910390f35b6101686101a0366004613433565b610694565b6101c86101b336600461346c565b60009081526097602052604090206001015490565b604051908152602001610189565b6101686101e4366004613485565b610768565b6101686101f7366004613485565b61078d565b61022561020a3660046134aa565b60cc602052600090815260409020546001600160a01b031681565b6040516001600160a01b039091168152602001610189565b61017d61024b3660046134c7565b610819565b61017d61025e366004613485565b60009182526097602090815260408084206001600160a01b0393909316845291905290205460ff1690565b610168610297366004613523565b6108b3565b6101c87f7840a44bf6bbc1b45786ad46ece0694a9179b33e609d4ac4a51e6466e1f664c281565b6101c8600081565b6101686102d93660046134aa565b610b77565b6101686102ec366004613485565b610d7c565b6101686102ff36600461355e565b610da1565b6101c87f241ecf16d79d0f8dbfb92cbc07fe17840425976cf0667f022fe9877caa831b0881565b6101c861033936600461346c565b610f02565b60c954610225906001600160a01b031681565b61038661035f36600461346c565b60cb6020526000908152604090208054600182015460028301546003909301549192909184565b604080519485526020850193909352918301526060820152608001610189565b6103ae610f23565b600083815260cb6020526040902060018101546104125760405162461bcd60e51b815260206004820152601060248201527f526577617264206e6f7420666f756e640000000000000000000000000000000060448201526064015b60405180910390fd5b33600090815260cc60205260408120546001600160a01b0316610435573361044f565b33600090815260cc60205260409020546001600160a01b03165b604080516001600160a01b0383166020820152600291810191909152909150600090606001604051602081830303815290604052805190602001209050600061049e8460010154838888610f7c565b905060006ec097ce7bc90715b34b9f10000000008560030154836104c29190613596565b6104cc91906135c3565b905080856000015410156105225760405162461bcd60e51b815260206004820152601d60248201527f436c61696d20756e6465722d66756e6465642062792066756e6465722e0000006044820152606401610409565b600088815260cb6020908152604080832086845260040190915290205460ff161561058f5760405162461bcd60e51b815260206004820152600f60248201527f416c726561647920636c61696d656400000000000000000000000000000000006044820152606401610409565b60008381526004860160205260409020805460ff1916600117905584546105b79082906135d7565b855560c9546105d0906001600160a01b03168583611019565b60c95460405182815289916001600160a01b0390811691908716907fceea116ca90ae38b5f3bcd7482763d0bdd5915faed2146d37b1e3bcd1ea425379060200160405180910390a4505050505061062660018055565b505050565b60006001600160e01b031982167f7965db0b00000000000000000000000000000000000000000000000000000000148061068e57507f01ffc9a7000000000000000000000000000000000000000000000000000000006001600160e01b03198316145b92915050565b7f241ecf16d79d0f8dbfb92cbc07fe17840425976cf0667f022fe9877caa831b086106be816110b0565b6001600160a01b038316158015906106de57506001600160a01b03821615155b61072a5760405162461bcd60e51b815260206004820152601860248201527f496e76616c696420616464726573732070726f766964656400000000000000006044820152606401610409565b506001600160a01b03908116600090815260cc6020526040902080549190921673ffffffffffffffffffffffffffffffffffffffff19909116179055565b600082815260976020526040902060010154610783816110b0565b61062683836110bd565b6001600160a01b038116331461080b5760405162461bcd60e51b815260206004820152602f60248201527f416363657373436f6e74726f6c3a2063616e206f6e6c792072656e6f756e636560448201527f20726f6c657320666f722073656c6600000000000000000000000000000000006064820152608401610409565b610815828261115f565b5050565b600084815260cb602090815260408083206001015481516001600160a01b0388168185015260028184015282518082038401815260609091019092528151919092012081830361086e576000925050506108ab565b600087815260cb6020908152604080832084845260040190915290205460ff161580156108a6575060006108a483838888610f7c565b115b925050505b949350505050565b7f241ecf16d79d0f8dbfb92cbc07fe17840425976cf0667f022fe9877caa831b086108dd816110b0565b8461092a5760405162461bcd60e51b815260206004820152601a60248201527f4d65726b6c6520726f6f742063616e6e6f74206265207a65726f0000000000006044820152606401610409565b600084815260cb6020526040902060018101541561098a5760405162461bcd60e51b815260206004820152601e60248201527f4d65726b6c6520726f6f742077617320616c726561647920706f7374656400006044820152606401610409565b60c9546040517f70a082310000000000000000000000000000000000000000000000000000000081523360048201526000916001600160a01b0316906370a0823190602401602060405180830381865afa1580156109ec573d6000803e3d6000fd5b505050506040513d601f19601f82011682018060405250810190610a1091906135ea565b9050600088118015610a225750808811155b610a945760405162461bcd60e51b815260206004820152602660248201527f496e76616c696420616d6f756e74206f7220696e73756666696369656e74206260448201527f616c616e636500000000000000000000000000000000000000000000000000006064820152608401610409565b60c954610aac906001600160a01b031633308b6111e2565b878255600182018790556002820185905583610ad7896ec097ce7bc90715b34b9f1000000000613596565b610ae191906135c3565b600383015560ca80546001810182556000919091527f42d72674974f694b5f5159593243114d38a5c39c89d6b62fee061ff523240ee10186905560c954604080518a81526020810189905290810187905288916001600160a01b03169033907f4993e379e2a0a87975314480436d8f2de32d291a64892cb63cdb0839d09044369060600160405180910390a45050505050505050565b600054610100900460ff1615808015610b975750600054600160ff909116105b80610bb15750303b158015610bb1575060005460ff166001145b610c235760405162461bcd60e51b815260206004820152602e60248201527f496e697469616c697a61626c653a20636f6e747261637420697320616c72656160448201527f647920696e697469616c697a65640000000000000000000000000000000000006064820152608401610409565b6000805460ff191660011790558015610c46576000805461ff0019166101001790555b610c4e611239565b610c566112ae565b6001600160a01b038216610cac5760405162461bcd60e51b815260206004820152601460248201527f546f6b656e2063616e6e6f74206265207a65726f0000000000000000000000006044820152606401610409565b60c9805473ffffffffffffffffffffffffffffffffffffffff19166001600160a01b038416179055610cdf6000336110bd565b610d097f241ecf16d79d0f8dbfb92cbc07fe17840425976cf0667f022fe9877caa831b08336110bd565b610d337f7840a44bf6bbc1b45786ad46ece0694a9179b33e609d4ac4a51e6466e1f664c2336110bd565b8015610815576000805461ff0019169055604051600181527f7f26b83ff96e1f2b6a682f133852f6798a09c465da95921460cefb38474024989060200160405180910390a15050565b600082815260976020526040902060010154610d97816110b0565b610626838361115f565b7f7840a44bf6bbc1b45786ad46ece0694a9179b33e609d4ac4a51e6466e1f664c2610dcb816110b0565b600083815260cb602052604090206002810154421015610e2d5760405162461bcd60e51b815260206004820152601c60248201527f52657761726473206d6179206e6f742062652077697468647261776e000000006044820152606401610409565b8054831115610e7e5760405162461bcd60e51b815260206004820152601460248201527f496e73756666696369656e742062616c616e63650000000000000000000000006044820152606401610409565b82816000016000828254610e9291906135d7565b918290555082555060c954610eb1906001600160a01b03163385611019565b6001808201546040805187815260208101879052908101929092529033907f210aece5a2bb3ac8bbec4d3bd83444123ef037a899b89d617e735799f983e6b39060600160405180910390a350505050565b60ca8181548110610f1257600080fd5b600091825260209091200154905081565b600260015403610f755760405162461bcd60e51b815260206004820152601f60248201527f5265656e7472616e637947756172643a207265656e7472616e742063616c6c006044820152606401610409565b6002600155565b600080610fbd610fb886604051602001610f9891815260200190565b60408051601f19818403018152919052610fb2868861364a565b89611319565b61133e565b905060005b815181101561100f57818181518110610fdd57610fdd61371f565b016020015160f81c610ff184610100613596565b610ffb9190613735565b92508061100781613748565b915050610fc2565b5050949350505050565b6040516001600160a01b0383166024820152604481018290526106269084907fa9059cbb00000000000000000000000000000000000000000000000000000000906064015b60408051601f198184030181529190526020810180517bffffffffffffffffffffffffffffffffffffffffffffffffffffffff166001600160e01b031990931692909217909152611351565b60018055565b6110ba8133611439565b50565b60008281526097602090815260408083206001600160a01b038516845290915290205460ff166108155760008281526097602090815260408083206001600160a01b03851684529091529020805460ff1916600117905561111b3390565b6001600160a01b0316816001600160a01b0316837f2f8788117e7eff1d82e926ec794901d17c78024a50270940304540a733656f0d60405160405180910390a45050565b60008281526097602090815260408083206001600160a01b038516845290915290205460ff16156108155760008281526097602090815260408083206001600160a01b0385168085529252808320805460ff1916905551339285917ff6391f5c32d9c69d2a47ea670b442974b53935d1edc7fd64eb21e047a839171b9190a45050565b6040516001600160a01b03808516602483015283166044820152606481018290526112339085907f23b872dd000000000000000000000000000000000000000000000000000000009060840161105e565b50505050565b600054610100900460ff166112a45760405162461bcd60e51b815260206004820152602b60248201527f496e697469616c697a61626c653a20636f6e7472616374206973206e6f74206960448201526a6e697469616c697a696e6760a81b6064820152608401610409565b6112ac6114ae565b565b600054610100900460ff166112ac5760405162461bcd60e51b815260206004820152602b60248201527f496e697469616c697a61626c653a20636f6e7472616374206973206e6f74206960448201526a6e697469616c697a696e6760a81b6064820152608401610409565b6060600061132685611519565b905061133381858561154b565b9150505b9392505050565b606061068e61134c83611e67565b611f23565b60006113a6826040518060400160405280602081526020017f5361666545524332303a206c6f772d6c6576656c2063616c6c206661696c6564815250856001600160a01b03166120589092919063ffffffff16565b90508051600014806113c75750808060200190518101906113c79190613761565b6106265760405162461bcd60e51b815260206004820152602a60248201527f5361666545524332303a204552433230206f7065726174696f6e20646964206e60448201527f6f742073756363656564000000000000000000000000000000000000000000006064820152608401610409565b60008281526097602090815260408083206001600160a01b038516845290915290205460ff166108155761146c81612067565b611477836020612079565b6040516020016114889291906137a7565b60408051601f198184030181529082905262461bcd60e51b825261040991600401613828565b600054610100900460ff166110aa5760405162461bcd60e51b815260206004820152602b60248201527f496e697469616c697a61626c653a20636f6e7472616374206973206e6f74206960448201526a6e697469616c697a696e6760a81b6064820152608401610409565b6060818051906020012060405160200161153591815260200190565b6040516020818303038152906040529050919050565b6060600084511161159e5760405162461bcd60e51b815260206004820152601560248201527f4d65726b6c65547269653a20656d707479206b657900000000000000000000006044820152606401610409565b60006115a98461225a565b905060006115b686612349565b90506000846040516020016115cd91815260200190565b60405160208183030381529060405290506000805b8451811015611df85760008582815181106115ff576115ff61371f565b6020026020010151905084518311156116805760405162461bcd60e51b815260206004820152602e60248201527f4d65726b6c65547269653a206b657920696e646578206578636565647320746f60448201527f74616c206b6579206c656e6774680000000000000000000000000000000000006064820152608401610409565b8260000361171f57805180516020918201206040516116ce926116a892910190815260200190565b604051602081830303815290604052858051602091820120825192909101919091201490565b61171a5760405162461bcd60e51b815260206004820152601d60248201527f4d65726b6c65547269653a20696e76616c696420726f6f7420686173680000006044820152606401610409565b611842565b8051516020116117bb5780518051602091820120604051611749926116a892910190815260200190565b61171a5760405162461bcd60e51b815260206004820152602760248201527f4d65726b6c65547269653a20696e76616c6964206c6172676520696e7465726e60448201527f616c2068617368000000000000000000000000000000000000000000000000006064820152608401610409565b8051845160208087019190912082519190920120146118425760405162461bcd60e51b815260206004820152602660248201527f4d65726b6c65547269653a20696e76616c696420696e7465726e616c206e6f6460448201527f65206861736800000000000000000000000000000000000000000000000000006064820152608401610409565b61184e60106001613735565b816020015151036119fb578451830361199357600061188a826020015160108151811061187d5761187d61371f565b6020026020010151611f23565b905060008151116119035760405162461bcd60e51b815260206004820152603b60248201527f4d65726b6c65547269653a2076616c7565206c656e677468206d75737420626560448201527f2067726561746572207468616e207a65726f20286272616e63682900000000006064820152608401610409565b6001875161191191906135d7565b83146119855760405162461bcd60e51b815260206004820152603a60248201527f4d65726b6c65547269653a2076616c7565206e6f6465206d757374206265206c60448201527f617374206e6f646520696e2070726f6f6620286272616e6368290000000000006064820152608401610409565b965061133795505050505050565b60008584815181106119a7576119a761371f565b602001015160f81c60f81b60f81c9050600082602001518260ff16815181106119d2576119d261371f565b602002602001015190506119e5816123ac565b95506119f2600186613735565b94505050611de5565b600281602001515103611d77576000611a13826123d1565b9050600081600081518110611a2a57611a2a61371f565b016020015160f81c90506000611a4160028361385b565b611a4c90600261387d565b90506000611a5d848360ff166123f5565b90506000611a6b8a896123f5565b90506000611a79838361242b565b905080835114611af15760405162461bcd60e51b815260206004820152603a60248201527f4d65726b6c65547269653a20706174682072656d61696e646572206d7573742060448201527f736861726520616c6c206e6962626c65732077697468206b65790000000000006064820152608401610409565b60ff851660021480611b06575060ff85166003145b15611cac5780825114611b815760405162461bcd60e51b815260206004820152603d60248201527f4d65726b6c65547269653a206b65792072656d61696e646572206d757374206260448201527f65206964656e746963616c20746f20706174682072656d61696e6465720000006064820152608401610409565b6000611b9d886020015160018151811061187d5761187d61371f565b90506000815111611c165760405162461bcd60e51b815260206004820152603960248201527f4d65726b6c65547269653a2076616c7565206c656e677468206d75737420626560448201527f2067726561746572207468616e207a65726f20286c65616629000000000000006064820152608401610409565b60018d51611c2491906135d7565b8914611c985760405162461bcd60e51b815260206004820152603860248201527f4d65726b6c65547269653a2076616c7565206e6f6465206d757374206265206c60448201527f617374206e6f646520696e2070726f6f6620286c6561662900000000000000006064820152608401610409565b9c506113379b505050505050505050505050565b60ff85161580611cbf575060ff85166001145b15611cfe57611ceb8760200151600181518110611cde57611cde61371f565b60200260200101516123ac565b9950611cf7818a613735565b9850611d6c565b60405162461bcd60e51b815260206004820152603260248201527f4d65726b6c65547269653a2072656365697665642061206e6f6465207769746860448201527f20616e20756e6b6e6f776e2070726566697800000000000000000000000000006064820152608401610409565b505050505050611de5565b60405162461bcd60e51b815260206004820152602860248201527f4d65726b6c65547269653a20726563656976656420616e20756e70617273656160448201527f626c65206e6f64650000000000000000000000000000000000000000000000006064820152608401610409565b5080611df081613748565b9150506115e2565b5060405162461bcd60e51b815260206004820152602560248201527f4d65726b6c65547269653a2072616e206f7574206f662070726f6f6620656c6560448201527f6d656e74730000000000000000000000000000000000000000000000000000006064820152608401610409565b60408051808201909152600080825260208201526000825111611f055760405162461bcd60e51b815260206004820152604a60248201527f524c505265616465723a206c656e677468206f6620616e20524c50206974656d60448201527f206d7573742062652067726561746572207468616e207a65726f20746f206265606482015269206465636f6461626c6560b01b608482015260a401610409565b50604080518082019091528151815260209182019181019190915290565b60606000806000611f33856124aa565b919450925090506000816001811115611f4e57611f4e613896565b14611fc15760405162461bcd60e51b815260206004820152603960248201527f524c505265616465723a206465636f646564206974656d207479706520666f7260448201527f206279746573206973206e6f7420612064617461206974656d000000000000006064820152608401610409565b611fcb8284613735565b8551146120405760405162461bcd60e51b815260206004820152603460248201527f524c505265616465723a2062797465732076616c756520636f6e7461696e732060448201527f616e20696e76616c69642072656d61696e6465720000000000000000000000006064820152608401610409565b61204f85602001518484612d6c565b95945050505050565b60606108ab8484600085612e0d565b606061068e6001600160a01b03831660145b60606000612088836002613596565b612093906002613735565b67ffffffffffffffff8111156120ab576120ab613603565b6040519080825280601f01601f1916602001820160405280156120d5576020820181803683370190505b5090507f30000000000000000000000000000000000000000000000000000000000000008160008151811061210c5761210c61371f565b60200101906001600160f81b031916908160001a9053507f7800000000000000000000000000000000000000000000000000000000000000816001815181106121575761215761371f565b60200101906001600160f81b031916908160001a905350600061217b846002613596565b612186906001613735565b90505b600181111561220b577f303132333435363738396162636465660000000000000000000000000000000085600f16601081106121c7576121c761371f565b1a60f81b8282815181106121dd576121dd61371f565b60200101906001600160f81b031916908160001a90535060049490941c93612204816138ac565b9050612189565b5083156113375760405162461bcd60e51b815260206004820181905260248201527f537472696e67733a20686578206c656e67746820696e73756666696369656e746044820152606401610409565b805160609060008167ffffffffffffffff81111561227a5761227a613603565b6040519080825280602002602001820160405280156122bf57816020015b60408051808201909152606080825260208201528152602001906001900390816122985790505b50905060005b828110156123415760405180604001604052808683815181106122ea576122ea61371f565b6020026020010151815260200161231987848151811061230c5761230c61371f565b6020026020010151612ef4565b81525082828151811061232e5761232e61371f565b60209081029190910101526001016122c5565b509392505050565b606080604051905082518060011b603f8101601f1916830160405280835250602084016020830160005b838110156123a1578060011b82018184015160001a8060041c8253600f811660018301535050600101612373565b509295945050505050565b606060208260000151106123c8576123c382611f23565b61068e565b61068e82612f07565b606061068e6123f0836020015160008151811061187d5761187d61371f565b612349565b606082518210612414575060408051602081019091526000815261068e565b611337838384865161242691906135d7565b612f1d565b60008060008351855110612440578351612443565b84515b90505b808210801561249a57508382815181106124625761246261371f565b602001015160f81c60f81b6001600160f81b0319168583815181106124895761248961371f565b01602001516001600160f81b031916145b1561234157816001019150612446565b60008060008084600001511161253b5760405162461bcd60e51b815260206004820152604a60248201527f524c505265616465723a206c656e677468206f6620616e20524c50206974656d60448201527f206d7573742062652067726561746572207468616e207a65726f20746f206265606482015269206465636f6461626c6560b01b608482015260a401610409565b6020840151805160001a607f8111612560576000600160009450945094505050612d65565b60b7811161270a5760006125756080836135d7565b9050808760000151116126165760405162461bcd60e51b815260206004820152604e60248201527f524c505265616465723a206c656e677468206f6620636f6e74656e74206d757360448201527f742062652067726561746572207468616e20737472696e67206c656e6774682060648201527f2873686f727420737472696e6729000000000000000000000000000000000000608482015260a401610409565b6001838101516001600160f81b031916908214158061265f57507f80000000000000000000000000000000000000000000000000000000000000006001600160f81b0319821610155b6126f75760405162461bcd60e51b815260206004820152604d60248201527f524c505265616465723a20696e76616c6964207072656669782c2073696e676c60448201527f652062797465203c203078383020617265206e6f74207072656669786564202860648201527f73686f727420737472696e672900000000000000000000000000000000000000608482015260a401610409565b5060019550935060009250612d65915050565b60bf81116129d857600061271f60b7836135d7565b9050808760000151116127c05760405162461bcd60e51b815260206004820152605160248201527f524c505265616465723a206c656e677468206f6620636f6e74656e74206d757360448201527f74206265203e207468616e206c656e677468206f6620737472696e67206c656e60648201527f67746820286c6f6e6720737472696e6729000000000000000000000000000000608482015260a401610409565b60018301516001600160f81b031916600081900361286c5760405162461bcd60e51b815260206004820152604a60248201527f524c505265616465723a206c656e677468206f6620636f6e74656e74206d757360448201527f74206e6f74206861766520616e79206c656164696e67207a65726f7320286c6f60648201527f6e6720737472696e672900000000000000000000000000000000000000000000608482015260a401610409565b600184015160088302610100031c603781116129165760405162461bcd60e51b815260206004820152604860248201527f524c505265616465723a206c656e677468206f6620636f6e74656e74206d757360448201527f742062652067726561746572207468616e20353520627974657320286c6f6e6760648201527f20737472696e6729000000000000000000000000000000000000000000000000608482015260a401610409565b6129208184613735565b8951116129bb5760405162461bcd60e51b815260206004820152604c60248201527f524c505265616465723a206c656e677468206f6620636f6e74656e74206d757360448201527f742062652067726561746572207468616e20746f74616c206c656e677468202860648201527f6c6f6e6720737472696e67290000000000000000000000000000000000000000608482015260a401610409565b6129c6836001613735565b9750955060009450612d659350505050565b60f78111612a9f5760006129ed60c0836135d7565b905080876000015111612a8e5760405162461bcd60e51b815260206004820152604a60248201527f524c505265616465723a206c656e677468206f6620636f6e74656e74206d757360448201527f742062652067726561746572207468616e206c697374206c656e67746820287360648201527f686f7274206c6973742900000000000000000000000000000000000000000000608482015260a401610409565b600195509350849250612d65915050565b6000612aac60f7836135d7565b905080876000015111612b4d5760405162461bcd60e51b815260206004820152604d60248201527f524c505265616465723a206c656e677468206f6620636f6e74656e74206d757360448201527f74206265203e207468616e206c656e677468206f66206c697374206c656e677460648201527f6820286c6f6e67206c6973742900000000000000000000000000000000000000608482015260a401610409565b60018301516001600160f81b0319166000819003612bf95760405162461bcd60e51b815260206004820152604860248201527f524c505265616465723a206c656e677468206f6620636f6e74656e74206d757360448201527f74206e6f74206861766520616e79206c656164696e67207a65726f7320286c6f60648201527f6e67206c69737429000000000000000000000000000000000000000000000000608482015260a401610409565b600184015160088302610100031c60378111612ca35760405162461bcd60e51b815260206004820152604660248201527f524c505265616465723a206c656e677468206f6620636f6e74656e74206d757360448201527f742062652067726561746572207468616e20353520627974657320286c6f6e6760648201527f206c697374290000000000000000000000000000000000000000000000000000608482015260a401610409565b612cad8184613735565b895111612d485760405162461bcd60e51b815260206004820152604a60248201527f524c505265616465723a206c656e677468206f6620636f6e74656e74206d757360448201527f742062652067726561746572207468616e20746f74616c206c656e677468202860648201527f6c6f6e67206c6973742900000000000000000000000000000000000000000000608482015260a401610409565b612d53836001613735565b9750955060019450612d659350505050565b9193909250565b606060008267ffffffffffffffff811115612d8957612d89613603565b6040519080825280601f01601f191660200182016040528015612db3576020820181803683370190505b50905082600003612dc5579050611337565b6000612dd18587613735565b90506020820160005b85811015612df2578281015182820152602001612dda565b85811115612e01576000868301525b50919695505050505050565b606082471015612e855760405162461bcd60e51b815260206004820152602660248201527f416464726573733a20696e73756666696369656e742062616c616e636520666f60448201527f722063616c6c00000000000000000000000000000000000000000000000000006064820152608401610409565b600080866001600160a01b03168587604051612ea191906138c3565b60006040518083038185875af1925050503d8060008114612ede576040519150601f19603f3d011682016040523d82523d6000602084013e612ee3565b606091505b50915091506108a687838387613089565b606061068e612f0283611e67565b613102565b606061068e826020015160008460000151612d6c565b60608182601f011015612f725760405162461bcd60e51b815260206004820152600e60248201527f736c6963655f6f766572666c6f770000000000000000000000000000000000006044820152606401610409565b828284011015612fc45760405162461bcd60e51b815260206004820152600e60248201527f736c6963655f6f766572666c6f770000000000000000000000000000000000006044820152606401610409565b818301845110156130175760405162461bcd60e51b815260206004820152601160248201527f736c6963655f6f75744f66426f756e64730000000000000000000000000000006044820152606401610409565b6060821580156130365760405191506000825260208201604052613080565b6040519150601f8416801560200281840101858101878315602002848b0101015b8183101561306f578051835260209283019201613057565b5050858452601f01601f1916604052505b50949350505050565b606083156130f85782516000036130f1576001600160a01b0385163b6130f15760405162461bcd60e51b815260206004820152601d60248201527f416464726573733a2063616c6c20746f206e6f6e2d636f6e74726163740000006044820152606401610409565b50816108ab565b6108ab8383613332565b60606000806000613112856124aa565b91945092509050600181600181111561312d5761312d613896565b146131a05760405162461bcd60e51b815260206004820152603860248201527f524c505265616465723a206465636f646564206974656d207479706520666f7260448201527f206c697374206973206e6f742061206c697374206974656d00000000000000006064820152608401610409565b84516131ac8385613735565b1461321f5760405162461bcd60e51b815260206004820152603260248201527f524c505265616465723a206c697374206974656d2068617320616e20696e766160448201527f6c696420646174612072656d61696e64657200000000000000000000000000006064820152608401610409565b6040805160208082526104208201909252600091816020015b60408051808201909152600080825260208201528152602001906001900390816132385790505090506000845b8751811015613326576000806132ab6040518060400160405280858d6000015161328f91906135d7565b8152602001858d602001516132a49190613735565b90526124aa565b5091509150604051806040016040528083836132c79190613735565b8152602001848c602001516132dc9190613735565b8152508585815181106132f1576132f161371f565b6020908102919091010152613307600185613735565b93506133138183613735565b61331d9084613735565b92505050613265565b50815295945050505050565b8151156133425781518083602001fd5b8060405162461bcd60e51b81526004016104099190613828565b60008083601f84011261336e57600080fd5b50813567ffffffffffffffff81111561338657600080fd5b6020830191508360208260051b85010111156133a157600080fd5b9250929050565b6000806000604084860312156133bd57600080fd5b83359250602084013567ffffffffffffffff8111156133db57600080fd5b6133e78682870161335c565b9497909650939450505050565b60006020828403121561340657600080fd5b81356001600160e01b03198116811461133757600080fd5b6001600160a01b03811681146110ba57600080fd5b6000806040838503121561344657600080fd5b82356134518161341e565b915060208301356134618161341e565b809150509250929050565b60006020828403121561347e57600080fd5b5035919050565b6000806040838503121561349857600080fd5b8235915060208301356134618161341e565b6000602082840312156134bc57600080fd5b81356113378161341e565b600080600080606085870312156134dd57600080fd5b8435935060208501356134ef8161341e565b9250604085013567ffffffffffffffff81111561350b57600080fd5b6135178782880161335c565b95989497509550505050565b600080600080600060a0868803121561353b57600080fd5b505083359560208501359550604085013594606081013594506080013592509050565b6000806040838503121561357157600080fd5b50508035926020909101359150565b634e487b7160e01b600052601160045260246000fd5b808202811582820484141761068e5761068e613580565b634e487b7160e01b600052601260045260246000fd5b6000826135d2576135d26135ad565b500490565b8181038181111561068e5761068e613580565b6000602082840312156135fc57600080fd5b5051919050565b634e487b7160e01b600052604160045260246000fd5b604051601f8201601f1916810167ffffffffffffffff8111828210171561364257613642613603565b604052919050565b600067ffffffffffffffff8084111561366557613665613603565b8360051b6020613676818301613619565b86815291850191818101903684111561368e57600080fd5b865b84811015613713578035868111156136a85760008081fd5b8801601f36818301126136bb5760008081fd5b8135888111156136cd576136cd613603565b6136de818301601f19168801613619565b915080825236878285010111156136f55760008081fd5b80878401888401376000908201870152845250918301918301613690565b50979650505050505050565b634e487b7160e01b600052603260045260246000fd5b8082018082111561068e5761068e613580565b60006001820161375a5761375a613580565b5060010190565b60006020828403121561377357600080fd5b8151801515811461133757600080fd5b60005b8381101561379e578181015183820152602001613786565b50506000910152565b7f416363657373436f6e74726f6c3a206163636f756e74200000000000000000008152600083516137df816017850160208801613783565b7f206973206d697373696e6720726f6c6520000000000000000000000000000000601791840191820152835161381c816028840160208801613783565b01602801949350505050565b6020815260008251806020840152613847816040850160208701613783565b601f01601f19169190910160400192915050565b600060ff83168061386e5761386e6135ad565b8060ff84160691505092915050565b60ff828116828216039081111561068e5761068e613580565b634e487b7160e01b600052602160045260246000fd5b6000816138bb576138bb613580565b506000190190565b600082516138d5818460208701613783565b919091019291505056fea2646970667358221220555fb7703a0396dc6648d2932374db5690df8e7d88caabea3decd240afbb634364736f6c63430008130033",
  "devdoc": {
    "events": {
      "Initialized(uint8)": {
        "details": "Triggered when the contract has been initialized or reinitialized."
      },
      "RoleAdminChanged(bytes32,bytes32,bytes32)": {
        "details": "Emitted when `newAdminRole` is set as ``role``'s admin role, replacing `previousAdminRole` `DEFAULT_ADMIN_ROLE` is the starting admin for all roles, despite {RoleAdminChanged} not being emitted signaling this. _Available since v3.1._"
      },
      "RoleGranted(bytes32,address,address)": {
        "details": "Emitted when `account` is granted `role`. `sender` is the account that originated the contract call, an admin role bearer except when using {AccessControl-_setupRole}."
      },
      "RoleRevoked(bytes32,address,address)": {
        "details": "Emitted when `account` is revoked `role`. `sender` is the account that originated the contract call:   - if using `revokeRole`, it is the admin role bearer   - if using `renounceRole`, it is the role bearer (i.e. `account`)"
      }
    },
    "kind": "dev",
    "methods": {
      "addReward(uint256,bytes32,uint256,uint256,uint256)": {
        "params": {
          "amount": "The amount of reward tokens to deposit",
          "blockNumber": "The block number for the Reward",
          "merkleRoot": "The merkle root of the distribution tree",
          "totalStakedBalance": "Total staked balance of the merkleRoot (computed off-chain)",
          "withdrawUnlockTime": "The timestamp after which withdrawals by owner are allowed"
        }
      },
      "claim(uint256,bytes[])": {
        "details": "Checks proofs and claims tracking before transferring rewardTokens",
        "params": {
          "blockNumber": "The block number for the Reward",
          "proof": "The merkle proof for the claim"
        }
      },
      "getRoleAdmin(bytes32)": {
        "details": "Returns the admin role that controls `role`. See {grantRole} and {revokeRole}. To change a role's admin, use {_setRoleAdmin}."
      },
      "grantRole(bytes32,address)": {
        "details": "Grants `role` to `account`. If `account` had not been already granted `role`, emits a {RoleGranted} event. Requirements: - the caller must have ``role``'s admin role. May emit a {RoleGranted} event."
      },
      "hasRole(bytes32,address)": {
        "details": "Returns `true` if `account` has been granted `role`."
      },
      "initialize(address)": {
        "params": {
          "_rewardToken": "The reward token to be distributed"
        }
      },
      "isClaimable(uint256,address,bytes[])": {
        "params": {
          "account": "The address of the account claiming",
          "blockNumber": "The block number for the Reward",
          "proof": "The merkle proof for the claim"
        },
        "returns": {
          "_0": "A bool indicating if the claim is valid and claimable"
        }
      },
      "renounceRole(bytes32,address)": {
        "details": "Revokes `role` from the calling account. Roles are often managed via {grantRole} and {revokeRole}: this function's purpose is to provide a mechanism for accounts to lose their privileges if they are compromised (such as when a trusted device is misplaced). If the calling account had been revoked `role`, emits a {RoleRevoked} event. Requirements: - the caller must be `account`. May emit a {RoleRevoked} event."
      },
      "revokeRole(bytes32,address)": {
        "details": "Revokes `role` from `account`. If `account` had been granted `role`, emits a {RoleRevoked} event. Requirements: - the caller must have ``role``'s admin role. May emit a {RoleRevoked} event."
      },
      "setDelegator(address,address)": {
        "params": {
          "_delegator": "The address that sould claim on behalf of the owner",
          "_recipient": "original eligible recipient address"
        }
      },
      "supportsInterface(bytes4)": {
        "details": "See {IERC165-supportsInterface}."
      },
      "withdrawFunds(uint256,uint256)": {
        "params": {
          "amount": "The amount to withdraw",
          "blockNumber": "The block number for the Reward"
        }
      }
    },
    "title": "Sonne Finance Merkle tree-based rewards distributor",
    "version": 1
  },
  "userdoc": {
    "kind": "user",
    "methods": {
      "addReward(uint256,bytes32,uint256,uint256,uint256)": {
        "notice": "Creates a new Reward struct for a rewards distribution"
      },
      "claim(uint256,bytes[])": {
        "notice": "Claims the specified amount for an account if valid"
      },
      "initialize(address)": {
        "notice": "Contract constructor to initialize rewardToken"
      },
      "isClaimable(uint256,address,bytes[])": {
        "notice": "Checks if a claim is valid and claimable"
      },
      "setDelegator(address,address)": {
        "notice": "Sets a delegator address for a given recipient"
      },
      "withdrawFunds(uint256,uint256)": {
        "notice": "Allows to withdraw available funds to owner after unlock time"
      }
    },
    "notice": "Contract to distribute rewards on BASE network to Sonne Finance Optimism stakers",
    "version": 1
  },
  "storageLayout": {
    "storage": [
      {
        "astId": 1712,
        "contract": "contracts/SonneMerkleDistributor.sol:SonneMerkleDistributor",
        "label": "_initialized",
        "offset": 0,
        "slot": "0",
        "type": "t_uint8"
      },
      {
        "astId": 1715,
        "contract": "contracts/SonneMerkleDistributor.sol:SonneMerkleDistributor",
        "label": "_initializing",
        "offset": 1,
        "slot": "0",
        "type": "t_bool"
      },
      {
        "astId": 1888,
        "contract": "contracts/SonneMerkleDistributor.sol:SonneMerkleDistributor",
        "label": "_status",
        "offset": 0,
        "slot": "1",
        "type": "t_uint256"
      },
      {
        "astId": 1957,
        "contract": "contracts/SonneMerkleDistributor.sol:SonneMerkleDistributor",
        "label": "__gap",
        "offset": 0,
        "slot": "2",
        "type": "t_array(t_uint256)49_storage"
      },
      {
        "astId": 2329,
        "contract": "contracts/SonneMerkleDistributor.sol:SonneMerkleDistributor",
        "label": "__gap",
        "offset": 0,
        "slot": "51",
        "type": "t_array(t_uint256)50_storage"
      },
      {
        "astId": 2602,
        "contract": "contracts/SonneMerkleDistributor.sol:SonneMerkleDistributor",
        "label": "__gap",
        "offset": 0,
        "slot": "101",
        "type": "t_array(t_uint256)50_storage"
      },
      {
        "astId": 1336,
        "contract": "contracts/SonneMerkleDistributor.sol:SonneMerkleDistributor",
        "label": "_roles",
        "offset": 0,
        "slot": "151",
        "type": "t_mapping(t_bytes32,t_struct(RoleData)1331_storage)"
      },
      {
        "astId": 1631,
        "contract": "contracts/SonneMerkleDistributor.sol:SonneMerkleDistributor",
        "label": "__gap",
        "offset": 0,
        "slot": "152",
        "type": "t_array(t_uint256)49_storage"
      },
      {
        "astId": 5446,
        "contract": "contracts/SonneMerkleDistributor.sol:SonneMerkleDistributor",
        "label": "rewardToken",
        "offset": 0,
        "slot": "201",
        "type": "t_contract(IERC20)4251"
      },
      {
        "astId": 5449,
        "contract": "contracts/SonneMerkleDistributor.sol:SonneMerkleDistributor",
        "label": "rewards",
        "offset": 0,
        "slot": "202",
        "type": "t_array(t_uint256)dyn_storage"
      },
      {
        "astId": 5454,
        "contract": "contracts/SonneMerkleDistributor.sol:SonneMerkleDistributor",
        "label": "Rewards",
        "offset": 0,
        "slot": "203",
        "type": "t_mapping(t_uint256,t_struct(Reward)5443_storage)"
      },
      {
        "astId": 5458,
        "contract": "contracts/SonneMerkleDistributor.sol:SonneMerkleDistributor",
        "label": "delegatorAddresses",
        "offset": 0,
        "slot": "204",
        "type": "t_mapping(t_address,t_address)"
      }
    ],
    "types": {
      "t_address": {
        "encoding": "inplace",
        "label": "address",
        "numberOfBytes": "20"
      },
      "t_array(t_uint256)49_storage": {
        "base": "t_uint256",
        "encoding": "inplace",
        "label": "uint256[49]",
        "numberOfBytes": "1568"
      },
      "t_array(t_uint256)50_storage": {
        "base": "t_uint256",
        "encoding": "inplace",
        "label": "uint256[50]",
        "numberOfBytes": "1600"
      },
      "t_array(t_uint256)dyn_storage": {
        "base": "t_uint256",
        "encoding": "dynamic_array",
        "label": "uint256[]",
        "numberOfBytes": "32"
      },
      "t_bool": {
        "encoding": "inplace",
        "label": "bool",
        "numberOfBytes": "1"
      },
      "t_bytes32": {
        "encoding": "inplace",
        "label": "bytes32",
        "numberOfBytes": "32"
      },
      "t_contract(IERC20)4251": {
        "encoding": "inplace",
        "label": "contract IERC20",
        "numberOfBytes": "20"
      },
      "t_mapping(t_address,t_address)": {
        "encoding": "mapping",
        "key": "t_address",
        "label": "mapping(address => address)",
        "numberOfBytes": "32",
        "value": "t_address"
      },
      "t_mapping(t_address,t_bool)": {
        "encoding": "mapping",
        "key": "t_address",
        "label": "mapping(address => bool)",
        "numberOfBytes": "32",
        "value": "t_bool"
      },
      "t_mapping(t_bytes32,t_bool)": {
        "encoding": "mapping",
        "key": "t_bytes32",
        "label": "mapping(bytes32 => bool)",
        "numberOfBytes": "32",
        "value": "t_bool"
      },
      "t_mapping(t_bytes32,t_struct(RoleData)1331_storage)": {
        "encoding": "mapping",
        "key": "t_bytes32",
        "label": "mapping(bytes32 => struct AccessControlUpgradeable.RoleData)",
        "numberOfBytes": "32",
        "value": "t_struct(RoleData)1331_storage"
      },
      "t_mapping(t_uint256,t_struct(Reward)5443_storage)": {
        "encoding": "mapping",
        "key": "t_uint256",
        "label": "mapping(uint256 => struct SonneMerkleDistributor.Reward)",
        "numberOfBytes": "32",
        "value": "t_struct(Reward)5443_storage"
      },
      "t_struct(Reward)5443_storage": {
        "encoding": "inplace",
        "label": "struct SonneMerkleDistributor.Reward",
        "members": [
          {
            "astId": 5432,
            "contract": "contracts/SonneMerkleDistributor.sol:SonneMerkleDistributor",
            "label": "balance",
            "offset": 0,
            "slot": "0",
            "type": "t_uint256"
          },
          {
            "astId": 5434,
            "contract": "contracts/SonneMerkleDistributor.sol:SonneMerkleDistributor",
            "label": "merkleRoot",
            "offset": 0,
            "slot": "1",
            "type": "t_bytes32"
          },
          {
            "astId": 5436,
            "contract": "contracts/SonneMerkleDistributor.sol:SonneMerkleDistributor",
            "label": "withdrawUnlockTime",
            "offset": 0,
            "slot": "2",
            "type": "t_uint256"
          },
          {
            "astId": 5438,
            "contract": "contracts/SonneMerkleDistributor.sol:SonneMerkleDistributor",
            "label": "ratio",
            "offset": 0,
            "slot": "3",
            "type": "t_uint256"
          },
          {
            "astId": 5442,
            "contract": "contracts/SonneMerkleDistributor.sol:SonneMerkleDistributor",
            "label": "leafClaimed",
            "offset": 0,
            "slot": "4",
            "type": "t_mapping(t_bytes32,t_bool)"
          }
        ],
        "numberOfBytes": "160"
      },
      "t_struct(RoleData)1331_storage": {
        "encoding": "inplace",
        "label": "struct AccessControlUpgradeable.RoleData",
        "members": [
          {
            "astId": 1328,
            "contract": "contracts/SonneMerkleDistributor.sol:SonneMerkleDistributor",
            "label": "members",
            "offset": 0,
            "slot": "0",
            "type": "t_mapping(t_address,t_bool)"
          },
          {
            "astId": 1330,
            "contract": "contracts/SonneMerkleDistributor.sol:SonneMerkleDistributor",
            "label": "adminRole",
            "offset": 0,
            "slot": "1",
            "type": "t_bytes32"
          }
        ],
        "numberOfBytes": "64"
      },
      "t_uint256": {
        "encoding": "inplace",
        "label": "uint256",
        "numberOfBytes": "32"
      },
      "t_uint8": {
        "encoding": "inplace",
        "label": "uint8",
        "numberOfBytes": "1"
      }
    }
  }
}