{
  "address": "0xb112e4cc83f0Df154Fe3fB088109BE2Ac5Bfb110",
  "abi": [
    {
      "anonymous": false,
      "inputs": [
        {
          "indexed": false,
          "internalType": "uint8",
          "name": "version",
          "type": "uint8"
        }
      ],
      "name": "Initialized",
      "type": "event"
    },
    {
      "anonymous": false,
      "inputs": [
        {
          "indexed": true,
          "internalType": "bytes32",
          "name": "role",
          "type": "bytes32"
        },
        {
          "indexed": true,
          "internalType": "bytes32",
          "name": "previousAdminRole",
          "type": "bytes32"
        },
        {
          "indexed": true,
          "internalType": "bytes32",
          "name": "newAdminRole",
          "type": "bytes32"
        }
      ],
      "name": "RoleAdminChanged",
      "type": "event"
    },
    {
      "anonymous": false,
      "inputs": [
        {
          "indexed": true,
          "internalType": "bytes32",
          "name": "role",
          "type": "bytes32"
        },
        {
          "indexed": true,
          "internalType": "address",
          "name": "account",
          "type": "address"
        },
        {
          "indexed": true,
          "internalType": "address",
          "name": "sender",
          "type": "address"
        }
      ],
      "name": "RoleGranted",
      "type": "event"
    },
    {
      "anonymous": false,
      "inputs": [
        {
          "indexed": true,
          "internalType": "bytes32",
          "name": "role",
          "type": "bytes32"
        },
        {
          "indexed": true,
          "internalType": "address",
          "name": "account",
          "type": "address"
        },
        {
          "indexed": true,
          "internalType": "address",
          "name": "sender",
          "type": "address"
        }
      ],
      "name": "RoleRevoked",
      "type": "event"
    },
    {
      "inputs": [],
      "name": "DEFAULT_ADMIN_ROLE",
      "outputs": [
        {
          "internalType": "bytes32",
          "name": "",
          "type": "bytes32"
        }
      ],
      "stateMutability": "view",
      "type": "function"
    },
    {
      "inputs": [],
      "name": "DISTRIBUTOR_ROLE",
      "outputs": [
        {
          "internalType": "bytes32",
          "name": "",
          "type": "bytes32"
        }
      ],
      "stateMutability": "view",
      "type": "function"
    },
    {
      "inputs": [],
      "name": "OORouter",
      "outputs": [
        {
          "internalType": "address",
          "name": "",
          "type": "address"
        }
      ],
      "stateMutability": "view",
      "type": "function"
    },
    {
      "inputs": [
        {
          "internalType": "address",
          "name": "pair",
          "type": "address"
        },
        {
          "internalType": "uint256",
          "name": "amount",
          "type": "uint256"
        }
      ],
      "name": "_stakeLP",
      "outputs": [],
      "stateMutability": "nonpayable",
      "type": "function"
    },
    {
      "inputs": [
        {
          "internalType": "address",
          "name": "pair",
          "type": "address"
        },
        {
          "internalType": "address",
          "name": "to",
          "type": "address"
        }
      ],
      "name": "_unstakeLP",
      "outputs": [],
      "stateMutability": "nonpayable",
      "type": "function"
    },
    {
      "inputs": [
        {
          "internalType": "contract IMarket",
          "name": "usdcMarket",
          "type": "address"
        },
        {
          "internalType": "uint56",
          "name": "usdcAmount",
          "type": "uint56"
        },
        {
          "internalType": "contract IMarket[]",
          "name": "markets",
          "type": "address[]"
        },
        {
          "internalType": "uint256[]",
          "name": "amounts",
          "type": "uint256[]"
        },
        {
          "internalType": "bytes[]",
          "name": "swapQuoteData",
          "type": "bytes[]"
        }
      ],
      "name": "distributeReserves",
      "outputs": [],
      "stateMutability": "nonpayable",
      "type": "function"
    },
    {
      "inputs": [
        {
          "internalType": "address",
          "name": "pair",
          "type": "address"
        }
      ],
      "name": "distributeVelo",
      "outputs": [],
      "stateMutability": "nonpayable",
      "type": "function"
    },
    {
      "inputs": [
        {
          "internalType": "bytes32",
          "name": "role",
          "type": "bytes32"
        }
      ],
      "name": "getRoleAdmin",
      "outputs": [
        {
          "internalType": "bytes32",
          "name": "",
          "type": "bytes32"
        }
      ],
      "stateMutability": "view",
      "type": "function"
    },
    {
      "inputs": [
        {
          "internalType": "bytes32",
          "name": "role",
          "type": "bytes32"
        },
        {
          "internalType": "address",
          "name": "account",
          "type": "address"
        }
      ],
      "name": "grantRole",
      "outputs": [],
      "stateMutability": "nonpayable",
      "type": "function"
    },
    {
      "inputs": [
        {
          "internalType": "bytes32",
          "name": "role",
          "type": "bytes32"
        },
        {
          "internalType": "address",
          "name": "account",
          "type": "address"
        }
      ],
      "name": "hasRole",
      "outputs": [
        {
          "internalType": "bool",
          "name": "",
          "type": "bool"
        }
      ],
      "stateMutability": "view",
      "type": "function"
    },
    {
      "inputs": [],
      "name": "initialize",
      "outputs": [],
      "stateMutability": "nonpayable",
      "type": "function"
    },
    {
      "inputs": [
        {
          "internalType": "bytes32",
          "name": "role",
          "type": "bytes32"
        },
        {
          "internalType": "address",
          "name": "account",
          "type": "address"
        }
      ],
      "name": "renounceRole",
      "outputs": [],
      "stateMutability": "nonpayable",
      "type": "function"
    },
    {
      "inputs": [
        {
          "internalType": "bytes32",
          "name": "role",
          "type": "bytes32"
        },
        {
          "internalType": "address",
          "name": "account",
          "type": "address"
        }
      ],
      "name": "revokeRole",
      "outputs": [],
      "stateMutability": "nonpayable",
      "type": "function"
    },
    {
      "inputs": [],
      "name": "rewardManager",
      "outputs": [
        {
          "internalType": "address",
          "name": "",
          "type": "address"
        }
      ],
      "stateMutability": "view",
      "type": "function"
    },
    {
      "inputs": [],
      "name": "sonneTimelock",
      "outputs": [
        {
          "internalType": "address",
          "name": "",
          "type": "address"
        }
      ],
      "stateMutability": "view",
      "type": "function"
    },
    {
      "inputs": [
        {
          "internalType": "bytes4",
          "name": "interfaceId",
          "type": "bytes4"
        }
      ],
      "name": "supportsInterface",
      "outputs": [
        {
          "internalType": "bool",
          "name": "",
          "type": "bool"
        }
      ],
      "stateMutability": "view",
      "type": "function"
    },
    {
      "inputs": [],
      "name": "usdc",
      "outputs": [
        {
          "internalType": "address",
          "name": "",
          "type": "address"
        }
      ],
      "stateMutability": "view",
      "type": "function"
    },
    {
      "inputs": [],
      "name": "velo",
      "outputs": [
        {
          "internalType": "address",
          "name": "",
          "type": "address"
        }
      ],
      "stateMutability": "view",
      "type": "function"
    },
    {
      "inputs": [],
      "name": "voter",
      "outputs": [
        {
          "internalType": "address",
          "name": "",
          "type": "address"
        }
      ],
      "stateMutability": "view",
      "type": "function"
    }
  ],
  "transactionHash": "0x479a40668e3b92ae5982cfface968d37a1761cae0d8d53b5d9e404e0b7912cc0",
  "args": [],
  "numDeployments": 2,
  "solcInputHash": "fbd79f26d4ec76489b752bfabcdbc59a",
  "bytecode": "0x608060405234801561001057600080fd5b50611bf6806100206000396000f3fe608060405234801561001057600080fd5b50600436106101215760003560e01c806373c4e86e116100ad578063a4f2773d11610071578063a4f2773d1461028f578063b087b3b4146102aa578063c0f72288146102bd578063d547741f146102d0578063f0bd87cc146102e357600080fd5b806373c4e86e1461023e5780638129fc1c146102515780638c7c53ce1461025957806391d1485414610274578063a217fddf1461028757600080fd5b80632f2ff15d116100f45780632f2ff15d146101c757806336568abe146101da5780633e413bee146101ed57806346c96aac146102085780636790dcd41461022357600080fd5b806301ffc9a7146101265780630f4ef8a61461014e5780631c11b6d514610181578063248a9ca314610196575b600080fd5b610139610134366004611714565b61030a565b60405190151581526020015b60405180910390f35b61016973c5ba10b609e8500c04884e1bcfc935b2c22654cd81565b6040516001600160a01b039091168152602001610145565b61019461018f36600461179f565b610341565b005b6101b96101a436600461186a565b60009081526065602052604090206001015490565b604051908152602001610145565b6101946101d5366004611883565b61061e565b6101946101e8366004611883565b610648565b610169737f5c764cbc14f9669b88837ca1490cca17c3160781565b6101697309236cff45047dbee6b921e00704bed6d6b8cf7e81565b610169736352a56caadc4f1e25cd6c75970fa768a3304e6481565b61019461024c3660046118b3565b6106c6565b6101946107c6565b610169739560e827af36c94d2ac33a39bce1fe78631088db81565b610139610282366004611883565b6108e2565b6101b9600081565b610169735b22bd2fc485afe2deaf1ac9e2fad316dde163b081565b6101946102b83660046118d0565b61090d565b6101946102cb3660046118fe565b610951565b6101946102de366004611883565b61099a565b6101b97ffbd454f36a7e1a388bd6fc3ab10d434aa4578f811acbbcf33afb1c697486313c81565b60006001600160e01b03198216637965db0b60e01b148061033b57506301ffc9a760e01b6001600160e01b03198316145b92915050565b7ffbd454f36a7e1a388bd6fc3ab10d434aa4578f811acbbcf33afb1c697486313c61036b816109bf565b858414801561037957508582145b6103ca5760405162461bcd60e51b815260206004820152601d60248201527f526573657276654d616e616765723a20494e56414c49445f494e50555400000060448201526064015b60405180910390fd5b6103dd898966ffffffffffffff166109c9565b60005b8681101561054a576104308888838181106103fd576103fd61192a565b905060200201602081019061041291906118b3565b8787848181106104245761042461192a565b905060200201356109c9565b60008888838181106104445761044461192a565b905060200201602081019061045991906118b3565b6001600160a01b0316636f307dc36040518163ffffffff1660e01b8152600401602060405180830381865afa158015610496573d6000803e3d6000fd5b505050506040513d601f19601f820116820180604052508101906104ba9190611940565b9050610537818888858181106104d2576104d261192a565b905060200201358787868181106104eb576104eb61192a565b90506020028101906104fd919061195d565b8080601f016020809104026020016040519081016040528093929190818152602001838380828437600092019190915250610c1992505050565b5080610542816119ba565b9150506103e0565b50600061056a737f5c764cbc14f9669b88837ca1490cca17c31607610d18565b905061059f737f5c764cbc14f9669b88837ca1490cca17c3160773c5ba10b609e8500c04884e1bcfc935b2c22654cd83610d83565b6040516303ae373160e01b815260048101829052600060248201819052604482015273c5ba10b609e8500c04884e1bcfc935b2c22654cd906303ae373190606401600060405180830381600087803b1580156105fa57600080fd5b505af115801561060e573d6000803e3d6000fd5b5050505050505050505050505050565b600082815260656020526040902060010154610639816109bf565b6106438383610e86565b505050565b6001600160a01b03811633146106b85760405162461bcd60e51b815260206004820152602f60248201527f416363657373436f6e74726f6c3a2063616e206f6e6c792072656e6f756e636560448201526e103937b632b9903337b91039b2b63360891b60648201526084016103c1565b6106c28282610f0c565b5050565b7ffbd454f36a7e1a388bd6fc3ab10d434aa4578f811acbbcf33afb1c697486313c6106f0816109bf565b6106f982610f73565b6000610718739560e827af36c94d2ac33a39bce1fe78631088db610d18565b905061074d739560e827af36c94d2ac33a39bce1fe78631088db73c5ba10b609e8500c04884e1bcfc935b2c22654cd83610d83565b6040516303ae373160e01b815260006004820181905260248201839052604482015273c5ba10b609e8500c04884e1bcfc935b2c22654cd906303ae3731906064015b600060405180830381600087803b1580156107a957600080fd5b505af11580156107bd573d6000803e3d6000fd5b50505050505050565b600054610100900460ff16158080156107e65750600054600160ff909116105b806108005750303b158015610800575060005460ff166001145b6108635760405162461bcd60e51b815260206004820152602e60248201527f496e697469616c697a61626c653a20636f6e747261637420697320616c72656160448201526d191e481a5b9a5d1a585b1a5e995960921b60648201526084016103c1565b6000805460ff191660011790558015610886576000805461ff0019166101001790555b61088e61107c565b610899600033610e86565b80156108df576000805461ff0019169055604051600181527f7f26b83ff96e1f2b6a682f133852f6798a09c465da95921460cefb38474024989060200160405180910390a15b50565b60009182526065602090815260408084206001600160a01b0393909316845291905290205460ff1690565b6000610918816109bf565b610921836110e9565b6000610935846001600160a01b0316610d18565b905061094b6001600160a01b03851684836111a5565b50505050565b600061095c816109bf565b60001982141561097c576109796001600160a01b038416336112a9565b91505b6109916001600160a01b03841633308561131e565b6106438361142e565b6000828152606560205260409020600101546109b5816109bf565b6106438383610f0c565b6108df813361150d565b816001600160a01b031663a6afed956040518163ffffffff1660e01b81526004016020604051808303816000875af1158015610a09573d6000803e3d6000fd5b505050506040513d601f19601f82011682018060405250810190610a2d91906119d5565b5080826001600160a01b0316633b1d21a26040518163ffffffff1660e01b8152600401602060405180830381865afa158015610a6d573d6000803e3d6000fd5b505050506040513d601f19601f82011682018060405250810190610a9191906119d5565b1015610adf5760405162461bcd60e51b815260206004820152601f60248201527f526573657276654d616e616765723a204e4f545f454e4f5547485f434153480060448201526064016103c1565b80826001600160a01b0316638f840ddd6040518163ffffffff1660e01b8152600401602060405180830381865afa158015610b1e573d6000803e3d6000fd5b505050506040513d601f19601f82011682018060405250810190610b4291906119d5565b1015610b9b5760405162461bcd60e51b815260206004820152602260248201527f526573657276654d616e616765723a204e4f545f454e4f5547485f5245534552604482015261564560f01b60648201526084016103c1565b60405163be37c72d60e01b81526001600160a01b038316600482015260248101829052306044820152735b22bd2fc485afe2deaf1ac9e2fad316dde163b09063be37c72d90606401600060405180830381600087803b158015610bfd57600080fd5b505af1158015610c11573d6000803e3d6000fd5b505050505050565b610c416001600160a01b038416736352a56caadc4f1e25cd6c75970fa768a3304e6484610d83565b600080736352a56caadc4f1e25cd6c75970fa768a3304e646001600160a01b0316600084604051610c729190611a1a565b60006040518083038185875af1925050503d8060008114610caf576040519150601f19603f3d011682016040523d82523d6000602084013e610cb4565b606091505b509150915081610d115760405162461bcd60e51b815260206004820152602260248201527f526573657276654d616e616765723a204f4f5f4150495f535741505f4641494c604482015261115160f21b60648201526084016103c1565b5050505050565b6040516370a0823160e01b81523060048201526000906001600160a01b038316906370a0823190602401602060405180830381865afa158015610d5f573d6000803e3d6000fd5b505050506040513d601f19601f8201168201806040525081019061033b91906119d5565b604080516001600160a01b038481166024830152604480830185905283518084039091018152606490920183526020820180516001600160e01b031663095ea7b360e01b1790529151600092839290871691610ddf9190611a1a565b6000604051808303816000865af19150503d8060008114610e1c576040519150601f19603f3d011682016040523d82523d6000602084013e610e21565b606091505b5091509150818015610e4b575080511580610e4b575080806020019051810190610e4b9190611a36565b610d115760405162461bcd60e51b815260206004820152600c60248201526b2173616665417070726f766560a01b60448201526064016103c1565b610e9082826108e2565b6106c25760008281526065602090815260408083206001600160a01b03851684529091529020805460ff19166001179055610ec83390565b6001600160a01b0316816001600160a01b0316837f2f8788117e7eff1d82e926ec794901d17c78024a50270940304540a733656f0d60405160405180910390a45050565b610f1682826108e2565b156106c25760008281526065602090815260408083206001600160a01b0385168085529252808320805460ff1916905551339285917ff6391f5c32d9c69d2a47ea670b442974b53935d1edc7fd64eb21e047a839171b9190a45050565b60408051600180825281830190925260009160208083019080368337019050509050739560e827af36c94d2ac33a39bce1fe78631088db81600081518110610fbd57610fbd61192a565b6001600160a01b03928316602091820292909201015260405163b9a09fd560e01b815290831660048201526000907309236cff45047dbee6b921e00704bed6d6b8cf7e9063b9a09fd590602401602060405180830381865afa158015611027573d6000803e3d6000fd5b505050506040513d601f19601f8201168201806040525081019061104b9190611940565b6040516331279d3d60e01b81529091506001600160a01b038216906331279d3d9061078f9030908690600401611a6e565b600054610100900460ff166110e75760405162461bcd60e51b815260206004820152602b60248201527f496e697469616c697a61626c653a20636f6e7472616374206973206e6f74206960448201526a6e697469616c697a696e6760a81b60648201526084016103c1565b565b60405163b9a09fd560e01b81526001600160a01b03821660048201526000907309236cff45047dbee6b921e00704bed6d6b8cf7e9063b9a09fd590602401602060405180830381865afa158015611144573d6000803e3d6000fd5b505050506040513d601f19601f820116820180604052508101906111689190611940565b9050806001600160a01b031663853828b66040518163ffffffff1660e01b8152600401600060405180830381600087803b158015610bfd57600080fd5b604080516001600160a01b038481166024830152604480830185905283518084039091018152606490920183526020820180516001600160e01b031663a9059cbb60e01b17905291516000928392908716916112019190611a1a565b6000604051808303816000865af19150503d806000811461123e576040519150601f19603f3d011682016040523d82523d6000602084013e611243565b606091505b509150915081801561126d57508051158061126d57508080602001905181019061126d9190611a36565b610d115760405162461bcd60e51b815260206004820152600d60248201526c10b9b0b332aa3930b739b332b960991b60448201526064016103c1565b6040516370a0823160e01b81526001600160a01b038281166004830152600091908416906370a0823190602401602060405180830381865afa1580156112f3573d6000803e3d6000fd5b505050506040513d601f19601f8201168201806040525081019061131791906119d5565b9392505050565b604080516001600160a01b0385811660248301528481166044830152606480830185905283518084039091018152608490920183526020820180516001600160e01b03166323b872dd60e01b17905291516000928392908816916113829190611a1a565b6000604051808303816000865af19150503d80600081146113bf576040519150601f19603f3d011682016040523d82523d6000602084013e6113c4565b606091505b50915091508180156113ee5750805115806113ee5750808060200190518101906113ee9190611a36565b610c115760405162461bcd60e51b815260206004820152601160248201527021736166655472616e7366657246726f6d60781b60448201526064016103c1565b60405163b9a09fd560e01b81526001600160a01b03821660048201526000907309236cff45047dbee6b921e00704bed6d6b8cf7e9063b9a09fd590602401602060405180830381865afa158015611489573d6000803e3d6000fd5b505050506040513d601f19601f820116820180604052508101906114ad9190611940565b905060006114c3836001600160a01b0316610d18565b90506114d96001600160a01b0384168383610d83565b604051631c57762b60e31b815260048101829052600060248201526001600160a01b0383169063e2bbb1589060440161078f565b61151782826108e2565b6106c25761152481611566565b61152f836020611578565b604051602001611540929190611aca565b60408051601f198184030181529082905262461bcd60e51b82526103c191600401611b3f565b606061033b6001600160a01b03831660145b60606000611587836002611b72565b611592906002611b91565b67ffffffffffffffff8111156115aa576115aa611a58565b6040519080825280601f01601f1916602001820160405280156115d4576020820181803683370190505b509050600360fc1b816000815181106115ef576115ef61192a565b60200101906001600160f81b031916908160001a905350600f60fb1b8160018151811061161e5761161e61192a565b60200101906001600160f81b031916908160001a9053506000611642846002611b72565b61164d906001611b91565b90505b60018111156116c5576f181899199a1a9b1b9c1cb0b131b232b360811b85600f16601081106116815761168161192a565b1a60f81b8282815181106116975761169761192a565b60200101906001600160f81b031916908160001a90535060049490941c936116be81611ba9565b9050611650565b5083156113175760405162461bcd60e51b815260206004820181905260248201527f537472696e67733a20686578206c656e67746820696e73756666696369656e7460448201526064016103c1565b60006020828403121561172657600080fd5b81356001600160e01b03198116811461131757600080fd5b6001600160a01b03811681146108df57600080fd5b60008083601f84011261176557600080fd5b50813567ffffffffffffffff81111561177d57600080fd5b6020830191508360208260051b850101111561179857600080fd5b9250929050565b60008060008060008060008060a0898b0312156117bb57600080fd5b88356117c68161173e565b9750602089013566ffffffffffffff811681146117e257600080fd5b9650604089013567ffffffffffffffff808211156117ff57600080fd5b61180b8c838d01611753565b909850965060608b013591508082111561182457600080fd5b6118308c838d01611753565b909650945060808b013591508082111561184957600080fd5b506118568b828c01611753565b999c989b5096995094979396929594505050565b60006020828403121561187c57600080fd5b5035919050565b6000806040838503121561189657600080fd5b8235915060208301356118a88161173e565b809150509250929050565b6000602082840312156118c557600080fd5b81356113178161173e565b600080604083850312156118e357600080fd5b82356118ee8161173e565b915060208301356118a88161173e565b6000806040838503121561191157600080fd5b823561191c8161173e565b946020939093013593505050565b634e487b7160e01b600052603260045260246000fd5b60006020828403121561195257600080fd5b81516113178161173e565b6000808335601e1984360301811261197457600080fd5b83018035915067ffffffffffffffff82111561198f57600080fd5b60200191503681900382131561179857600080fd5b634e487b7160e01b600052601160045260246000fd5b60006000198214156119ce576119ce6119a4565b5060010190565b6000602082840312156119e757600080fd5b5051919050565b60005b83811015611a095781810151838201526020016119f1565b8381111561094b5750506000910152565b60008251611a2c8184602087016119ee565b9190910192915050565b600060208284031215611a4857600080fd5b8151801515811461131757600080fd5b634e487b7160e01b600052604160045260246000fd5b6001600160a01b038381168252604060208084018290528451918401829052600092858201929091906060860190855b81811015611abc578551851683529483019491830191600101611a9e565b509098975050505050505050565b7f416363657373436f6e74726f6c3a206163636f756e7420000000000000000000815260008351611b028160178501602088016119ee565b7001034b99036b4b9b9b4b733903937b6329607d1b6017918401918201528351611b338160288401602088016119ee565b01602801949350505050565b6020815260008251806020840152611b5e8160408501602087016119ee565b601f01601f19169190910160400192915050565b6000816000190483118215151615611b8c57611b8c6119a4565b500290565b60008219821115611ba457611ba46119a4565b500190565b600081611bb857611bb86119a4565b50600019019056fea264697066735822122041649a6df5124f6a910b3b63b02f1945244a3f3e4a2517e959fc83d9ff824d1c64736f6c634300080a0033",
  "devdoc": {
    "kind": "dev",
    "methods": {
      "getRoleAdmin(bytes32)": {
        "details": "Returns the admin role that controls `role`. See {grantRole} and {revokeRole}. To change a role's admin, use {_setRoleAdmin}."
      },
      "grantRole(bytes32,address)": {
        "details": "Grants `role` to `account`. If `account` had not been already granted `role`, emits a {RoleGranted} event. Requirements: - the caller must have ``role``'s admin role. May emit a {RoleGranted} event."
      },
      "hasRole(bytes32,address)": {
        "details": "Returns `true` if `account` has been granted `role`."
      },
      "renounceRole(bytes32,address)": {
        "details": "Revokes `role` from the calling account. Roles are often managed via {grantRole} and {revokeRole}: this function's purpose is to provide a mechanism for accounts to lose their privileges if they are compromised (such as when a trusted device is misplaced). If the calling account had been revoked `role`, emits a {RoleRevoked} event. Requirements: - the caller must be `account`. May emit a {RoleRevoked} event."
      },
      "revokeRole(bytes32,address)": {
        "details": "Revokes `role` from `account`. If `account` had been granted `role`, emits a {RoleRevoked} event. Requirements: - the caller must have ``role``'s admin role. May emit a {RoleRevoked} event."
      },
      "supportsInterface(bytes4)": {
        "details": "See {IERC165-supportsInterface}."
      }
    },
    "version": 1
  },
  "userdoc": {
    "kind": "user",
    "methods": {},
    "version": 1
  },
  "storageLayout": {
    "storage": [
      {
        "astId": 547,
        "contract": "contracts/ReserveManager.sol:ReserveManager",
        "label": "_initialized",
        "offset": 0,
        "slot": "0",
        "type": "t_uint8"
      },
      {
        "astId": 550,
        "contract": "contracts/ReserveManager.sol:ReserveManager",
        "label": "_initializing",
        "offset": 1,
        "slot": "0",
        "type": "t_bool"
      },
      {
        "astId": 1080,
        "contract": "contracts/ReserveManager.sol:ReserveManager",
        "label": "__gap",
        "offset": 0,
        "slot": "1",
        "type": "t_array(t_uint256)50_storage"
      },
      {
        "astId": 1353,
        "contract": "contracts/ReserveManager.sol:ReserveManager",
        "label": "__gap",
        "offset": 0,
        "slot": "51",
        "type": "t_array(t_uint256)50_storage"
      },
      {
        "astId": 39,
        "contract": "contracts/ReserveManager.sol:ReserveManager",
        "label": "_roles",
        "offset": 0,
        "slot": "101",
        "type": "t_mapping(t_bytes32,t_struct(RoleData)34_storage)"
      },
      {
        "astId": 334,
        "contract": "contracts/ReserveManager.sol:ReserveManager",
        "label": "__gap",
        "offset": 0,
        "slot": "102",
        "type": "t_array(t_uint256)49_storage"
      }
    ],
    "types": {
      "t_address": {
        "encoding": "inplace",
        "label": "address",
        "numberOfBytes": "20"
      },
      "t_array(t_uint256)49_storage": {
        "base": "t_uint256",
        "encoding": "inplace",
        "label": "uint256[49]",
        "numberOfBytes": "1568"
      },
      "t_array(t_uint256)50_storage": {
        "base": "t_uint256",
        "encoding": "inplace",
        "label": "uint256[50]",
        "numberOfBytes": "1600"
      },
      "t_bool": {
        "encoding": "inplace",
        "label": "bool",
        "numberOfBytes": "1"
      },
      "t_bytes32": {
        "encoding": "inplace",
        "label": "bytes32",
        "numberOfBytes": "32"
      },
      "t_mapping(t_address,t_bool)": {
        "encoding": "mapping",
        "key": "t_address",
        "label": "mapping(address => bool)",
        "numberOfBytes": "32",
        "value": "t_bool"
      },
      "t_mapping(t_bytes32,t_struct(RoleData)34_storage)": {
        "encoding": "mapping",
        "key": "t_bytes32",
        "label": "mapping(bytes32 => struct AccessControlUpgradeable.RoleData)",
        "numberOfBytes": "32",
        "value": "t_struct(RoleData)34_storage"
      },
      "t_struct(RoleData)34_storage": {
        "encoding": "inplace",
        "label": "struct AccessControlUpgradeable.RoleData",
        "members": [
          {
            "astId": 31,
            "contract": "contracts/ReserveManager.sol:ReserveManager",
            "label": "members",
            "offset": 0,
            "slot": "0",
            "type": "t_mapping(t_address,t_bool)"
          },
          {
            "astId": 33,
            "contract": "contracts/ReserveManager.sol:ReserveManager",
            "label": "adminRole",
            "offset": 0,
            "slot": "1",
            "type": "t_bytes32"
          }
        ],
        "numberOfBytes": "64"
      },
      "t_uint256": {
        "encoding": "inplace",
        "label": "uint256",
        "numberOfBytes": "32"
      },
      "t_uint8": {
        "encoding": "inplace",
        "label": "uint8",
        "numberOfBytes": "1"
      }
    }
  }
}