{
  "address": "0x5da3eA9167E159de0d3003c21C86DB1334C3f5C2",
  "abi": [
    {
      "anonymous": false,
      "inputs": [
        {
          "indexed": false,
          "internalType": "uint8",
          "name": "version",
          "type": "uint8"
        }
      ],
      "name": "Initialized",
      "type": "event"
    },
    {
      "anonymous": false,
      "inputs": [
        {
          "indexed": true,
          "internalType": "address",
          "name": "previousOwner",
          "type": "address"
        },
        {
          "indexed": true,
          "internalType": "address",
          "name": "newOwner",
          "type": "address"
        }
      ],
      "name": "OwnershipTransferred",
      "type": "event"
    },
    {
      "inputs": [
        {
          "internalType": "uint256",
          "name": "usdcAmount",
          "type": "uint256"
        },
        {
          "internalType": "uint256",
          "name": "veloAmount",
          "type": "uint256"
        },
        {
          "internalType": "uint256",
          "name": "opAmount",
          "type": "uint256"
        }
      ],
      "name": "addRewards",
      "outputs": [],
      "stateMutability": "nonpayable",
      "type": "function"
    },
    {
      "inputs": [],
      "name": "initialize",
      "outputs": [],
      "stateMutability": "nonpayable",
      "type": "function"
    },
    {
      "inputs": [],
      "name": "op",
      "outputs": [
        {
          "internalType": "address",
          "name": "",
          "type": "address"
        }
      ],
      "stateMutability": "view",
      "type": "function"
    },
    {
      "inputs": [],
      "name": "owner",
      "outputs": [
        {
          "internalType": "address",
          "name": "",
          "type": "address"
        }
      ],
      "stateMutability": "view",
      "type": "function"
    },
    {
      "inputs": [],
      "name": "renounceOwnership",
      "outputs": [],
      "stateMutability": "nonpayable",
      "type": "function"
    },
    {
      "inputs": [],
      "name": "router",
      "outputs": [
        {
          "internalType": "contract IRouter",
          "name": "",
          "type": "address"
        }
      ],
      "stateMutability": "view",
      "type": "function"
    },
    {
      "inputs": [],
      "name": "sSonne",
      "outputs": [
        {
          "internalType": "contract StakedDistributor",
          "name": "",
          "type": "address"
        }
      ],
      "stateMutability": "view",
      "type": "function"
    },
    {
      "inputs": [],
      "name": "sonne",
      "outputs": [
        {
          "internalType": "address",
          "name": "",
          "type": "address"
        }
      ],
      "stateMutability": "view",
      "type": "function"
    },
    {
      "inputs": [
        {
          "internalType": "address",
          "name": "newOwner",
          "type": "address"
        }
      ],
      "name": "transferOwnership",
      "outputs": [],
      "stateMutability": "nonpayable",
      "type": "function"
    },
    {
      "inputs": [],
      "name": "uSonne",
      "outputs": [
        {
          "internalType": "contract StakedDistributor",
          "name": "",
          "type": "address"
        }
      ],
      "stateMutability": "view",
      "type": "function"
    },
    {
      "inputs": [],
      "name": "usdc",
      "outputs": [
        {
          "internalType": "address",
          "name": "",
          "type": "address"
        }
      ],
      "stateMutability": "view",
      "type": "function"
    },
    {
      "inputs": [],
      "name": "velo",
      "outputs": [
        {
          "internalType": "address",
          "name": "",
          "type": "address"
        }
      ],
      "stateMutability": "view",
      "type": "function"
    }
  ],
  "transactionHash": "0x700766c199fca971e39ac3aa24d1360b9cb97ecae9f01ba4a5fc0c045e8298ae",
  "args": [],
  "numDeployments": 2,
  "solcInputHash": "0d4e0768f8cfa9459e5e5ff217fb0c90",
  "bytecode": "0x61016060405273dc05d85069dc4aba65954008ff99f2d73ff126186080527341279e29586eb20f9a4f65e031af09fced17116660a052731db2466d9f5e10d7090e7152b68d62703a2245f060c052737f5c764cbc14f9669b88837ca1490cca17c3160760e052739560e827af36c94d2ac33a39bce1fe78631088db6101005273420000000000000000000000000000000000004261012052739c12939390052919af3155f41bf4160fd3666a6f610140523480156100bc57600080fd5b5060805160a05160c05160e0516101005161012051610140516112376101cc6000396000818161020d01528181610ee20152610f1e0152600081816101d3015281816103af01526103d901526000818161017401528181610354015261037e0152600081816101160152818161040a0152818161080b01528181610871015281816108cf01528181610e320152610ec00152600081816101ac01528181610984015281816109b901528181610a170152610e6101526000818160d3015281816102b901528181610672015281816106bd0152818161089301526108fe01526000818161013d015281816102330152818161073a01528181610785015281816109db0152610a4601526112376000f3fe608060405234801561001057600080fd5b50600436106100b45760003560e01c80638c7c53ce116100715780638c7c53ce1461016f5780638da5cb5b14610196578063c0c2ae50146101a7578063ec1f1f69146101ce578063f2fde38b146101f5578063f887ea401461020857600080fd5b806303ae3731146100b95780632936de9b146100ce5780633e413bee146101115780635b6a9c3014610138578063715018a61461015f5780638129fc1c14610167575b600080fd5b6100cc6100c7366004610fba565b61022f565b005b6100f57f000000000000000000000000000000000000000000000000000000000000000081565b6040516001600160a01b03909116815260200160405180910390f35b6100f57f000000000000000000000000000000000000000000000000000000000000000081565b6100f57f000000000000000000000000000000000000000000000000000000000000000081565b6100cc610441565b6100cc610455565b6100f57f000000000000000000000000000000000000000000000000000000000000000081565b6033546001600160a01b03166100f5565b6100f57f000000000000000000000000000000000000000000000000000000000000000081565b6100f57f000000000000000000000000000000000000000000000000000000000000000081565b6100cc610203366004610fe6565b61056b565b6100f57f000000000000000000000000000000000000000000000000000000000000000081565b60007f00000000000000000000000000000000000000000000000000000000000000006001600160a01b03166318160ddd6040518163ffffffff1660e01b8152600401602060405180830381865afa15801561028f573d6000803e3d6000fd5b505050506040513d601f19601f820116820180604052508101906102b3919061100f565b905060007f00000000000000000000000000000000000000000000000000000000000000006001600160a01b03166318160ddd6040518163ffffffff1660e01b8152600401602060405180830381865afa158015610315573d6000803e3d6000fd5b505050506040513d601f19601f82011682018060405250810190610339919061100f565b90506000610347828461103e565b905084156103a4576103797f0000000000000000000000000000000000000000000000000000000000000000866105e1565b6103a47f0000000000000000000000000000000000000000000000000000000000000000838361061a565b83156103ff576103d47f0000000000000000000000000000000000000000000000000000000000000000856105e1565b6103ff7f0000000000000000000000000000000000000000000000000000000000000000838361061a565b85156104395761042f7f0000000000000000000000000000000000000000000000000000000000000000876105e1565b61043982826107fc565b505050505050565b610449610a75565b6104536000610acf565b565b600054610100900460ff16158080156104755750600054600160ff909116105b8061048f5750303b15801561048f575060005460ff166001145b6104f75760405162461bcd60e51b815260206004820152602e60248201527f496e697469616c697a61626c653a20636f6e747261637420697320616c72656160448201526d191e481a5b9a5d1a585b1a5e995960921b60648201526084015b60405180910390fd5b6000805460ff19166001179055801561051a576000805461ff0019166101001790555b610522610b21565b8015610568576000805461ff0019169055604051600181527f7f26b83ff96e1f2b6a682f133852f6798a09c465da95921460cefb38474024989060200160405180910390a15b50565b610573610a75565b6001600160a01b0381166105d85760405162461bcd60e51b815260206004820152602660248201527f4f776e61626c653a206e6577206f776e657220697320746865207a65726f206160448201526564647265737360d01b60648201526084016104ee565b61056881610acf565b600019811415610601576105fe6001600160a01b03831633610b50565b90505b6106166001600160a01b038316333084610bc5565b5050565b600061062f6001600160a01b03851630610b50565b90508061063c5750505050565b6000826106498584611056565b6106539190611075565b905060006106618284611097565b90506106976001600160a01b0387167f000000000000000000000000000000000000000000000000000000000000000084610cd5565b6040516309feb8f560e41b81526001600160a01b038781166004830152602482018490527f00000000000000000000000000000000000000000000000000000000000000001690639feb8f50906044016020604051808303816000875af1158015610706573d6000803e3d6000fd5b505050506040513d601f19601f8201168201806040525081019061072a919061100f565b5061075f6001600160a01b0387167f000000000000000000000000000000000000000000000000000000000000000083610cd5565b6040516309feb8f560e41b81526001600160a01b038781166004830152602482018390527f00000000000000000000000000000000000000000000000000000000000000001690639feb8f50906044015b6020604051808303816000875af11580156107cf573d6000803e3d6000fd5b505050506040513d601f19601f820116820180604052508101906107f3919061100f565b50505050505050565b60006108316001600160a01b037f00000000000000000000000000000000000000000000000000000000000000001630610b50565b90508061083d57505050565b60008261084a8584611056565b6108549190611075565b905060006108628284611097565b90506108b86001600160a01b037f0000000000000000000000000000000000000000000000000000000000000000167f000000000000000000000000000000000000000000000000000000000000000084610cd5565b6040516309feb8f560e41b81526001600160a01b037f000000000000000000000000000000000000000000000000000000000000000081166004830152602482018490527f00000000000000000000000000000000000000000000000000000000000000001690639feb8f50906044016020604051808303816000875af1158015610947573d6000803e3d6000fd5b505050506040513d601f19601f8201168201806040525081019061096b919061100f565b5061097581610ddf565b60006109aa6001600160a01b037f00000000000000000000000000000000000000000000000000000000000000001630610b50565b9050610a006001600160a01b037f0000000000000000000000000000000000000000000000000000000000000000167f000000000000000000000000000000000000000000000000000000000000000083610cd5565b6040516309feb8f560e41b81526001600160a01b037f000000000000000000000000000000000000000000000000000000000000000081166004830152602482018390527f00000000000000000000000000000000000000000000000000000000000000001690639feb8f50906044016107b0565b6033546001600160a01b031633146104535760405162461bcd60e51b815260206004820181905260248201527f4f776e61626c653a2063616c6c6572206973206e6f7420746865206f776e657260448201526064016104ee565b603380546001600160a01b038381166001600160a01b0319831681179093556040519116919082907f8be0079c531659141344cd1fd0a4f28419497f9722a3daafe3b4186f6b6457e090600090a35050565b600054610100900460ff16610b485760405162461bcd60e51b81526004016104ee906110ae565b610453610f8a565b6040516370a0823160e01b81526001600160a01b038281166004830152600091908416906370a0823190602401602060405180830381865afa158015610b9a573d6000803e3d6000fd5b505050506040513d601f19601f82011682018060405250810190610bbe919061100f565b9392505050565b604080516001600160a01b0385811660248301528481166044830152606480830185905283518084039091018152608490920183526020820180516001600160e01b03166323b872dd60e01b1790529151600092839290881691610c2991906110f9565b6000604051808303816000865af19150503d8060008114610c66576040519150601f19603f3d011682016040523d82523d6000602084013e610c6b565b606091505b5091509150818015610c95575080511580610c95575080806020019051810190610c959190611134565b6104395760405162461bcd60e51b815260206004820152601160248201527021736166655472616e7366657246726f6d60781b60448201526064016104ee565b604080516001600160a01b038481166024830152604480830185905283518084039091018152606490920183526020820180516001600160e01b031663095ea7b360e01b1790529151600092839290871691610d3191906110f9565b6000604051808303816000865af19150503d8060008114610d6e576040519150601f19603f3d011682016040523d82523d6000602084013e610d73565b606091505b5091509150818015610d9d575080511580610d9d575080806020019051810190610d9d9190611134565b610dd85760405162461bcd60e51b815260206004820152600c60248201526b2173616665417070726f766560a01b60448201526064016104ee565b5050505050565b604080516001808252818301909252600091816020015b6040805160608101825260008082526020808301829052928201528252600019909201910181610df657905050905060405180606001604052807f00000000000000000000000000000000000000000000000000000000000000006001600160a01b031681526020017f00000000000000000000000000000000000000000000000000000000000000006001600160a01b031681526020016000151581525081600081518110610ea857610ea8611156565b6020908102919091010152610f076001600160a01b037f0000000000000000000000000000000000000000000000000000000000000000167f000000000000000000000000000000000000000000000000000000000000000084610cd5565b604051631e82ecdb60e31b81526001600160a01b037f0000000000000000000000000000000000000000000000000000000000000000169063f41766d890610f5c90859060009086903090429060040161116c565b600060405180830381600087803b158015610f7657600080fd5b505af1158015610439573d6000803e3d6000fd5b600054610100900460ff16610fb15760405162461bcd60e51b81526004016104ee906110ae565b61045333610acf565b600080600060608486031215610fcf57600080fd5b505081359360208301359350604090920135919050565b600060208284031215610ff857600080fd5b81356001600160a01b0381168114610bbe57600080fd5b60006020828403121561102157600080fd5b5051919050565b634e487b7160e01b600052601160045260246000fd5b6000821982111561105157611051611028565b500190565b600081600019048311821515161561107057611070611028565b500290565b60008261109257634e487b7160e01b600052601260045260246000fd5b500490565b6000828210156110a9576110a9611028565b500390565b6020808252602b908201527f496e697469616c697a61626c653a20636f6e7472616374206973206e6f74206960408201526a6e697469616c697a696e6760a81b606082015260800190565b6000825160005b8181101561111a5760208186018101518583015201611100565b81811115611129576000828501525b509190910192915050565b60006020828403121561114657600080fd5b81518015158114610bbe57600080fd5b634e487b7160e01b600052603260045260246000fd5b600060a0820187835260208781850152604060a08186015282885180855260c087019150838a01945060005b818110156111d557855180516001600160a01b03908116855286820151168685015284015115158484015294840194606090920191600101611198565b50506001600160a01b038816606087015293506111f192505050565b826080830152969550505050505056fea26469706673582212208c55c1a6f51e4af864286a925290c6e275f02be7f257ffad6f7d77258f8bfe5564736f6c634300080a0033",
  "devdoc": {
    "kind": "dev",
    "methods": {
      "owner()": {
        "details": "Returns the address of the current owner."
      },
      "renounceOwnership()": {
        "details": "Leaves the contract without owner. It will not be possible to call `onlyOwner` functions. Can only be called by the current owner. NOTE: Renouncing ownership will leave the contract without an owner, thereby disabling any functionality that is only available to the owner."
      },
      "transferOwnership(address)": {
        "details": "Transfers ownership of the contract to a new account (`newOwner`). Can only be called by the current owner."
      }
    },
    "version": 1
  },
  "userdoc": {
    "kind": "user",
    "methods": {},
    "version": 1
  },
  "storageLayout": {
    "storage": [
      {
        "astId": 547,
        "contract": "contracts/RewardManager.sol:RewardManager",
        "label": "_initialized",
        "offset": 0,
        "slot": "0",
        "type": "t_uint8"
      },
      {
        "astId": 550,
        "contract": "contracts/RewardManager.sol:RewardManager",
        "label": "_initializing",
        "offset": 1,
        "slot": "0",
        "type": "t_bool"
      },
      {
        "astId": 1080,
        "contract": "contracts/RewardManager.sol:RewardManager",
        "label": "__gap",
        "offset": 0,
        "slot": "1",
        "type": "t_array(t_uint256)50_storage"
      },
      {
        "astId": 419,
        "contract": "contracts/RewardManager.sol:RewardManager",
        "label": "_owner",
        "offset": 0,
        "slot": "51",
        "type": "t_address"
      },
      {
        "astId": 539,
        "contract": "contracts/RewardManager.sol:RewardManager",
        "label": "__gap",
        "offset": 0,
        "slot": "52",
        "type": "t_array(t_uint256)49_storage"
      }
    ],
    "types": {
      "t_address": {
        "encoding": "inplace",
        "label": "address",
        "numberOfBytes": "20"
      },
      "t_array(t_uint256)49_storage": {
        "base": "t_uint256",
        "encoding": "inplace",
        "label": "uint256[49]",
        "numberOfBytes": "1568"
      },
      "t_array(t_uint256)50_storage": {
        "base": "t_uint256",
        "encoding": "inplace",
        "label": "uint256[50]",
        "numberOfBytes": "1600"
      },
      "t_bool": {
        "encoding": "inplace",
        "label": "bool",
        "numberOfBytes": "1"
      },
      "t_uint256": {
        "encoding": "inplace",
        "label": "uint256",
        "numberOfBytes": "32"
      },
      "t_uint8": {
        "encoding": "inplace",
        "label": "uint8",
        "numberOfBytes": "1"
      }
    }
  }
}