{
  "address": "0xDC05d85069Dc4ABa65954008ff99f2D73FF12618",
  "abi": [
    {
      "inputs": [
        {
          "internalType": "address",
          "name": "sonne_",
          "type": "address"
        },
        {
          "internalType": "string",
          "name": "name",
          "type": "string"
        },
        {
          "internalType": "string",
          "name": "symbol",
          "type": "string"
        }
      ],
      "stateMutability": "nonpayable",
      "type": "constructor"
    },
    {
      "anonymous": false,
      "inputs": [
        {
          "indexed": true,
          "internalType": "address",
          "name": "token",
          "type": "address"
        },
        {
          "indexed": false,
          "internalType": "uint256",
          "name": "amount",
          "type": "uint256"
        },
        {
          "indexed": false,
          "internalType": "uint256",
          "name": "newShareIndex",
          "type": "uint256"
        }
      ],
      "name": "AddReward",
      "type": "event"
    },
    {
      "anonymous": false,
      "inputs": [
        {
          "indexed": true,
          "internalType": "address",
          "name": "owner",
          "type": "address"
        },
        {
          "indexed": true,
          "internalType": "address",
          "name": "spender",
          "type": "address"
        },
        {
          "indexed": false,
          "internalType": "uint256",
          "name": "value",
          "type": "uint256"
        }
      ],
      "name": "Approval",
      "type": "event"
    },
    {
      "anonymous": false,
      "inputs": [
        {
          "indexed": true,
          "internalType": "address",
          "name": "token",
          "type": "address"
        },
        {
          "indexed": true,
          "internalType": "address",
          "name": "account",
          "type": "address"
        },
        {
          "indexed": false,
          "internalType": "uint256",
          "name": "amount",
          "type": "uint256"
        }
      ],
      "name": "Claim",
      "type": "event"
    },
    {
      "anonymous": false,
      "inputs": [
        {
          "indexed": true,
          "internalType": "address",
          "name": "account",
          "type": "address"
        },
        {
          "indexed": false,
          "internalType": "uint256",
          "name": "shares",
          "type": "uint256"
        },
        {
          "indexed": false,
          "internalType": "uint256",
          "name": "totalShares",
          "type": "uint256"
        }
      ],
      "name": "EditRecipient",
      "type": "event"
    },
    {
      "anonymous": false,
      "inputs": [
        {
          "indexed": true,
          "internalType": "address",
          "name": "previousOwner",
          "type": "address"
        },
        {
          "indexed": true,
          "internalType": "address",
          "name": "newOwner",
          "type": "address"
        }
      ],
      "name": "OwnershipTransferred",
      "type": "event"
    },
    {
      "anonymous": false,
      "inputs": [
        {
          "indexed": true,
          "internalType": "address",
          "name": "from",
          "type": "address"
        },
        {
          "indexed": true,
          "internalType": "address",
          "name": "to",
          "type": "address"
        },
        {
          "indexed": false,
          "internalType": "uint256",
          "name": "value",
          "type": "uint256"
        }
      ],
      "name": "Transfer",
      "type": "event"
    },
    {
      "anonymous": false,
      "inputs": [
        {
          "indexed": true,
          "internalType": "address",
          "name": "token",
          "type": "address"
        },
        {
          "indexed": true,
          "internalType": "address",
          "name": "account",
          "type": "address"
        },
        {
          "indexed": false,
          "internalType": "uint256",
          "name": "lastShareIndex",
          "type": "uint256"
        },
        {
          "indexed": false,
          "internalType": "uint256",
          "name": "credit",
          "type": "uint256"
        }
      ],
      "name": "UpdateCredit",
      "type": "event"
    },
    {
      "anonymous": false,
      "inputs": [
        {
          "indexed": true,
          "internalType": "address",
          "name": "user",
          "type": "address"
        },
        {
          "indexed": false,
          "internalType": "uint256",
          "name": "amount",
          "type": "uint256"
        }
      ],
      "name": "Withdraw",
      "type": "event"
    },
    {
      "inputs": [
        {
          "internalType": "address",
          "name": "token",
          "type": "address"
        },
        {
          "internalType": "uint256",
          "name": "amount",
          "type": "uint256"
        }
      ],
      "name": "addReward",
      "outputs": [
        {
          "internalType": "uint256",
          "name": "_shareIndex",
          "type": "uint256"
        }
      ],
      "stateMutability": "nonpayable",
      "type": "function"
    },
    {
      "inputs": [
        {
          "internalType": "address",
          "name": "token",
          "type": "address"
        }
      ],
      "name": "addToken",
      "outputs": [],
      "stateMutability": "nonpayable",
      "type": "function"
    },
    {
      "inputs": [
        {
          "internalType": "address",
          "name": "owner",
          "type": "address"
        },
        {
          "internalType": "address",
          "name": "spender",
          "type": "address"
        }
      ],
      "name": "allowance",
      "outputs": [
        {
          "internalType": "uint256",
          "name": "",
          "type": "uint256"
        }
      ],
      "stateMutability": "view",
      "type": "function"
    },
    {
      "inputs": [
        {
          "internalType": "address",
          "name": "spender",
          "type": "address"
        },
        {
          "internalType": "uint256",
          "name": "amount",
          "type": "uint256"
        }
      ],
      "name": "approve",
      "outputs": [
        {
          "internalType": "bool",
          "name": "",
          "type": "bool"
        }
      ],
      "stateMutability": "nonpayable",
      "type": "function"
    },
    {
      "inputs": [
        {
          "internalType": "address",
          "name": "account",
          "type": "address"
        }
      ],
      "name": "balanceOf",
      "outputs": [
        {
          "internalType": "uint256",
          "name": "",
          "type": "uint256"
        }
      ],
      "stateMutability": "view",
      "type": "function"
    },
    {
      "inputs": [
        {
          "internalType": "uint256",
          "name": "amount",
          "type": "uint256"
        }
      ],
      "name": "burn",
      "outputs": [],
      "stateMutability": "nonpayable",
      "type": "function"
    },
    {
      "inputs": [
        {
          "internalType": "address",
          "name": "token",
          "type": "address"
        }
      ],
      "name": "claim",
      "outputs": [
        {
          "internalType": "uint256",
          "name": "amount",
          "type": "uint256"
        }
      ],
      "stateMutability": "nonpayable",
      "type": "function"
    },
    {
      "inputs": [],
      "name": "claimAll",
      "outputs": [
        {
          "internalType": "uint256[]",
          "name": "amounts",
          "type": "uint256[]"
        }
      ],
      "stateMutability": "nonpayable",
      "type": "function"
    },
    {
      "inputs": [],
      "name": "decimals",
      "outputs": [
        {
          "internalType": "uint8",
          "name": "",
          "type": "uint8"
        }
      ],
      "stateMutability": "view",
      "type": "function"
    },
    {
      "inputs": [
        {
          "internalType": "address",
          "name": "spender",
          "type": "address"
        },
        {
          "internalType": "uint256",
          "name": "subtractedValue",
          "type": "uint256"
        }
      ],
      "name": "decreaseAllowance",
      "outputs": [
        {
          "internalType": "bool",
          "name": "",
          "type": "bool"
        }
      ],
      "stateMutability": "nonpayable",
      "type": "function"
    },
    {
      "inputs": [
        {
          "internalType": "address",
          "name": "token",
          "type": "address"
        },
        {
          "internalType": "address",
          "name": "account",
          "type": "address"
        }
      ],
      "name": "getClaimable",
      "outputs": [
        {
          "internalType": "uint256",
          "name": "amount",
          "type": "uint256"
        }
      ],
      "stateMutability": "view",
      "type": "function"
    },
    {
      "inputs": [
        {
          "internalType": "address",
          "name": "spender",
          "type": "address"
        },
        {
          "internalType": "uint256",
          "name": "addedValue",
          "type": "uint256"
        }
      ],
      "name": "increaseAllowance",
      "outputs": [
        {
          "internalType": "bool",
          "name": "",
          "type": "bool"
        }
      ],
      "stateMutability": "nonpayable",
      "type": "function"
    },
    {
      "inputs": [
        {
          "internalType": "uint256",
          "name": "amount",
          "type": "uint256"
        }
      ],
      "name": "mint",
      "outputs": [],
      "stateMutability": "nonpayable",
      "type": "function"
    },
    {
      "inputs": [],
      "name": "name",
      "outputs": [
        {
          "internalType": "string",
          "name": "",
          "type": "string"
        }
      ],
      "stateMutability": "view",
      "type": "function"
    },
    {
      "inputs": [],
      "name": "owner",
      "outputs": [
        {
          "internalType": "address",
          "name": "",
          "type": "address"
        }
      ],
      "stateMutability": "view",
      "type": "function"
    },
    {
      "inputs": [
        {
          "internalType": "address",
          "name": "",
          "type": "address"
        },
        {
          "internalType": "address",
          "name": "",
          "type": "address"
        }
      ],
      "name": "recipients",
      "outputs": [
        {
          "internalType": "uint256",
          "name": "lastShareIndex",
          "type": "uint256"
        },
        {
          "internalType": "uint256",
          "name": "credit",
          "type": "uint256"
        }
      ],
      "stateMutability": "view",
      "type": "function"
    },
    {
      "inputs": [
        {
          "internalType": "address",
          "name": "token",
          "type": "address"
        }
      ],
      "name": "removeToken",
      "outputs": [],
      "stateMutability": "nonpayable",
      "type": "function"
    },
    {
      "inputs": [],
      "name": "renounceOwnership",
      "outputs": [],
      "stateMutability": "nonpayable",
      "type": "function"
    },
    {
      "inputs": [
        {
          "internalType": "uint256",
          "name": "withdrawalPendingTime_",
          "type": "uint256"
        }
      ],
      "name": "setWithdrawalPendingTime",
      "outputs": [],
      "stateMutability": "nonpayable",
      "type": "function"
    },
    {
      "inputs": [
        {
          "internalType": "address",
          "name": "",
          "type": "address"
        }
      ],
      "name": "shareIndex",
      "outputs": [
        {
          "internalType": "uint256",
          "name": "",
          "type": "uint256"
        }
      ],
      "stateMutability": "view",
      "type": "function"
    },
    {
      "inputs": [
        {
          "internalType": "address",
          "name": "",
          "type": "address"
        }
      ],
      "name": "shares",
      "outputs": [
        {
          "internalType": "uint256",
          "name": "",
          "type": "uint256"
        }
      ],
      "stateMutability": "view",
      "type": "function"
    },
    {
      "inputs": [],
      "name": "sonne",
      "outputs": [
        {
          "internalType": "address",
          "name": "",
          "type": "address"
        }
      ],
      "stateMutability": "view",
      "type": "function"
    },
    {
      "inputs": [],
      "name": "symbol",
      "outputs": [
        {
          "internalType": "string",
          "name": "",
          "type": "string"
        }
      ],
      "stateMutability": "view",
      "type": "function"
    },
    {
      "inputs": [
        {
          "internalType": "address",
          "name": "",
          "type": "address"
        }
      ],
      "name": "tokenIndexes",
      "outputs": [
        {
          "internalType": "uint256",
          "name": "",
          "type": "uint256"
        }
      ],
      "stateMutability": "view",
      "type": "function"
    },
    {
      "inputs": [
        {
          "internalType": "uint256",
          "name": "",
          "type": "uint256"
        }
      ],
      "name": "tokens",
      "outputs": [
        {
          "internalType": "address",
          "name": "",
          "type": "address"
        }
      ],
      "stateMutability": "view",
      "type": "function"
    },
    {
      "inputs": [],
      "name": "totalShares",
      "outputs": [
        {
          "internalType": "uint256",
          "name": "",
          "type": "uint256"
        }
      ],
      "stateMutability": "view",
      "type": "function"
    },
    {
      "inputs": [],
      "name": "totalSupply",
      "outputs": [
        {
          "internalType": "uint256",
          "name": "",
          "type": "uint256"
        }
      ],
      "stateMutability": "view",
      "type": "function"
    },
    {
      "inputs": [
        {
          "internalType": "address",
          "name": "to",
          "type": "address"
        },
        {
          "internalType": "uint256",
          "name": "amount",
          "type": "uint256"
        }
      ],
      "name": "transfer",
      "outputs": [
        {
          "internalType": "bool",
          "name": "",
          "type": "bool"
        }
      ],
      "stateMutability": "nonpayable",
      "type": "function"
    },
    {
      "inputs": [
        {
          "internalType": "address",
          "name": "from",
          "type": "address"
        },
        {
          "internalType": "address",
          "name": "to",
          "type": "address"
        },
        {
          "internalType": "uint256",
          "name": "amount",
          "type": "uint256"
        }
      ],
      "name": "transferFrom",
      "outputs": [
        {
          "internalType": "bool",
          "name": "",
          "type": "bool"
        }
      ],
      "stateMutability": "nonpayable",
      "type": "function"
    },
    {
      "inputs": [
        {
          "internalType": "address",
          "name": "newOwner",
          "type": "address"
        }
      ],
      "name": "transferOwnership",
      "outputs": [],
      "stateMutability": "nonpayable",
      "type": "function"
    },
    {
      "inputs": [
        {
          "internalType": "address",
          "name": "token",
          "type": "address"
        },
        {
          "internalType": "address",
          "name": "account",
          "type": "address"
        }
      ],
      "name": "updateCredit",
      "outputs": [
        {
          "internalType": "uint256",
          "name": "credit",
          "type": "uint256"
        }
      ],
      "stateMutability": "nonpayable",
      "type": "function"
    },
    {
      "inputs": [],
      "name": "withdraw",
      "outputs": [],
      "stateMutability": "nonpayable",
      "type": "function"
    },
    {
      "inputs": [
        {
          "internalType": "address",
          "name": "",
          "type": "address"
        }
      ],
      "name": "withdrawal",
      "outputs": [
        {
          "internalType": "uint256",
          "name": "amount",
          "type": "uint256"
        },
        {
          "internalType": "uint256",
          "name": "releaseTime",
          "type": "uint256"
        }
      ],
      "stateMutability": "view",
      "type": "function"
    },
    {
      "inputs": [],
      "name": "withdrawalPendingTime",
      "outputs": [
        {
          "internalType": "uint256",
          "name": "",
          "type": "uint256"
        }
      ],
      "stateMutability": "view",
      "type": "function"
    }
  ],
  "transactionHash": "0x4382b5daa60586cfe6cc26eee2cc4934e7e5873e57754d47c91dd4fdb371838c",
  "args": [
    "0x1db2466d9f5e10d7090e7152b68d62703a2245f0",
    "Staked Sonne",
    "sSonne"
  ],
  "numDeployments": 1,
  "solcInputHash": "0ea17fe4dfafa00644678366abe6b827",
  "bytecode": "0x60a060405262093a80600c553480156200001857600080fd5b5060405162002178380380620021788339810160408190526200003b9162000290565b81816200004833620000cd565b600580546001810182556000919091527f036b6384b5eca791c62761152d0c79bb0604c104a5fb6f4eb0703f3154bb3db00180546001600160a01b031916905581516200009d90600a9060208501906200011d565b508051620000b390600b9060208401906200011d565b5050506001600160a01b0390921660805250620003579050565b600080546001600160a01b038381166001600160a01b0319831681178455604051919092169283917f8be0079c531659141344cd1fd0a4f28419497f9722a3daafe3b4186f6b6457e09190a35050565b8280546200012b906200031a565b90600052602060002090601f0160209004810192826200014f57600085556200019a565b82601f106200016a57805160ff19168380011785556200019a565b828001600101855582156200019a579182015b828111156200019a5782518255916020019190600101906200017d565b50620001a8929150620001ac565b5090565b5b80821115620001a85760008155600101620001ad565b634e487b7160e01b600052604160045260246000fd5b600082601f830112620001eb57600080fd5b81516001600160401b0380821115620002085762000208620001c3565b604051601f8301601f19908116603f01168101908282118183101715620002335762000233620001c3565b816040528381526020925086838588010111156200025057600080fd5b600091505b8382101562000274578582018301518183018401529082019062000255565b83821115620002865760008385830101525b9695505050505050565b600080600060608486031215620002a657600080fd5b83516001600160a01b0381168114620002be57600080fd5b60208501519093506001600160401b0380821115620002dc57600080fd5b620002ea87838801620001d9565b935060408601519150808211156200030157600080fd5b506200031086828701620001d9565b9150509250925092565b600181811c908216806200032f57607f821691505b602082108114156200035157634e487b7160e01b600052602260045260246000fd5b50919050565b608051611df7620003816000396000818161041d0152818161069b0152610b0f0152611df76000f3fe608060405234801561001057600080fd5b50600436106102065760003560e01c80638da5cb5b1161011a578063ce7c2ac2116100ad578063d77fa7ee1161007c578063d77fa7ee146104a7578063dd62ed3e146104d6578063edd6755d146104e9578063efe235d0146104fc578063f2fde38b1461050f57600080fd5b8063ce7c2ac21461043f578063d1058e591461045f578063d2f22cf014610474578063d48bfca71461049457600080fd5b8063a0712d68116100e9578063a0712d68146103df578063a457c2d7146103f2578063a9059cbb14610405578063c0c2ae501461041857600080fd5b80638da5cb5b1461037757806395d89b411461038857806396131049146103905780639feb8f50146103cc57600080fd5b80633a98ef391161019d5780634f64b2be1161016c5780634f64b2be146102ff5780635fa7b5841461032a5780636131ab031461033d57806370a0823114610346578063715018a61461036f57600080fd5b80633a98ef39146102c65780633ccfd60b146102cf5780633fb81428146102d957806342966c68146102ec57600080fd5b80631e83409a116101d95780631e83409a1461027e57806323b872dd14610291578063313ce567146102a457806339509351146102b357600080fd5b806304bc3b1c1461020b57806306fdde031461023e578063095ea7b31461025357806318160ddd14610276575b600080fd5b61022b610219366004611abe565b60066020526000908152604090205481565b6040519081526020015b60405180910390f35b610246610522565b6040516102359190611b05565b610266610261366004611b38565b6105b4565b6040519015158152602001610235565b60095461022b565b61022b61028c366004611abe565b6105ce565b61026661029f366004611b62565b6105da565b60405160128152602001610235565b6102666102c1366004611b38565b6105fe565b61022b60045481565b6102d7610620565b005b61022b6102e7366004611b9e565b6106fb565b6102d76102fa366004611bd1565b6107aa565b61031261030d366004611bd1565b6107ee565b6040516001600160a01b039091168152602001610235565b6102d7610338366004611abe565b610818565b61022b600c5481565b61022b610354366004611abe565b6001600160a01b031660009081526007602052604090205490565b6102d7610974565b6000546001600160a01b0316610312565b610246610988565b6103b761039e366004611abe565b600d602052600090815260409020805460019091015482565b60408051928352602083019190915201610235565b61022b6103da366004611b38565b610997565b6102d76103ed366004611bd1565b610b02565b610266610400366004611b38565b610b44565b610266610413366004611b38565b610bbf565b6103127f000000000000000000000000000000000000000000000000000000000000000081565b61022b61044d366004611abe565b60026020526000908152604090205481565b610467610bcd565b6040516102359190611bea565b61022b610482366004611abe565b60036020526000908152604090205481565b6102d76104a2366004611abe565b610c88565b6103b76104b5366004611b9e565b60016020818152600093845260408085209091529183529120805491015482565b61022b6104e4366004611b9e565b610d6b565b6102d76104f7366004611bd1565b610d96565b61022b61050a366004611b9e565b610da3565b6102d761051d366004611abe565b610ec2565b6060600a805461053190611c2e565b80601f016020809104026020016040519081016040528092919081815260200182805461055d90611c2e565b80156105aa5780601f1061057f576101008083540402835291602001916105aa565b820191906000526020600020905b81548152906001019060200180831161058d57829003601f168201915b5050505050905090565b6000336105c2818585610f38565b60019150505b92915050565b60006105c8823361105c565b6000336105e8858285611199565b6105f3858585611213565b506001949350505050565b6000336105c28185856106118383610d6b565b61061b9190611c7f565b610f38565b336000908152600d6020526040902060018101544210156106885760405162461bcd60e51b815260206004820152601f60248201527f5374616b65644469737472696275746f723a206e6f742072656c65617365640060448201526064015b60405180910390fd5b8054600082556106c26001600160a01b037f00000000000000000000000000000000000000000000000000000000000000001633836113e7565b60405181815233907f884edad9ce6fa2440d8a54cc123490eb96d2768479d49ff9c7366125a94243649060200160405180910390a25050565b6001600160a01b038216600090815260036020526040812054806107235760009150506105c8565b6001600160a01b0380851660009081526001602081815260408084209488168085529482528084208151808301835281548082529190940154848401819052958552600290925290922054909290600160a01b61078a8261078488876114f2565b90611505565b6107949190611c97565b61079e9083611c7f565b98975050505050505050565b80156107ba576107ba3382611511565b336000908152600d6020526040902080546107d6908390611c7f565b8155600c546107e59042611c7f565b60019091015550565b600581815481106107fe57600080fd5b6000918252602090912001546001600160a01b0316905081565b61082061166b565b6001600160a01b038116600090815260066020526040902054806108865760405162461bcd60e51b815260206004820152601c60248201527f4469737472696275746f723a20746f6b656e206e6f7420666f756e6400000000604482015260640161067f565b60055460009061089890600190611cb9565b905080821015610921576000600582815481106108b7576108b7611cd0565b600091825260209091200154600580546001600160a01b0390921692508291859081106108e6576108e6611cd0565b600091825260208083209190910180546001600160a01b0319166001600160a01b039485161790559290911681526006909152604090208290555b600580548061093257610932611ce6565b60008281526020808220830160001990810180546001600160a01b03191690559092019092556001600160a01b03949094168152600690935250506040812055565b61097c61166b565b61098660006116c5565b565b6060600b805461053190611c2e565b6001600160a01b0382166000908152600660205260408120546109cc5760405162461bcd60e51b815260040161067f90611cfc565b60008211610a1c5760405162461bcd60e51b815260206004820152601b60248201527f4469737472696275746f723a20496e76616c696420616d6f756e740000000000604482015260640161067f565b600454610a4257506001600160a01b0382166000908152600360205260409020546105c8565b6001600160a01b038316600090815260036020526040902054600454610a819190610a7b90610a7586600160a01b611505565b90611715565b90611721565b6001600160a01b0384166000818152600360205260409020829055909150610aab9033308561172d565b6001600160a01b038316600081815260036020908152604091829020548251868152918201527f8ad4c79f7fda5880944bd79d8607b099b5d19d1a10100101c978cdbc3878d3e0910160405180910390a292915050565b610b376001600160a01b037f00000000000000000000000000000000000000000000000000000000000000001633308461172d565b610b413382611845565b50565b60003381610b528286610d6b565b905083811015610bb25760405162461bcd60e51b815260206004820152602560248201527f45524332303a2064656372656173656420616c6c6f77616e63652062656c6f77604482015264207a65726f60d81b606482015260840161067f565b6105f38286868403610f38565b6000336105c2818585611213565b60055460609067ffffffffffffffff811115610beb57610beb611d33565b604051908082528060200260200182016040528015610c14578160200160208202803683370190505b50905060015b600554811015610c8457610c5560058281548110610c3a57610c3a611cd0565b6000918252602090912001546001600160a01b03163361105c565b828281518110610c6757610c67611cd0565b602090810291909101015280610c7c81611d49565b915050610c1a565b5090565b610c9061166b565b6001600160a01b03811660009081526006602052604090205415610cf65760405162461bcd60e51b815260206004820181905260248201527f4469737472696275746f723a20746f6b656e20616c7265616479206164646564604482015260640161067f565b600580546001808201835560008390527f036b6384b5eca791c62761152d0c79bb0604c104a5fb6f4eb0703f3154bb3db090910180546001600160a01b0319166001600160a01b0385161790559054610d4f9190611cb9565b6001600160a01b03909116600090815260066020526040902055565b6001600160a01b03918216600090815260086020908152604080832093909416825291909152205490565b610d9e61166b565b600c55565b6001600160a01b038216600090815260066020526040812054610dd85760405162461bcd60e51b815260040161067f90611cfc565b6001600160a01b03831660009081526003602052604090205480610e005760009150506105c8565b6001600160a01b038085166000908152600160208181526040808420948816845293815283832080549281015460029092529390922054909190600160a01b610e4d8261078488876114f2565b610e579190611c97565b610e619083611c7f565b8585556001850181905560408051878152602081018390529197506001600160a01b0389811692908b16917f39cb59c115665c2eda6fe547d7c2a8a8f6908243bf576a69f574973a0b650206910160405180910390a3505050505092915050565b610eca61166b565b6001600160a01b038116610f2f5760405162461bcd60e51b815260206004820152602660248201527f4f776e61626c653a206e6577206f776e657220697320746865207a65726f206160448201526564647265737360d01b606482015260840161067f565b610b41816116c5565b6001600160a01b038316610f9a5760405162461bcd60e51b8152602060048201526024808201527f45524332303a20617070726f76652066726f6d20746865207a65726f206164646044820152637265737360e01b606482015260840161067f565b6001600160a01b038216610ffb5760405162461bcd60e51b815260206004820152602260248201527f45524332303a20617070726f766520746f20746865207a65726f206164647265604482015261737360f01b606482015260840161067f565b6001600160a01b0383811660008181526008602090815260408083209487168084529482529182902085905590518481527f8c5be1e5ebec7d5bd14f71427d1e84f3dd0314c0f7b2291e5b200ac8c7c3b925910160405180910390a3505050565b6001600160a01b0382166000908152600660205260408120546110915760405162461bcd60e51b815260040161067f90611cfc565b61109b8383610da3565b905080156105c8576001600160a01b03808416600081815260016020818152604080842095881684529490528382200155905163a9059cbb60e01b815263a9059cbb9061110290859085906004016001600160a01b03929092168252602082015260400190565b6020604051808303816000875af1158015611121573d6000803e3d6000fd5b505050506040513d601f19601f820116820180604052508101906111459190611d64565b50816001600160a01b0316836001600160a01b03167f70eb43c4a8ae8c40502dcf22436c509c28d6ff421cf07c491be56984bd9870688360405161118b91815260200190565b60405180910390a392915050565b60006111a58484610d6b565b9050600019811461120d57818110156112005760405162461bcd60e51b815260206004820152601d60248201527f45524332303a20696e73756666696369656e7420616c6c6f77616e6365000000604482015260640161067f565b61120d8484848403610f38565b50505050565b6001600160a01b0383166112775760405162461bcd60e51b815260206004820152602560248201527f45524332303a207472616e736665722066726f6d20746865207a65726f206164604482015264647265737360d81b606482015260840161067f565b6001600160a01b0382166112d95760405162461bcd60e51b815260206004820152602360248201527f45524332303a207472616e7366657220746f20746865207a65726f206164647260448201526265737360e81b606482015260840161067f565b6001600160a01b038316600090815260076020526040902054818110156113515760405162461bcd60e51b815260206004820152602660248201527f45524332303a207472616e7366657220616d6f756e7420657863656564732062604482015265616c616e636560d01b606482015260840161067f565b6001600160a01b03808516600090815260076020526040808220858503905591851681529081208054849290611388908490611c7f565b92505081905550826001600160a01b0316846001600160a01b03167fddf252ad1be2c89b69c2b068fc378daa952ba7f163c4a11628f55a4df523b3ef846040516113d491815260200190565b60405180910390a361120d848484611930565b604080516001600160a01b038481166024830152604480830185905283518084039091018152606490920183526020820180516001600160e01b031663a9059cbb60e01b17905291516000928392908716916114439190611d86565b6000604051808303816000865af19150503d8060008114611480576040519150601f19603f3d011682016040523d82523d6000602084013e611485565b606091505b50915091508180156114af5750805115806114af5750808060200190518101906114af9190611d64565b6114eb5760405162461bcd60e51b815260206004820152600d60248201526c10b9b0b332aa3930b739b332b960991b604482015260640161067f565b5050505050565b60006114fe8284611cb9565b9392505050565b60006114fe8284611da2565b6001600160a01b0382166115715760405162461bcd60e51b815260206004820152602160248201527f45524332303a206275726e2066726f6d20746865207a65726f206164647265736044820152607360f81b606482015260840161067f565b6001600160a01b038216600090815260076020526040902054818110156115e55760405162461bcd60e51b815260206004820152602260248201527f45524332303a206275726e20616d6f756e7420657863656564732062616c616e604482015261636560f01b606482015260840161067f565b6001600160a01b0383166000908152600760205260408120838303905560098054849290611614908490611cb9565b90915550506040518281526000906001600160a01b038516907fddf252ad1be2c89b69c2b068fc378daa952ba7f163c4a11628f55a4df523b3ef9060200160405180910390a361166683600084611930565b505050565b6000546001600160a01b031633146109865760405162461bcd60e51b815260206004820181905260248201527f4f776e61626c653a2063616c6c6572206973206e6f7420746865206f776e6572604482015260640161067f565b600080546001600160a01b038381166001600160a01b0319831681178455604051919092169283917f8be0079c531659141344cd1fd0a4f28419497f9722a3daafe3b4186f6b6457e09190a35050565b60006114fe8284611c97565b60006114fe8284611c7f565b604080516001600160a01b0385811660248301528481166044830152606480830185905283518084039091018152608490920183526020820180516001600160e01b03166323b872dd60e01b17905291516000928392908816916117919190611d86565b6000604051808303816000865af19150503d80600081146117ce576040519150601f19603f3d011682016040523d82523d6000602084013e6117d3565b606091505b50915091508180156117fd5750805115806117fd5750808060200190518101906117fd9190611d64565b61183d5760405162461bcd60e51b815260206004820152601160248201527021736166655472616e7366657246726f6d60781b604482015260640161067f565b505050505050565b6001600160a01b03821661189b5760405162461bcd60e51b815260206004820152601f60248201527f45524332303a206d696e7420746f20746865207a65726f206164647265737300604482015260640161067f565b80600960008282546118ad9190611c7f565b90915550506001600160a01b038216600090815260076020526040812080548392906118da908490611c7f565b90915550506040518181526001600160a01b038316906000907fddf252ad1be2c89b69c2b068fc378daa952ba7f163c4a11628f55a4df523b3ef9060200160405180910390a361192c60008383611930565b5050565b6001600160a01b038316156119675761196783611962856001600160a01b031660009081526007602052604090205490565b611999565b6001600160a01b038216156116665761166682611962846001600160a01b031660009081526007602052604090205490565b60015b6005548110156119ea576119d7600582815481106119bc576119bc611cd0565b6000918252602090912001546001600160a01b031684610da3565b50806119e281611d49565b91505061199c565b506001600160a01b03821660009081526002602052604081205490818311611a2757611a22611a198484611cb9565b600454906114f2565b611a3d565b611a3d611a348385611cb9565b60045490611721565b60048190556001600160a01b038516600081815260026020908152604091829020879055815187815290810184905292935090917fff3664f5f2f8f85ecd8d30ef2aa6773d8a8448219c7421dcbb67957fb3fafba1910160405180910390a250505050565b80356001600160a01b0381168114611ab957600080fd5b919050565b600060208284031215611ad057600080fd5b6114fe82611aa2565b60005b83811015611af4578181015183820152602001611adc565b8381111561120d5750506000910152565b6020815260008251806020840152611b24816040850160208701611ad9565b601f01601f19169190910160400192915050565b60008060408385031215611b4b57600080fd5b611b5483611aa2565b946020939093013593505050565b600080600060608486031215611b7757600080fd5b611b8084611aa2565b9250611b8e60208501611aa2565b9150604084013590509250925092565b60008060408385031215611bb157600080fd5b611bba83611aa2565b9150611bc860208401611aa2565b90509250929050565b600060208284031215611be357600080fd5b5035919050565b6020808252825182820181905260009190848201906040850190845b81811015611c2257835183529284019291840191600101611c06565b50909695505050505050565b600181811c90821680611c4257607f821691505b60208210811415611c6357634e487b7160e01b600052602260045260246000fd5b50919050565b634e487b7160e01b600052601160045260246000fd5b60008219821115611c9257611c92611c69565b500190565b600082611cb457634e487b7160e01b600052601260045260246000fd5b500490565b600082821015611ccb57611ccb611c69565b500390565b634e487b7160e01b600052603260045260246000fd5b634e487b7160e01b600052603160045260246000fd5b6020808252601a908201527f4469737472696275746f723a20496e76616c696420746f6b656e000000000000604082015260600190565b634e487b7160e01b600052604160045260246000fd5b6000600019821415611d5d57611d5d611c69565b5060010190565b600060208284031215611d7657600080fd5b815180151581146114fe57600080fd5b60008251611d98818460208701611ad9565b9190910192915050565b6000816000190483118215151615611dbc57611dbc611c69565b50029056fea26469706673582212201a7d0168087c9920443c737e11276d94d817b12dd3d8dea6e882ed3d529018b764736f6c634300080a0033",
  "devdoc": {
    "kind": "dev",
    "methods": {
      "allowance(address,address)": {
        "details": "See {IERC20-allowance}."
      },
      "approve(address,uint256)": {
        "details": "See {IERC20-approve}. NOTE: If `amount` is the maximum `uint256`, the allowance is not updated on `transferFrom`. This is semantically equivalent to an infinite approval. Requirements: - `spender` cannot be the zero address."
      },
      "balanceOf(address)": {
        "details": "See {IERC20-balanceOf}."
      },
      "decimals()": {
        "details": "Returns the number of decimals used to get its user representation. For example, if `decimals` equals `2`, a balance of `505` tokens should be displayed to a user as `5.05` (`505 / 10 ** 2`). Tokens usually opt for a value of 18, imitating the relationship between Ether and Wei. This is the value {ERC20} uses, unless this function is overridden; NOTE: This information is only used for _display_ purposes: it in no way affects any of the arithmetic of the contract, including {IERC20-balanceOf} and {IERC20-transfer}."
      },
      "decreaseAllowance(address,uint256)": {
        "details": "Atomically decreases the allowance granted to `spender` by the caller. This is an alternative to {approve} that can be used as a mitigation for problems described in {IERC20-approve}. Emits an {Approval} event indicating the updated allowance. Requirements: - `spender` cannot be the zero address. - `spender` must have allowance for the caller of at least `subtractedValue`."
      },
      "increaseAllowance(address,uint256)": {
        "details": "Atomically increases the allowance granted to `spender` by the caller. This is an alternative to {approve} that can be used as a mitigation for problems described in {IERC20-approve}. Emits an {Approval} event indicating the updated allowance. Requirements: - `spender` cannot be the zero address."
      },
      "name()": {
        "details": "Returns the name of the token."
      },
      "owner()": {
        "details": "Returns the address of the current owner."
      },
      "renounceOwnership()": {
        "details": "Leaves the contract without owner. It will not be possible to call `onlyOwner` functions anymore. Can only be called by the current owner. NOTE: Renouncing ownership will leave the contract without an owner, thereby removing any functionality that is only available to the owner."
      },
      "symbol()": {
        "details": "Returns the symbol of the token, usually a shorter version of the name."
      },
      "totalSupply()": {
        "details": "See {IERC20-totalSupply}."
      },
      "transfer(address,uint256)": {
        "details": "See {IERC20-transfer}. Requirements: - `to` cannot be the zero address. - the caller must have a balance of at least `amount`."
      },
      "transferFrom(address,address,uint256)": {
        "details": "See {IERC20-transferFrom}. Emits an {Approval} event indicating the updated allowance. This is not required by the EIP. See the note at the beginning of {ERC20}. NOTE: Does not update the allowance if the current allowance is the maximum `uint256`. Requirements: - `from` and `to` cannot be the zero address. - `from` must have a balance of at least `amount`. - the caller must have allowance for ``from``'s tokens of at least `amount`."
      },
      "transferOwnership(address)": {
        "details": "Transfers ownership of the contract to a new account (`newOwner`). Can only be called by the current owner."
      }
    },
    "version": 1
  },
  "userdoc": {
    "kind": "user",
    "methods": {},
    "version": 1
  },
  "storageLayout": {
    "storage": [
      {
        "astId": 7,
        "contract": "contracts/StakedDistributor.sol:StakedDistributor",
        "label": "_owner",
        "offset": 0,
        "slot": "0",
        "type": "t_address"
      },
      {
        "astId": 1161,
        "contract": "contracts/StakedDistributor.sol:StakedDistributor",
        "label": "recipients",
        "offset": 0,
        "slot": "1",
        "type": "t_mapping(t_address,t_mapping(t_address,t_struct(Recipient)1154_storage))"
      },
      {
        "astId": 1165,
        "contract": "contracts/StakedDistributor.sol:StakedDistributor",
        "label": "shares",
        "offset": 0,
        "slot": "2",
        "type": "t_mapping(t_address,t_uint256)"
      },
      {
        "astId": 1169,
        "contract": "contracts/StakedDistributor.sol:StakedDistributor",
        "label": "shareIndex",
        "offset": 0,
        "slot": "3",
        "type": "t_mapping(t_address,t_uint256)"
      },
      {
        "astId": 1171,
        "contract": "contracts/StakedDistributor.sol:StakedDistributor",
        "label": "totalShares",
        "offset": 0,
        "slot": "4",
        "type": "t_uint256"
      },
      {
        "astId": 1208,
        "contract": "contracts/StakedDistributor.sol:StakedDistributor",
        "label": "tokens",
        "offset": 0,
        "slot": "5",
        "type": "t_array(t_address)dyn_storage"
      },
      {
        "astId": 1212,
        "contract": "contracts/StakedDistributor.sol:StakedDistributor",
        "label": "tokenIndexes",
        "offset": 0,
        "slot": "6",
        "type": "t_mapping(t_address,t_uint256)"
      },
      {
        "astId": 128,
        "contract": "contracts/StakedDistributor.sol:StakedDistributor",
        "label": "_balances",
        "offset": 0,
        "slot": "7",
        "type": "t_mapping(t_address,t_uint256)"
      },
      {
        "astId": 134,
        "contract": "contracts/StakedDistributor.sol:StakedDistributor",
        "label": "_allowances",
        "offset": 0,
        "slot": "8",
        "type": "t_mapping(t_address,t_mapping(t_address,t_uint256))"
      },
      {
        "astId": 136,
        "contract": "contracts/StakedDistributor.sol:StakedDistributor",
        "label": "_totalSupply",
        "offset": 0,
        "slot": "9",
        "type": "t_uint256"
      },
      {
        "astId": 138,
        "contract": "contracts/StakedDistributor.sol:StakedDistributor",
        "label": "_name",
        "offset": 0,
        "slot": "10",
        "type": "t_string_storage"
      },
      {
        "astId": 140,
        "contract": "contracts/StakedDistributor.sol:StakedDistributor",
        "label": "_symbol",
        "offset": 0,
        "slot": "11",
        "type": "t_string_storage"
      },
      {
        "astId": 1756,
        "contract": "contracts/StakedDistributor.sol:StakedDistributor",
        "label": "withdrawalPendingTime",
        "offset": 0,
        "slot": "12",
        "type": "t_uint256"
      },
      {
        "astId": 1761,
        "contract": "contracts/StakedDistributor.sol:StakedDistributor",
        "label": "withdrawal",
        "offset": 0,
        "slot": "13",
        "type": "t_mapping(t_address,t_struct(Withdrawal)1745_storage)"
      }
    ],
    "types": {
      "t_address": {
        "encoding": "inplace",
        "label": "address",
        "numberOfBytes": "20"
      },
      "t_array(t_address)dyn_storage": {
        "base": "t_address",
        "encoding": "dynamic_array",
        "label": "address[]",
        "numberOfBytes": "32"
      },
      "t_mapping(t_address,t_mapping(t_address,t_struct(Recipient)1154_storage))": {
        "encoding": "mapping",
        "key": "t_address",
        "label": "mapping(address => mapping(address => struct Distributor.Recipient))",
        "numberOfBytes": "32",
        "value": "t_mapping(t_address,t_struct(Recipient)1154_storage)"
      },
      "t_mapping(t_address,t_mapping(t_address,t_uint256))": {
        "encoding": "mapping",
        "key": "t_address",
        "label": "mapping(address => mapping(address => uint256))",
        "numberOfBytes": "32",
        "value": "t_mapping(t_address,t_uint256)"
      },
      "t_mapping(t_address,t_struct(Recipient)1154_storage)": {
        "encoding": "mapping",
        "key": "t_address",
        "label": "mapping(address => struct Distributor.Recipient)",
        "numberOfBytes": "32",
        "value": "t_struct(Recipient)1154_storage"
      },
      "t_mapping(t_address,t_struct(Withdrawal)1745_storage)": {
        "encoding": "mapping",
        "key": "t_address",
        "label": "mapping(address => struct StakedDistributor.Withdrawal)",
        "numberOfBytes": "32",
        "value": "t_struct(Withdrawal)1745_storage"
      },
      "t_mapping(t_address,t_uint256)": {
        "encoding": "mapping",
        "key": "t_address",
        "label": "mapping(address => uint256)",
        "numberOfBytes": "32",
        "value": "t_uint256"
      },
      "t_string_storage": {
        "encoding": "bytes",
        "label": "string",
        "numberOfBytes": "32"
      },
      "t_struct(Recipient)1154_storage": {
        "encoding": "inplace",
        "label": "struct Distributor.Recipient",
        "members": [
          {
            "astId": 1151,
            "contract": "contracts/StakedDistributor.sol:StakedDistributor",
            "label": "lastShareIndex",
            "offset": 0,
            "slot": "0",
            "type": "t_uint256"
          },
          {
            "astId": 1153,
            "contract": "contracts/StakedDistributor.sol:StakedDistributor",
            "label": "credit",
            "offset": 0,
            "slot": "1",
            "type": "t_uint256"
          }
        ],
        "numberOfBytes": "64"
      },
      "t_struct(Withdrawal)1745_storage": {
        "encoding": "inplace",
        "label": "struct StakedDistributor.Withdrawal",
        "members": [
          {
            "astId": 1742,
            "contract": "contracts/StakedDistributor.sol:StakedDistributor",
            "label": "amount",
            "offset": 0,
            "slot": "0",
            "type": "t_uint256"
          },
          {
            "astId": 1744,
            "contract": "contracts/StakedDistributor.sol:StakedDistributor",
            "label": "releaseTime",
            "offset": 0,
            "slot": "1",
            "type": "t_uint256"
          }
        ],
        "numberOfBytes": "64"
      },
      "t_uint256": {
        "encoding": "inplace",
        "label": "uint256",
        "numberOfBytes": "32"
      }
    }
  }
}