{
  "address": "0x6FdaA57610FdaE0786fCFfb019762828DA3d27C6",
  "abi": [
    {
      "anonymous": false,
      "inputs": [
        {
          "indexed": false,
          "internalType": "uint8",
          "name": "version",
          "type": "uint8"
        }
      ],
      "name": "Initialized",
      "type": "event"
    },
    {
      "anonymous": false,
      "inputs": [
        {
          "indexed": true,
          "internalType": "bytes32",
          "name": "role",
          "type": "bytes32"
        },
        {
          "indexed": true,
          "internalType": "bytes32",
          "name": "previousAdminRole",
          "type": "bytes32"
        },
        {
          "indexed": true,
          "internalType": "bytes32",
          "name": "newAdminRole",
          "type": "bytes32"
        }
      ],
      "name": "RoleAdminChanged",
      "type": "event"
    },
    {
      "anonymous": false,
      "inputs": [
        {
          "indexed": true,
          "internalType": "bytes32",
          "name": "role",
          "type": "bytes32"
        },
        {
          "indexed": true,
          "internalType": "address",
          "name": "account",
          "type": "address"
        },
        {
          "indexed": true,
          "internalType": "address",
          "name": "sender",
          "type": "address"
        }
      ],
      "name": "RoleGranted",
      "type": "event"
    },
    {
      "anonymous": false,
      "inputs": [
        {
          "indexed": true,
          "internalType": "bytes32",
          "name": "role",
          "type": "bytes32"
        },
        {
          "indexed": true,
          "internalType": "address",
          "name": "account",
          "type": "address"
        },
        {
          "indexed": true,
          "internalType": "address",
          "name": "sender",
          "type": "address"
        }
      ],
      "name": "RoleRevoked",
      "type": "event"
    },
    {
      "inputs": [],
      "name": "DEFAULT_ADMIN_ROLE",
      "outputs": [
        {
          "internalType": "bytes32",
          "name": "",
          "type": "bytes32"
        }
      ],
      "stateMutability": "view",
      "type": "function"
    },
    {
      "inputs": [],
      "name": "MANAGER_ROLE",
      "outputs": [
        {
          "internalType": "bytes32",
          "name": "",
          "type": "bytes32"
        }
      ],
      "stateMutability": "view",
      "type": "function"
    },
    {
      "inputs": [
        {
          "internalType": "uint256",
          "name": "usdcAmount",
          "type": "uint256"
        },
        {
          "internalType": "uint256",
          "name": "aeroAmount",
          "type": "uint256"
        },
        {
          "components": [
            {
              "internalType": "bytes32",
              "name": "sMerkleRoot",
              "type": "bytes32"
            },
            {
              "internalType": "bytes32",
              "name": "uMerkleRoot",
              "type": "bytes32"
            },
            {
              "internalType": "uint256",
              "name": "sSupply",
              "type": "uint256"
            },
            {
              "internalType": "uint256",
              "name": "uSupply",
              "type": "uint256"
            },
            {
              "internalType": "uint256",
              "name": "blockNumber",
              "type": "uint256"
            },
            {
              "internalType": "uint256",
              "name": "withdrawUnlockTime",
              "type": "uint256"
            }
          ],
          "internalType": "struct OpPoolState",
          "name": "state",
          "type": "tuple"
        }
      ],
      "name": "addRewards",
      "outputs": [],
      "stateMutability": "nonpayable",
      "type": "function"
    },
    {
      "inputs": [],
      "name": "aero",
      "outputs": [
        {
          "internalType": "address",
          "name": "",
          "type": "address"
        }
      ],
      "stateMutability": "view",
      "type": "function"
    },
    {
      "inputs": [
        {
          "internalType": "bytes32",
          "name": "role",
          "type": "bytes32"
        }
      ],
      "name": "getRoleAdmin",
      "outputs": [
        {
          "internalType": "bytes32",
          "name": "",
          "type": "bytes32"
        }
      ],
      "stateMutability": "view",
      "type": "function"
    },
    {
      "inputs": [
        {
          "internalType": "bytes32",
          "name": "role",
          "type": "bytes32"
        },
        {
          "internalType": "address",
          "name": "account",
          "type": "address"
        }
      ],
      "name": "grantRole",
      "outputs": [],
      "stateMutability": "nonpayable",
      "type": "function"
    },
    {
      "inputs": [
        {
          "internalType": "bytes32",
          "name": "role",
          "type": "bytes32"
        },
        {
          "internalType": "address",
          "name": "account",
          "type": "address"
        }
      ],
      "name": "hasRole",
      "outputs": [
        {
          "internalType": "bool",
          "name": "",
          "type": "bool"
        }
      ],
      "stateMutability": "view",
      "type": "function"
    },
    {
      "inputs": [],
      "name": "initialize",
      "outputs": [],
      "stateMutability": "nonpayable",
      "type": "function"
    },
    {
      "inputs": [
        {
          "internalType": "bytes32",
          "name": "role",
          "type": "bytes32"
        },
        {
          "internalType": "address",
          "name": "account",
          "type": "address"
        }
      ],
      "name": "renounceRole",
      "outputs": [],
      "stateMutability": "nonpayable",
      "type": "function"
    },
    {
      "inputs": [
        {
          "internalType": "bytes32",
          "name": "role",
          "type": "bytes32"
        },
        {
          "internalType": "address",
          "name": "account",
          "type": "address"
        }
      ],
      "name": "revokeRole",
      "outputs": [],
      "stateMutability": "nonpayable",
      "type": "function"
    },
    {
      "inputs": [],
      "name": "router",
      "outputs": [
        {
          "internalType": "contract IRouter",
          "name": "",
          "type": "address"
        }
      ],
      "stateMutability": "view",
      "type": "function"
    },
    {
      "inputs": [],
      "name": "sAeroDistributor",
      "outputs": [
        {
          "internalType": "contract ISonneMerkleDistributor",
          "name": "",
          "type": "address"
        }
      ],
      "stateMutability": "view",
      "type": "function"
    },
    {
      "inputs": [],
      "name": "sSonneDistributor",
      "outputs": [
        {
          "internalType": "contract ISonneMerkleDistributor",
          "name": "",
          "type": "address"
        }
      ],
      "stateMutability": "view",
      "type": "function"
    },
    {
      "inputs": [],
      "name": "sonne",
      "outputs": [
        {
          "internalType": "address",
          "name": "",
          "type": "address"
        }
      ],
      "stateMutability": "view",
      "type": "function"
    },
    {
      "inputs": [
        {
          "internalType": "bytes4",
          "name": "interfaceId",
          "type": "bytes4"
        }
      ],
      "name": "supportsInterface",
      "outputs": [
        {
          "internalType": "bool",
          "name": "",
          "type": "bool"
        }
      ],
      "stateMutability": "view",
      "type": "function"
    },
    {
      "inputs": [],
      "name": "uAeroDistributor",
      "outputs": [
        {
          "internalType": "contract ISonneMerkleDistributor",
          "name": "",
          "type": "address"
        }
      ],
      "stateMutability": "view",
      "type": "function"
    },
    {
      "inputs": [],
      "name": "uUsdcDistributor",
      "outputs": [
        {
          "internalType": "contract ISonneMerkleDistributor",
          "name": "",
          "type": "address"
        }
      ],
      "stateMutability": "view",
      "type": "function"
    },
    {
      "inputs": [],
      "name": "usdbc",
      "outputs": [
        {
          "internalType": "address",
          "name": "",
          "type": "address"
        }
      ],
      "stateMutability": "view",
      "type": "function"
    },
    {
      "inputs": [],
      "name": "usdc",
      "outputs": [
        {
          "internalType": "address",
          "name": "",
          "type": "address"
        }
      ],
      "stateMutability": "view",
      "type": "function"
    }
  ],
  "transactionHash": "0x828a4494b72062a4698c2e564202d54c2672f83151fda27d59ffe592da83cbd2",
  "args": [],
  "numDeployments": 2,
  "solcInputHash": "4aa140eda36e680d8535e73838583e11",
  "bytecode": "0x608060405234801561001057600080fd5b50611597806100206000396000f3fe608060405234801561001057600080fd5b50600436106101215760003560e01c80638129fc1c116100ad578063c0c2ae5011610071578063c0c2ae5014610297578063ca45283b146102b2578063d547741f146102cd578063ec87621c146102e0578063f887ea401461030757600080fd5b80638129fc1c1461023e57806386f0abde1461024657806391d14854146102615780639bbb348914610274578063a217fddf1461028f57600080fd5b806326837eda116100f457806326837eda146101c75780632f2ff15d146101e257806336568abe146101f55780633e413bee146102085780634648e89a1461022357600080fd5b806301ffc9a7146101265780630bc798d21461014e5780630e1d682514610181578063248a9ca314610196575b600080fd5b610139610134366004611206565b610322565b60405190151581526020015b60405180910390f35b61016973d9aaec86b65d86f6a7b5b1b0c42ffa531710b6ca81565b6040516001600160a01b039091168152602001610145565b61019461018f366004611230565b610359565b005b6101b96101a4366004611272565b60009081526065602052604090206001015490565b604051908152602001610145565b61016973940181a94a35a4569e4529a3cdfb74e38fd9863181565b6101946101f036600461128b565b6107b3565b61019461020336600461128b565b6107dd565b61016973833589fcd6edb6e08f4c7c32d4f71b54bda0291381565b61016973a1918c958963dc7e710f5736a7fbca7c32bf501d81565b610194610860565b610169736cbdabf17c4634fa4f9a0c4a5e73fd869f9a9be881565b61013961026f36600461128b565b6109a6565b61016973071b00ef6ad31fb716955a1d70ab26d47290120a81565b6101b9600081565b6101697322a2488fe295047ba13bd8cccdbc8361dbd8cf7c81565b61016973ca31a8173ab19c3fa006d0adc2883882f189797b81565b6101946102db36600461128b565b6109d1565b6101b97f241ecf16d79d0f8dbfb92cbc07fe17840425976cf0667f022fe9877caa831b0881565b61016973cf77a3ba9a5ca399b7c97c74d54e5b1beb874e4381565b60006001600160e01b03198216637965db0b60e01b148061035357506301ffc9a760e01b6001600160e01b03198316145b92915050565b7f241ecf16d79d0f8dbfb92cbc07fe17840425976cf0667f022fe9877caa831b08610383816109f6565b6000610397606084013560408501356112dd565b9050831561058e576103bd73940181a94a35a4569e4529a3cdfb74e38fd9863185610a00565b60006103dd73940181a94a35a4569e4529a3cdfb74e38fd9863130610a35565b90506000826103f06060870135846112f5565b6103fa9190611314565b905060006104088284611336565b905061043d73940181a94a35a4569e4529a3cdfb74e38fd9863173ca31a8173ab19c3fa006d0adc2883882f189797b84610aaa565b6040516324d9914b60e21b815260048101839052602087013560248201526080870135604482015260a087013560648201526060870135608482015273ca31a8173ab19c3fa006d0adc2883882f189797b90639366452c9060a401600060405180830381600087803b1580156104b257600080fd5b505af11580156104c6573d6000803e3d6000fd5b50610500925073940181a94a35a4569e4529a3cdfb74e38fd98631915073a1918c958963dc7e710f5736a7fbca7c32bf501d905083610aaa565b604080516324d9914b60e21b815260048101839052873560248201526080880135604482015260a0880135606482015290870135608482015273a1918c958963dc7e710f5736a7fbca7c32bf501d90639366452c9060a401600060405180830381600087803b15801561057257600080fd5b505af1158015610586573d6000803e3d6000fd5b505050505050505b84156107ac576105b273833589fcd6edb6e08f4c7c32d4f71b54bda0291386610a00565b60006105d273833589fcd6edb6e08f4c7c32d4f71b54bda0291330610a35565b90506000826105e56060870135846112f5565b6105ef9190611314565b905060006105fd8284611336565b905061063273833589fcd6edb6e08f4c7c32d4f71b54bda02913736cbdabf17c4634fa4f9a0c4a5e73fd869f9a9be884610aaa565b6040516324d9914b60e21b815260048101839052602087013560248201526080870135604482015260a0870135606482015260608701356084820152736cbdabf17c4634fa4f9a0c4a5e73fd869f9a9be890639366452c9060a401600060405180830381600087803b1580156106a757600080fd5b505af11580156106bb573d6000803e3d6000fd5b505050506106c881610bad565b60006106e87322a2488fe295047ba13bd8cccdbc8361dbd8cf7c30610a35565b905061071d7322a2488fe295047ba13bd8cccdbc8361dbd8cf7c73071b00ef6ad31fb716955a1d70ab26d47290120a83610aaa565b604080516324d9914b60e21b815260048101839052883560248201526080890135604482015260a0890135606482015290880135608482015273071b00ef6ad31fb716955a1d70ab26d47290120a90639366452c9060a401600060405180830381600087803b15801561078f57600080fd5b505af11580156107a3573d6000803e3d6000fd5b50505050505050505b5050505050565b6000828152606560205260409020600101546107ce816109f6565b6107d88383610d95565b505050565b6001600160a01b03811633146108525760405162461bcd60e51b815260206004820152602f60248201527f416363657373436f6e74726f6c3a2063616e206f6e6c792072656e6f756e636560448201526e103937b632b9903337b91039b2b63360891b60648201526084015b60405180910390fd5b61085c8282610e1b565b5050565b600054610100900460ff16158080156108805750600054600160ff909116105b8061089a5750303b15801561089a575060005460ff166001145b6108fd5760405162461bcd60e51b815260206004820152602e60248201527f496e697469616c697a61626c653a20636f6e747261637420697320616c72656160448201526d191e481a5b9a5d1a585b1a5e995960921b6064820152608401610849565b6000805460ff191660011790558015610920576000805461ff0019166101001790555b610928610e82565b610933600033610d95565b61095d7f241ecf16d79d0f8dbfb92cbc07fe17840425976cf0667f022fe9877caa831b0833610d95565b80156109a3576000805461ff0019169055604051600181527f7f26b83ff96e1f2b6a682f133852f6798a09c465da95921460cefb38474024989060200160405180910390a15b50565b60009182526065602090815260408084206001600160a01b0393909316845291905290205460ff1690565b6000828152606560205260409020600101546109ec816109f6565b6107d88383610e1b565b6109a38133610eef565b600019811415610a2057610a1d6001600160a01b03831633610a35565b90505b61085c6001600160a01b038316333084610f48565b6040516370a0823160e01b81526001600160a01b038281166004830152600091908416906370a0823190602401602060405180830381865afa158015610a7f573d6000803e3d6000fd5b505050506040513d601f19601f82011682018060405250810190610aa3919061134d565b9392505050565b604080516001600160a01b038481166024830152604480830185905283518084039091018152606490920183526020820180516001600160e01b031663095ea7b360e01b1790529151600092839290871691610b069190611396565b6000604051808303816000865af19150503d8060008114610b43576040519150601f19603f3d011682016040523d82523d6000602084013e610b48565b606091505b5091509150818015610b72575080511580610b72575080806020019051810190610b7291906113b2565b6107ac5760405162461bcd60e51b815260206004820152600c60248201526b2173616665417070726f766560a01b6044820152606401610849565b60408051600280825260608201909252600091816020015b604080516080810182526000808252602080830182905292820181905260608201528252600019909201910181610bc55750506040805160808101825273833589fcd6edb6e08f4c7c32d4f71b54bda02913815273d9aaec86b65d86f6a7b5b1b0c42ffa531710b6ca602082015260019181019190915260006060820181905282519293509091839190610c5b57610c5b6113ea565b6020026020010181905250604051806080016040528073d9aaec86b65d86f6a7b5b1b0c42ffa531710b6ca6001600160a01b031681526020017322a2488fe295047ba13bd8cccdbc8361dbd8cf7c6001600160a01b0316815260200160001515815260200160006001600160a01b031681525081600181518110610ce157610ce16113ea565b6020908102919091010152610d1f73833589fcd6edb6e08f4c7c32d4f71b54bda0291373cf77a3ba9a5ca399b7c97c74d54e5b1beb874e4384610aaa565b60405163cac88ea960e01b815273cf77a3ba9a5ca399b7c97c74d54e5b1beb874e439063cac88ea990610d5f908590600090869030904290600401611400565b600060405180830381600087803b158015610d7957600080fd5b505af1158015610d8d573d6000803e3d6000fd5b505050505050565b610d9f82826109a6565b61085c5760008281526065602090815260408083206001600160a01b03851684529091529020805460ff19166001179055610dd73390565b6001600160a01b0316816001600160a01b0316837f2f8788117e7eff1d82e926ec794901d17c78024a50270940304540a733656f0d60405160405180910390a45050565b610e2582826109a6565b1561085c5760008281526065602090815260408083206001600160a01b0385168085529252808320805460ff1916905551339285917ff6391f5c32d9c69d2a47ea670b442974b53935d1edc7fd64eb21e047a839171b9190a45050565b600054610100900460ff16610eed5760405162461bcd60e51b815260206004820152602b60248201527f496e697469616c697a61626c653a20636f6e7472616374206973206e6f74206960448201526a6e697469616c697a696e6760a81b6064820152608401610849565b565b610ef982826109a6565b61085c57610f0681611058565b610f1183602061106a565b604051602001610f229291906114a2565b60408051601f198184030181529082905262461bcd60e51b825261084991600401611517565b604080516001600160a01b0385811660248301528481166044830152606480830185905283518084039091018152608490920183526020820180516001600160e01b03166323b872dd60e01b1790529151600092839290881691610fac9190611396565b6000604051808303816000865af19150503d8060008114610fe9576040519150601f19603f3d011682016040523d82523d6000602084013e610fee565b606091505b509150915081801561101857508051158061101857508080602001905181019061101891906113b2565b610d8d5760405162461bcd60e51b815260206004820152601160248201527021736166655472616e7366657246726f6d60781b6044820152606401610849565b60606103536001600160a01b03831660145b606060006110798360026112f5565b6110849060026112dd565b67ffffffffffffffff81111561109c5761109c6113d4565b6040519080825280601f01601f1916602001820160405280156110c6576020820181803683370190505b509050600360fc1b816000815181106110e1576110e16113ea565b60200101906001600160f81b031916908160001a905350600f60fb1b81600181518110611110576111106113ea565b60200101906001600160f81b031916908160001a90535060006111348460026112f5565b61113f9060016112dd565b90505b60018111156111b7576f181899199a1a9b1b9c1cb0b131b232b360811b85600f1660108110611173576111736113ea565b1a60f81b828281518110611189576111896113ea565b60200101906001600160f81b031916908160001a90535060049490941c936111b08161154a565b9050611142565b508315610aa35760405162461bcd60e51b815260206004820181905260248201527f537472696e67733a20686578206c656e67746820696e73756666696369656e746044820152606401610849565b60006020828403121561121857600080fd5b81356001600160e01b031981168114610aa357600080fd5b600080600083850361010081121561124757600080fd5b843593506020850135925060c0603f198201121561126457600080fd5b506040840190509250925092565b60006020828403121561128457600080fd5b5035919050565b6000806040838503121561129e57600080fd5b8235915060208301356001600160a01b03811681146112bc57600080fd5b809150509250929050565b634e487b7160e01b600052601160045260246000fd5b600082198211156112f0576112f06112c7565b500190565b600081600019048311821515161561130f5761130f6112c7565b500290565b60008261133157634e487b7160e01b600052601260045260246000fd5b500490565b600082821015611348576113486112c7565b500390565b60006020828403121561135f57600080fd5b5051919050565b60005b83811015611381578181015183820152602001611369565b83811115611390576000848401525b50505050565b600082516113a8818460208701611366565b9190910192915050565b6000602082840312156113c457600080fd5b81518015158114610aa357600080fd5b634e487b7160e01b600052604160045260246000fd5b634e487b7160e01b600052603260045260246000fd5b600060a0820187835260208781850152604060a08186015282885180855260c087019150838a01945060005b8181101561147657855180516001600160a01b039081168552868201518116878601528582015115158686015260609182015116908401529484019460809092019160010161142c565b50506001600160a01b0388166060870152935061149292505050565b8260808301529695505050505050565b7f416363657373436f6e74726f6c3a206163636f756e74200000000000000000008152600083516114da816017850160208801611366565b7001034b99036b4b9b9b4b733903937b6329607d1b601791840191820152835161150b816028840160208801611366565b01602801949350505050565b6020815260008251806020840152611536816040850160208701611366565b601f01601f19169190910160400192915050565b600081611559576115596112c7565b50600019019056fea264697066735822122037119e7b72d1abb0d63bd337013d9451209f9e9c7e903b61edd2c2fb97fa42da64736f6c634300080a0033",
  "devdoc": {
    "kind": "dev",
    "methods": {
      "getRoleAdmin(bytes32)": {
        "details": "Returns the admin role that controls `role`. See {grantRole} and {revokeRole}. To change a role's admin, use {_setRoleAdmin}."
      },
      "grantRole(bytes32,address)": {
        "details": "Grants `role` to `account`. If `account` had not been already granted `role`, emits a {RoleGranted} event. Requirements: - the caller must have ``role``'s admin role. May emit a {RoleGranted} event."
      },
      "hasRole(bytes32,address)": {
        "details": "Returns `true` if `account` has been granted `role`."
      },
      "renounceRole(bytes32,address)": {
        "details": "Revokes `role` from the calling account. Roles are often managed via {grantRole} and {revokeRole}: this function's purpose is to provide a mechanism for accounts to lose their privileges if they are compromised (such as when a trusted device is misplaced). If the calling account had been revoked `role`, emits a {RoleRevoked} event. Requirements: - the caller must be `account`. May emit a {RoleRevoked} event."
      },
      "revokeRole(bytes32,address)": {
        "details": "Revokes `role` from `account`. If `account` had been granted `role`, emits a {RoleRevoked} event. Requirements: - the caller must have ``role``'s admin role. May emit a {RoleRevoked} event."
      },
      "supportsInterface(bytes4)": {
        "details": "See {IERC165-supportsInterface}."
      }
    },
    "version": 1
  },
  "userdoc": {
    "kind": "user",
    "methods": {},
    "version": 1
  },
  "storageLayout": {
    "storage": [
      {
        "astId": 547,
        "contract": "contracts/BaseRewardManager.sol:BaseRewardManager",
        "label": "_initialized",
        "offset": 0,
        "slot": "0",
        "type": "t_uint8"
      },
      {
        "astId": 550,
        "contract": "contracts/BaseRewardManager.sol:BaseRewardManager",
        "label": "_initializing",
        "offset": 1,
        "slot": "0",
        "type": "t_bool"
      },
      {
        "astId": 1080,
        "contract": "contracts/BaseRewardManager.sol:BaseRewardManager",
        "label": "__gap",
        "offset": 0,
        "slot": "1",
        "type": "t_array(t_uint256)50_storage"
      },
      {
        "astId": 1353,
        "contract": "contracts/BaseRewardManager.sol:BaseRewardManager",
        "label": "__gap",
        "offset": 0,
        "slot": "51",
        "type": "t_array(t_uint256)50_storage"
      },
      {
        "astId": 39,
        "contract": "contracts/BaseRewardManager.sol:BaseRewardManager",
        "label": "_roles",
        "offset": 0,
        "slot": "101",
        "type": "t_mapping(t_bytes32,t_struct(RoleData)34_storage)"
      },
      {
        "astId": 334,
        "contract": "contracts/BaseRewardManager.sol:BaseRewardManager",
        "label": "__gap",
        "offset": 0,
        "slot": "102",
        "type": "t_array(t_uint256)49_storage"
      }
    ],
    "types": {
      "t_address": {
        "encoding": "inplace",
        "label": "address",
        "numberOfBytes": "20"
      },
      "t_array(t_uint256)49_storage": {
        "base": "t_uint256",
        "encoding": "inplace",
        "label": "uint256[49]",
        "numberOfBytes": "1568"
      },
      "t_array(t_uint256)50_storage": {
        "base": "t_uint256",
        "encoding": "inplace",
        "label": "uint256[50]",
        "numberOfBytes": "1600"
      },
      "t_bool": {
        "encoding": "inplace",
        "label": "bool",
        "numberOfBytes": "1"
      },
      "t_bytes32": {
        "encoding": "inplace",
        "label": "bytes32",
        "numberOfBytes": "32"
      },
      "t_mapping(t_address,t_bool)": {
        "encoding": "mapping",
        "key": "t_address",
        "label": "mapping(address => bool)",
        "numberOfBytes": "32",
        "value": "t_bool"
      },
      "t_mapping(t_bytes32,t_struct(RoleData)34_storage)": {
        "encoding": "mapping",
        "key": "t_bytes32",
        "label": "mapping(bytes32 => struct AccessControlUpgradeable.RoleData)",
        "numberOfBytes": "32",
        "value": "t_struct(RoleData)34_storage"
      },
      "t_struct(RoleData)34_storage": {
        "encoding": "inplace",
        "label": "struct AccessControlUpgradeable.RoleData",
        "members": [
          {
            "astId": 31,
            "contract": "contracts/BaseRewardManager.sol:BaseRewardManager",
            "label": "members",
            "offset": 0,
            "slot": "0",
            "type": "t_mapping(t_address,t_bool)"
          },
          {
            "astId": 33,
            "contract": "contracts/BaseRewardManager.sol:BaseRewardManager",
            "label": "adminRole",
            "offset": 0,
            "slot": "1",
            "type": "t_bytes32"
          }
        ],
        "numberOfBytes": "64"
      },
      "t_uint256": {
        "encoding": "inplace",
        "label": "uint256",
        "numberOfBytes": "32"
      },
      "t_uint8": {
        "encoding": "inplace",
        "label": "uint8",
        "numberOfBytes": "1"
      }
    }
  }
}